S00600002D454C3B
S325001000009302F0FF73B00230170500001305C505832505009302F0FF6384B20413054500C8
S3250010002003260500639C0500B74200000FA02208938202FEE39C02FE670006001305450048
S32500100040930605003305B50083A20600232056009386460013064600E398A6FE6FF05FFBA5
S325001000606F0000004440000000008100130101FC2320110023225100232461002326710099
S325001000802328A100232AB100232CC100232ED1002320E1022322F102232401032326110328
S325001000A02328C103232AD103232CE103232EF10373252034F325103473263034EF004014FA
S325001000C0731015348320010083224100032381008323C100032501018325410103268101E7
S325001000E08326C1010327010283274102032881028328C102032E0103832E4103032F810369
S32500100100832FC1031301010473002030130101FD2326110223248102130401031300000011
S32500100120F32740342320F4FEF32740302322F4FE032704FE832744FEB377F70093D707017A
S32500100140232AF4FC232E04FC93071000232CF4FC032744FD832784FDB377F7006382070669
S32500100160B7978100138707608327C4FD93973700B307F70003A70700B7978100938607601C
S325001001808327C4FD93973700B387F60083A7470013850700E700070013000000F3274034AE
S325001001A02324F4FEF32740302326F4FE032784FE8327C4FEB377F70093D707016F0000020F
S325001001C0832784FD93971700232CF4FC8327C4FD93871700232EF4FC6FF09FF7232AF4FC4F
S325001001E0832744FDE39007F613000000130000008320C10203248102130101036780000059
S32500100200130101FD232611022324810213040103232EA4FC232CB4FC232AC4FC0327C4FD8D
S32500100220B7070080B377F7002322F4FE0327C4FDB707008093C7F7FFB377F7002324F4FE3F
S32500100240832744FE63800708032784FE93073000630CF702032784FE93077000631AF7049E
S3250010026083A7C1826386070A1300000083A7C182032644FD832584FD0325C4FDE780070097
S32500100280130000006F00C00883A78182638607081300000083A78182032644FD832584FD06
S325001002A00325C4FDE7800700130000006F00C006032784FE9307F00063F4E706EFF01FE52C
S325001002C06F00000683A701836380070483A70183032784FE032644FD832584FD13050700EB
S325001002E0E78007002326A4FE8327C4FE63880700832784FD938747006F008000832784FD8B
S32500100300232CF4FC6F000002730010006F008001130000006F000001130000006F0080001F
S3250010032013000000832784FD138507008320C102032481021301010367800000130101FDA9
S325001003402326810213040103232EA4FC8327C4FD2320F4FEB7A781009387C70B83A7070013
S325001003602322F4FE832744FE13870700832704FE23A0E700930710002324F4FEB7A781008B
S325001003809387C70B032784FE23A0E700B7A781009387C70B83A707002326F4FE13000000BB
S325001003A00324C1021301010367800000130101FE232E1100232C8100130401029387418202
S325001003C02322F4FE930710002324F4FEB7A781009387870B032784FE23A0E7009307100062
S325001003E02326F4FEB7A781009387C70B0327C4FE23A0E70013070000832644FEB707810007
S325001004001386072D9305300013050000EF000016130000008320C1010324810113010102DC
S3250010042067800000130101FE232E1100232C810013040102B787810013850700EF30D00310
S32500100440EFF0DFF6232204FE232404FE03A74182930710006310F702B7878100138547051C
S32500100460EF30900123A20182232404FE232204FE6FF0DFFD032784FEB78701009387076A2D
S325001004806316F702832744FE138717002322E4FE2326F4FEB7A78100938707040327C4FEE5
S325001004A023A0E700232404FE6FF05FFA832784FE938717002324F4FE6FF05FF99702000095
S325001004C0938202BB739052309302800873B002307310403073104034930200400FA00208C5
S325001004E0938202FEE39C02FE97A100009381019213814126138341829383418E23200300F4
S3250010050013034300E36C73FEEF00802917830000130303CC97830000938383D363787300C1
S325001005202320030013034300E36C73FE97820000938202CA17830000130383C99783000036
S32500100540938303D163FC620083A4020023A093009382420093834300E3E862FE17820000E7
S32500100560130202C7EF00802B6F000000130101FD2326110223248102130401032326A4FE40
S325001005802324B4FE2322C4FE2320D4FE232EE4FC0327C4FD832604FE032644FE832584FED4
S325001005A00325C4FEEF00C00193070500138507008320C1020324810213010103678000003E
S325001005C0130101FA232E810413040106232EA4FA232CB4FA232AC4FA2328D4FA2326E4FACB
S325001005E09307A0FE2322F4FC832784FB2324F4FC032784FC9307F00063C8E71293078000A6
S32500100600F3B707302328F4FC832704FD2326F4FCB797810013870760832784FC9397370069
S32500100620B307F700032744FB23A0E700B797810013870760832784FC93973700B307F700D4
S32500100640032704FB23A2E700832744FB63820706832784FC0327C4FB232AE4FC232CF4FC55
S32500100660032784FD9307F00063E8E700832784FD938707016F0080009307F0FF232EF4FCF7
S325001006808327C4FD63D607008327C4FD6F0000088327C4FD232CF4FC832784FD13071000B8
S325001006A0B317F70073A04730930700006F000006832784FC0327C4FB2320E4FE2322F4FE5B
S325001006C0032744FE9307F00063E8E700832744FE938707016F0080009307F0FF2324F4FE1D
S325001006E0832784FE63D60700832784FE6F000002832784FE2322F4FE832744FE1307100062
S32500100700B317F70073B04730930700002322F4FC8327C4FC2326F4FE8327C4FE93F7870077
S3250010072073A0073013000000832744FC138507000324C1051301010667800000130101FEBB
S32500100740232E8100130401022326A4FE2324B4FE2322C4FE032784FE8327C4FE630AF7022E
S325001007606F0040020327C4FE930747002326F4FE832784FE938647002324D4FE03270700D4
S3250010078023A0E700032784FE832744FEE31CF7FC130000000324C101130101026780000015
S325001007A0130101FF23261100232481001304010113864182B787810093850716B7878100C5
S325001007C013850716EFF09FF7B70781001386072DB707810093850700B70781001385070091
S325001007E0EFF0DFF5B78781001386C715B787810093850700B787810013850700EFF01FF4CE
S32500100800EF20802DEF200051130000008320C100032481001301010167800000130101FE77
S32500100820232E1100232C81001304010213050000EF00800513000000EF008008B787810081
S325001008401386C707B78781009385C707B78781001385C707EF20C06603A7418383A6818381
S3250010086083A7C183138607009385060013050700EFF05FBB2326A4FE13051000EF20C01824
S325001008800325C4FEEF30C03C130101FE232E1100232C8100130401022326A4FEEF20905103
S325001008A09307800073A0073013000000130000008320C1010324810113010102678000008C
S325001008C0130101FE232E1100232C8100130401021306100093050000B787810013858720E4
S325001008E0EF004021B78781001385071EEF200026130000001306200093050000B79781002E
S3250010090013858726EF00D048B797810013850724EF20C023B797810013854730EF10D0390B
S325001009209307803E2326F4FE83A74184639807000327C4FE23A2E1846F0080001300000005
S32500100940B73781009387C7762324F4FE032784FE23A6E18213000000EF20D072130600002D
S325001009609305000013050000EF201067130000008320C1010324810113010102678000000C
S32500100980130101FD232611022324810213040103232EA4FC232CB4FC232AC4FC8327C4FD86
S325001009A083A707002326F4FE8327C4FE138787028327C4FD83A7870093860700032644FD80
S325001009C0832584FD13050700EF00406493070500138507008320C1020324810213010103C0
S325001009E067800000130101FD232611022324810213040103232EA4FC232CB4FC232AC4FCAA
S32500100A008327C4FD83A707002326F4FE8327C4FE138787028327C4FD83A78700938607001E
S32500100A20032644FD832584FD13050700EF00D00093070500138507008320C10203248102E1
S32500100A401301010367800000130101FD232611022324810213040103232EA4FC8327C4FDD2
S32500100A6083A707002326F4FE8327C4FE138787028327C4FD83A7870093850700130507000B
S32500100A80EF00004293070500138507008320C102032481021301010367800000130101FDB0
S32500100AA0232611022324810213040103232EA4FC232CB4FC232AC4FC8327C4FD83A7070046
S32500100AC02326F4FE8327C4FE93878702032644FD832584FD13850700EF0040439307050073
S32500100AE0138507008320C102032481021301010367800000130101FD2326110223248102FA
S32500100B0013040103232EA4FC232CB4FC232AC4FC8327C4FD1307100023A0E7028327C4FDFB
S32500100B2083A707022326F4FE8327C4FD83A7070093874700138707008327C4FE2320F700ED
S32500100B40032584FD832544FD130700008326C4FDB7178100138647B4EFF05FA18327C4FD3C
S32500100B6023A207028327C4FD1387870083A541848326C4FDB71781001386C7D71305070009
S32500100B80EF10104B9307050063DA07008327C4FD370700801347F7FF23A2E70013000000CA
S32500100BA08320C102032481021301010367800000130101FA232E8104130401062326A4FA26
S32500100BC08327C4FA2322F4FC832744FC83A707002324F4FC232C04FA832784FC9387470038
S32500100BE083A707002326F4FC8327C4FC2328F4FC832704FD93F70730638E071C832704FDA5
S32500100C0093F707106386070EB7070100232EF4FA832744FC83A787029387170093F7F77F53
S32500100C20232AF4FC832744FC83A7C702032744FD6302F706832784FC83A70700232CF4FC1D
S32500100C40832784FD232EF4FA0327C4FBB7870000B377F70063840704832744FC83A787023D
S32500100C600327C4FB1377F70F832644FCB387F600238CE702832744FC83A787029387170066
S32500100C8013F7F77F832744FC23A4E702130000006FF01FF8130000006F0080001300000086
S32500100CA00327C4FBB70701006364F704832744FC83A7070213F7E7FF832744FC23A0E70211
S32500100CC0832744FC83A70702232EF4FC832784FC93874700138707008327C4FD2320F700CF
S32500100CE0832784FC9387470083A707002320F4FE832704FD93F70720E38007EE832704FD8E
S32500100D0093D707012320F4FC6F00C005832744FC83A74703032744FCB307F700371700001D
S32500100D20B307F70083C787832322F4FE832784FC032744FE23A0E700832744FC83A74703C3
S32500100D409387170013F7F77F832744FC23AAE70293071000232CF4FA832704FC9387F7FF8B
S32500100D602320F4FC832704FC638C0700832744FC03A74703832744FC83A70703E318F7F8A4
S32500100D80832704FCE38A07E4832744FC83A7070213F7D7FF832744FC23A0E702832744FCBE
S32500100DA083A707022324F4FE832744FC83A707009387470013870700832784FE2320F7002E
S32500100DC0832784FC9387470083A707002326F4FE6FF09FE013000000130000000324C10515
S32500100DE01301010667800000130101FD2326810213040103232EA4FC8327C4FD2320F4FE51
S32500100E00832704FE83A707009387470083A707002322F4FE832744FE2324F4FE832784FEC5
S32500100E2093F70740638C0702832704FE83A7070293E707402326F4FE832704FE83A707001B
S32500100E4093874700138707008327C4FE2320F700832704FE23A207026F004003832704FEFC
S32500100E6003A74702B707008093C7C7FF63E0E702832704FE83A7470213871700832704FE63
S32500100E8023A2E702832704FE83A7470283A74184138507000324C1021301010367800000F8
S32500100EA0130101FE232E8100130401022326A4FE2324B4FE6F00C001032784FEB74700005F
S32500100EC0B377F70063860700930750FF6F0000038327C4FE03A747038327C4FE83A7070390
S32500100EE0630CF7008327C4FE03A747028327C4FE83A74700E362F7FC9307000013850700C9
S32500100F000324C1011301010267800000130101FD2326810213040103232EA4FC232CB4FCEB
S32500100F20232AC4FC930770FE2324F4FE032784FDB7770000938717A0630CF700032784FD92
S32500100F40B7770000938727A06302F7066F00C00A8327C4FD03A74700B707008093C7F7FFE7
S32500100F606306F708832744FD83A707002326F4FE0327C4FE9307100063DEE7000327C4FEF2
S32500100F80B707008093C7F7FF6306F7008327C4FE6F00C000B707008093C7E7FF0327C4FD49
S32500100FA02322F700232404FE6F0040048327C4FD03A74700B707008093C7F7FF630CF70291
S32500100FC08327C4FD03A747028327C4FD83A74700B337F70093F7F70F13870700832744FDC4
S32500100FE023A0E700232404FE6F00C000130000006F00800013000000832784FE13850700D9
S325001010000324C1021301010367800000130101FC232E1102232C8102130401042326A4FC85
S325001010202324B4FC2322C4FC2320D4FC832784FC2328F4FC6F0080128327C4FC83A7870208
S32500101040232CF4FC8327C4FC83A7C702232EF4FC032784FD8327C4FD636CF700032784FD16
S325001010608327C4FDB307F740232AF4FC6F008001B7170000138707808327C4FDB307F74086
S32500101080232AF4FC832744FD638E0706832744FC032744FD63F6E700832744FC232AF4FC58
S325001010A08327C4FC138787038327C4FDB307F700032644FD93850700032504FDEF2010326D
S325001010C0032704FD832744FDB307F7002328F4FC032744FC832744FDB307F7402322F4FC7D
S325001010E00327C4FD832744FDB307F70013F7F77F8327C4FC23A6E702832744FCE34EF0F2BA
S325001011006F00800013000000032704FD832784FC631CF704032704FCB7470000B377F7009F
S3250010112063980704130000008327C4FC83A78702032784FD631CF7008327C4FC03A74702E5
S325001011408327C4FC83A74700E360F7FE8327C4FC83A78702032784FD6300F702832744FC58
S32500101160E34CF0EC6F008001130000006F000001130000006F00800013000000032704FD9B
S32500101180832784FC6304F70693078000F3B707302326F4FE8327C4FE2320F4FE8327C4FC6A
S325001011A083A7070213E717008327C4FC23A0E7028327C4FC83A707022322F4FE8327C4FC81
S325001011C083A707009387470013870700832744FE2320F700832704FE2324F4FE832784FE8F
S325001011E093F7870073A0073013000000032704FD832784FC630AF700032704FD832784FC5D
S32500101200B307F7406F000002032704FCB7470000B377F70063860700930750FF6F00800045
S325001012209307B0FF138507008320C103032481031301010467800000130101FC232E110229
S32500101240232C8102130401042326A4FC2324B4FC2322C4FC2320D4FC232804FC832784FC1D
S32500101260232CF4FC6F00C00E8327C4FC83A70703232EF4FC8327C4FC83A747032328F4FCE4
S325001012800327C4FD832704FD637EF700032704FD8327C4FDB307F7409387F7FF232AF4FCF6
S325001012A06F004003832704FD638E0700B7170000138707808327C4FDB307F740232AF4FC3B
S325001012C06F0040011307F07F8327C4FDB307F740232AF4FC832744FD63820708832744FC5D
S325001012E0032744FD63F6E700832744FC232AF4FC0327C4FCB7170000938787833307F700F9
S325001013008327C4FDB307F700032644FD832584FC13850700EF20900C032784FC832744FD2A
S32500101320B307F7002324F4FC032744FC832744FDB307F7402322F4FC0327C4FD832744FD5E
S32500101340B307F70013F7F77F8327C4FC23A8E702832744FCE34AF0F06F008000130000002F
S3250010136093078000F3B707302326F4FE8327C4FE2320F4FE8327C4FC83A7070213E72700C2
S325001013808327C4FC23A0E7028327C4FC83A707022322F4FE8327C4FC83A707009387470051
S325001013A013870700832744FE2320F700832704FE2324F4FE832784FE93F7870073A00730E4
S325001013C013000000832744FC6354F004032704FCB7470000B377F7006392070413000000F3
S325001013E08327C4FC83A74703032704FD631CF7008327C4FC03A747028327C4FC83A7470020
S32500101400E360F7FE8327C4FC83A74702639C0700832744FCE34EF0F26F000001130000001B
S325001014206F00800013000000032784FC832784FD630AF700032784FC832784FDB307F74095
S325001014406F000002032704FCB7470000B377F70063860700930750FF6F0080009307B0FFAB
S32500101460138507008320C103032481031301010467800000130101FD23261102232481026D
S3250010148013040103232EA4FC232CB4FC232AC4FC8327C4FD83A707002326F4FE8327C4FEDB
S325001014A0138787028327C4FD83A7870093860700032644FD832584FD13050700EF00804C4A
S325001014C093070500138507008320C102032481021301010367800000130101FD232611023B
S325001014E02324810213040103232EA4FC232CB4FC232AC4FC8327C4FD83A707002326F4FE1D
S325001015008327C4FE138787028327C4FD83A7870093860700032644FD832584FD1305070038
S32500101520EF00006493070500138507008320C102032481021301010367800000130101FDE3
S32500101540232611022324810213040103232EA4FC8327C4FD83A707002326F4FE8327C4FE00
S32500101560138787028327C4FD83A787009385070013050700EF00803B9307050013850700F0
S325001015808320C102032481021301010367800000130101FD232611022324810213040103D3
S325001015A0232EA4FC232CB4FC232AC4FC8327C4FD83A707002322F4FE93070000639A0700A7
S325001015C093070000639607009307000063860700930710006F008000930700002324F4FE65
S325001015E0832784FE639607048327C4FD37170000130707C823A2E7008327C4FD83A747007B
S325001016002326F4FE832744FE9387C7000327C4FE23A0E700130700008326C4FDB717810043
S325001016201386875D832544FD032584FDEFE01FF4130000008320C102032481021301010368
S3250010164067800000130101FC232E1102232C8102130401042326A4FC8327C4FC232CF4FC98
S32500101660832784FD83A70700232EF4FC8327C4FD9387870083A707002320F4FE832704FE99
S325001016802322F4FE232404FE8327C4FD93878700032784FE23A0E7008327C4FD9387870046
S325001016A083A707002326F4FE832744FE93F7070863880700832544FE032584FDEF000003AC
S325001016C0832744FE93F7074463880700832544FE032584FDEF000010130000008320C10335
S325001016E0032481031301010467800000130101FD2326810213040103232EA4FC232CB4FC40
S32500101700832784FD93F73700639E070A8327C4FD83A7C7008327C4FD83A787008327C4FDD2
S3250010172083A7C7009387170093F7F7032322F4FE8327C4FD83A7070083A707002324F4FEB0
S32500101740032784FE8327C4FD83A7C7001377F70F8326C4FDB387F600238EE7008327C4FD3E
S32500101760032744FE23A6E7008327C4FD83A7C7009387170093F7F7032322F4FE8327C4FD84
S3250010178083A78700032744FE6310F7048327C4FD83A7470013F7F7F78327C4FD23A2E700BD
S325001017A08327C4FD83A747002326F4FE8327C4FD83A707009387C7000327C4FE23A0E700E9
S325001017C06F008000130000000324C1021301010367800000130101FD23268102130401030F
S325001017E0232EA4FC232CB4FC8327C4FD03A707018327C4FD83A74701630EF70C8327C4FD0A
S3250010180083A7870193F72700638C0700032784FDB717000093870780B377F700638A070624
S325001018208327C4FD83A707018327C4FD83A747018327C4FD83A707010327C4FDB307F700DF
S3250010184083C7C70593F7F70F2324F4FE8327C4FD83A7070093874700032784FE23A0E70040
S325001018608327C4FD83A707019387170013F7F7038327C4FD23A8E7008327C4FD83A7470087
S3250010188013E707048327C4FD23A2E7006F0080048327C4FD83A707009387870083A70700B5
S325001018A02322F4FE832744FE232CF4FC032784FDB717000093870780B377F700639C07006F
S325001018C08327C4FD83A7470013F7F7FB8327C4FD23A2E7008327C4FD03A707018327C4FD7B
S325001018E083A74701631CF7008327C4FD83A7470013F7F7BB8327C4FD23A2E7008327C4FDD0
S3250010190083A747002326F4FE8327C4FD83A707009387C7000327C4FE23A0E70013000000DF
S325001019200324C1021301010367800000130101FE232E8100130401022326A4FE2324B4FEC5
S325001019406F00C001032784FEB7470000B377F70063860700930750FF6F00C0018327C4FE01
S3250010196003A707018327C4FE83A74701E31CF7FC93070000138507000324C1011301010296
S3250010198067800000130101FB2326810413040105232EA4FA232CB4FA232AC4FA2328D4FA3F
S325001019A0A30504FC232604FC032704FBB7470000B377F70093B7170093F7F70F2328F4FCAC
S325001019C06F0000058327C4FC938717002326F4FC8327C4FB03A78700832784FB93861700B6
S325001019E0232CD4FA8326C4FB3387E6000347C7011377F70F2380E7008327C4FB83A7870066
S32500101A009387170013F7F7038327C4FB23A4E7000327C4FC832744FB635CF7008327C4FB72
S32500101A2003A787008327C4FB83A7C700E31CF7F88327C4FC639C07088327C4FB03A7870005
S32500101A408327C4FB83A7C7006312F708832704FD639C07001307B00023AEE1849307100047
S32500101A60A305F4FC6F00800793078000F3B707302322F4FE832744FE232AF4FC8327C4FBFE
S32500101A8083A7470013E707088327C4FB23A2E7008327C4FB83A74700232CF4FC8327C4FB1F
S32500101AA083A707009387C700032784FD23A0E700832744FD2320F4FE832704FE93F78700CC
S32500101AC073A0073013000000130000008327C4FC63960700832744FBE39C07F2930780009B
S32500101AE0F3B707302326F4FE8327C4FE232AF4FC8327C4FB83A7470013E707088327C4FBBF
S32500101B0023A2E7008327C4FB83A74700232EF4FC8327C4FB83A707009387C7000327C4FD82
S32500101B2023A0E700832744FD2324F4FE832784FE93F7870073A00730130000008347B4FCAD
S32500101B4063860700930750FF6F0080008327C4FC138507000324C1041301010567800000B1
S32500101B60130101FB2326810413040105232EA4FA232CB4FA232AC4FA2328D4FA832744FB5B
S32500101B802324F4FC032704FBB7470000B377F7002326F4FC6F00C00E8327C4FB83A747015F
S32500101BA09387170093F7F7032328F4FC8327C4FB83A70701032704FD6316F7088327C4FC77
S32500101BC0638807001307B00023AEE1846F00C00B93078000F3B707302322F4FE832744FEA5
S32500101BE0232AF4FC8327C4FB83A7470013E707448327C4FB23A2E7008327C4FB83A7470084
S32500101C00232CF4FC8327C4FB83A707009387C700032784FD23A0E700832744FD2320F4FE7F
S32500101C20832704FE93F7870073A0073013000000130000008327C4FB83A70701032704FD9B
S32500101C40E308F7FE832784FC9387F7FF2324F4FC832784FB13871700232CE4FA0327C4FB2D
S32500101C608326470103C707008327C4FBB387D700238EE7048327C4FB032704FD23AAE7002E
S32500101C80832784FCE39A07F093078000F3B707302326F4FE8327C4FE232AF4FC8327C4FB48
S32500101CA083A7470013E707448327C4FB23A2E7008327C4FB83A74700232EF4FC8327C4FBBF
S32500101CC083A707009387C7000327C4FD23A0E700832744FD2324F4FE832784FE93F78700E6
S32500101CE073A0073013000000032744FB832784FCB307F740138507000324C1041301010548
S32500101D0067800000130101FC232E1102232C8102130401042326A4FC2324B4FC232C04FC34
S32500101D20232E04FC232004FE232204FE8327C4FC639607009307A0FE6F00800D8327C4FCA8
S32500101D40232EF4FC832784FC93978700232CF4FC832784FD93E73700232CF4FC832784FDCC
S32500101D602324F4FE8327C4FD83A7070C9387C70013870700832784FE2320F7000325C4FD9B
S32500101D80EF00D0212322A4FE832744FE63860700832744FE6F00C0078327C4FD83A7070CC0
S32500101DA083A707002326F4FE8327C4FE2322F4FE832744FE93D7274093F77700032704FE14
S32500101DC0B367F7002320F4FE832744FE93D7374093F78700032704FEB367F7002320F4FE57
S32500101DE0832744FE93D7174093F70701032704FEB367F7002320F4FE032704FE832784FCC6
S32500101E006306F700930720FD6F00800093070000138507008320C103032481031301010442
S32500101E2067800000130101FD2326810213040103232EA4FC232CB4FC232AC4FC232604FE64
S32500101E408327C4FD638A0700832784FD63860700832744FD639607009307A0FE6F0040041C
S32500101E608327C4FD2326F4FE8327C4FE03A70703832744FD23A0E7008327C4FE83A7070351
S32500101E80639607009307B0FF6F0080018327C4FE13874703832784FD23A0E7009307000034
S32500101EA0138507000324C1021301010367800000130101FC232E8102130401042326A4FC9A
S32500101EC02324B4FC232A04FC232C04FC232E04FC232004FE8327C4FC639607009307A0FE21
S32500101EE06F00C00E8327C4FC232EF4FC832784FC63C607028327C4FD03A7470C832784FCF6
S32500101F0063FEE7008327C4FD83A7070D1387F7FF832784FCB377F700638607009307A0FEB7
S32500101F206F00C00A032784FC8327C4FD83A7070DB357F7022320F4FE832704FE13978700EA
S32500101F40B7070001938707F0B377F700232CF4FC832784FD93E72700232CF4FC832784FD05
S32500101F602322F4FE8327C4FD83A7070C9387C70013870700832744FE2320F7008327C4FD59
S32500101F8083A7070C9387070183A707002324F4FE832784FE13F71700930710006316F702F9
S32500101FA0930710002326F4FE8327C4FD83A7070C93870701138707008327C4FE2320F70015
S32500101FC09307B0FF6F008000832744FD138507000324C1031301010467800000130101FA2F
S32500101FE0232E1104232C810413040106232EA4FA232CB4FA232AC4FA2328D4FA2326E4FA3C
S3250010200003A701862326E4FE13070000232404FC8327C4FA2326F4FC832744FB2328F4FC28
S325001020208327C4FB232EF4FC832784FB63CE0706832744FB63CA07068327C4FB63860706F7
S32500102040832704FB638207068327C4FD03A7470C832744FB63FAE7048327C4FD03A7470CCE
S32500102060832784FB63F2E7048327C4FD83A7070D832644FB032784FB3387E6403387E740E6
S325001020808327C4FA6362F7028327C4FA63CE07008327C4FD83A7070D1387F7FF832784FB02
S325001020A0B377F700638C07149307A0FE6F00C0159307F0FF2322F4FC232A04FC930740007E
S325001020C0232CF4FC832704FD93F73700638C0704832704FD93F73700232AF4FC032784FDF1
S325001020E0832744FDB307F740232CF4FC032784FD8327C4FC63F6E7008327C4FC232CF4FCB1
S32500102100032704FD832744FDB307F7402328F4FC832704FD93F73700638007029307A0FED7
S325001021206F00800E032784FD8327C4FC63F6E7008327C4FC232CF4FC130744FC832744FD49
S32500102140B306F700032704FB832784FCB307F700032684FD9385070013850600EF10102817
S32500102160032784FC832784FDB307F7002324F4FC0327C4FC832784FDB307F7402326F4FC4D
S32500102180832744FC2320F4FE8327C4FD03A7870B832704FDB307F70013870700832704FEBA
S325001021A02320F7008327C4FD83A7070C9387070183A707002322F4FE832744FE13F7270080
S325001021C0930720006316F702930720002324F4FE8327C4FD83A7070C93870701138707005F
S325001021E0832784FE2320F7009307B0FF6F00C001832704FD938747002328F4FC8327C4FC39
S32500102200E39807EA93070000138707008326C4FE83A70186B3C7F6009306000063840700EE
S32500102220EF101021130507008320C105032481051301010667800000130101FB23261104B3
S325001022402324810413040105232EA4FA232CB4FA232AC4FA2328D4FA232604FC232204FEDF
S32500102260832784FB2328F4FC832704FB232AF4FC232C04FC232E04FC8327C4FB6386070005
S32500102280832744FB639607009307A0FE6F00C0168327C4FB2322F4FE832784FB032704FBD0
S325001022A01306070093850700032544FEEF0040452326A4FC8327C4FC638607008327C4FC3E
S325001022C06F008013032784FB832744FE83A7070DB357F702232EF4FC6F004010232404FEC7
S325001022E0232004FE232604FE832744FD63820710832744FE83A7070DB307F040032704FD12
S32500102300B377F7002324F4FE032784FE832704FD630AF700032704FD832784FEB307F7404A
S325001023202320F4FE832784FE938507000325C4FBEFF01FB82326A4FC8327C4FC6386070027
S325001023408327C4FC6F00400B832744FE03A7070D832704FE3307F740832744FD6374F700C3
S32500102360930707002326F4FE832584FE032604FD032744FB832784FDB307F7000327C4FEE6
S32500102380938607000325C4FBEFF05FC52326A4FC8327C4FC638607008327C4FC6F00C0053C
S325001023A0032744FD8327C4FEB307F740232AF4FC032784FD8327C4FEB307F700232CF4FCFB
S325001023C0032704FD8327C4FEB307F7002328F4FC8327C4FD93871700232EF4FC832744FE9B
S325001023E083A7C70C0327C4FDE36AF7EE6F008000130000008327C4FC138507008320C1043A
S32500102400032481041301010567800000130101FD232611022324810213040103232EA4FCB5
S32500102420232CB4FC232AC4FC2328D4FC232404FE232604FE8327C4FD63860700832744FD85
S32500102440639607009307A0FE6F00C0058327C4FD2326F4FE832784FD032704FD13060700DE
S32500102460938507000325C4FEEF0080292324A4FE832784FE639607028327C4FE03A7870BE6
S32500102480832784FDB307F70013870700832704FD1386070093050700032544FDEF100074E3
S325001024A0832784FE138507008320C102032481021301010367800000130101FC232E1102B7
S325001024C0232C8102130401042326A4FC232E04FC232204FE232004FE8327C4FC63960700C8
S325001024E09307A0FE6F0080208327C4FC83A7070C639607009307D0FE6F00401F8327C4FC38
S3250010250083A7870C639A070A8327C4FC83A7070C9387870083A707002326F4FE8327C4FEBA
S32500102520232EF4FC8327C4FD93F7F70F232EF4FC8327C4FD9387B7FE1307C000636AF7062A
S3250010254013972700B78781009387470EB307F70083A7070067800700930700022320F4FEC5
S325001025606F00000E930700042320F4FE6F00400D930700082320F4FE6F00800C93070010BD
S325001025802320F4FE6F00C00B930700202320F4FE6F00000B930700402320F4FE6F00400A85
S325001025A0B7170000938707802320F4FE6F0040099307D0FE6F0080138327C4FC83A7070C98
S325001025C09387470083A707002324F4FE832784FE232EF4FC8327C4FD93F7F70F232EF4FC71
S325001025E00327C4FD930780016302F7040327C4FD9307800163E2E7040327C4FD9307400163
S32500102600630AF7000327C4FD93076001630AF7006F008002930700022320F4FE6F00400283
S32500102620930700082320F4FE6F008001930700102320F4FE6F00C0009307D0FE6F00000BCD
S325001026408327C4FC83A7070D032704FEB307F7022322F4FE8327C4FC83A7470C032744FE53
S32500102660631AF7008327C4FC83A7C70C032704FE630AF7008327C4FC23A807029307D0FE33
S325001026806F00C0068327C4FC0327C4FD23ACE70C8327C4FC032704FE23A6E70C8327C4FC1C
S325001026A01307100023A8E7028327C4FC23AA0702032744FE8327C4FC23ACE702032704FE2C
S325001026C08327C4FC23AEE7028327C4FC83A7070D138707008327C4FC23A0E7048327C4FCF5
S325001026E013850700EF00805F93070000138507008320C1030324810313010104678000000C
S32500102700130101FD2326810213040103232EA4FC232CB4FC232AC4FC232204FE232404FE1D
S32500102720232604FE8327C4FD639607009307A0FE6F00C0058327C4FD2322F4FE832744FED3
S3250010274083A7870B032784FDB307F7002324F4FE032784FE832744FDB307F7002326F4FE8F
S32500102760832744FE83A7C70B032784FE637AF700832744FE03A7C70B8327C4FE6376F70037
S325001027809307A0FE6F00800093070000138507000324C1021301010367800000130101FDC8
S325001027A0232611022324810213040103232EA4FCB7B70A00938707E62324F4FE231304FEE1
S325001027C08327C4FD639A07029307A0FE6F00000513051000EF00C01B835764FE032784FEEC
S325001027E063E6E700930720FC6F004003835764FE938717002313F4FE8327C4FD83A7070CEE
S3250010280083A707002326F4FE8327C4FE13F7170093071000E30EF7FA9307000013850700E4
S325001028208320C102032481021301010367800000130101FC232E8102130401042326A4FC89
S325001028402324B4FC2322C4FC2320D4FC13070000930700002324E4FE2326F4FE83A741844C
S32500102860638E07108327C4FC638607108327C4FC032744FC23A8E7008327C4FC032704FCB6
S3250010288023AAE70093078000F3B707302322F4FE832744FE232AF4FC03A7C18483A7018574
S325001028A02324E4FE2326F4FE832784FC1388070093080000032684FE8326C4FE3307C8001F
S325001028C093050700B3B50501B387D800B386F500938706001306070093860700130510000D
S325001028E0930500003307A600130807003338C800B387B600B306F800938706008326C4FCCB
S3250010290023A4E60023A6F6008327C4FC1387C181232EE4FC2320F4FE832704FE0327C4FDF2
S3250010292023A2E7008327C4FD03A70700832704FE23A0E7008327C4FD83A70700032704FE9B
S3250010294023A2E7008327C4FD032704FE23A0E70013000000832744FD232CF4FC832784FD0C
S3250010296093F7870073A0073013000000930700006F0000019307A0FE6F0080009307A0F771
S32500102980138507000324C1031301010467800000130101FD23261102232481021304010344
S325001029A0232EA4FCEF0050430327C4FD93074006B307F7022324F4FE232604FE1300000079
S325001029C0EF00504513070500938705008326C4FE13860700E366D6FE8326C4FE13860700EC
S325001029E06398C600832684FE93070700E3EAD7FC93070000138507008320C102032481024B
S32500102A001301010367800000130101FD232611022324810213040103232EA4FC8327C4FDF2
S32500102A2063C407020327C4FD9307070093971700B387E700939727003797810013078740E1
S32500102A40B387E7006F008000930700002324F4FE832784FE63820706832784FE83A7070002
S32500102A6083A7070163800702832784FE83A7070083A70701032584FEE780070093070500DC
S32500102A806F008000930700002326F4FE0325C4FDEF00007E8327C4FE63DC07008327C4FEE8
S32500102AA03307F04023AEE1849307F0FF6F008001930700006F0000011307100523AEE18478
S32500102AC09307F0FF138507008320C102032481021301010367800000130101FE232E8100C4
S32500102AE013040102232604FE6F0080018327C4FE0FA017088327C4FE938707022326F4FE67
S32500102B000327C4FE9307F03FE3F2E7FE13000000130000000324C101130101026780000023
S32500102B20130101FE232E8100130401022326A4FE2324B4FE2322C4FE832744FE138507000A
S32500102B400324C1011301010267800000130101FE232E1100232C8100130401022326A4FE2E
S32500102B60B79781009385475A0325C4FEEF00C00193070500138507008320C10103248101D1
S32500102B801301010267800000130101FD2326810213040103232EA4FC232CB4FC8327C4FDCD
S32500102BA0638807008327C4FD83A78700639A07001307600123AEE1849307A0FE6F00400550
S32500102BC08327C4FD032784FD2324E4FE2326F4FE8327C4FE032784FE23A2E700832784FE75
S32500102BE003A707008327C4FE23A0E700832784FE83A707000327C4FE23A2E700832784FED7
S32500102C000327C4FE23A0E7001300000093070000138507000324C1021301010367800000D3
S32500102C20130101FD232611022324810213040103232EA4FC938541810325C4FDEF005048F0
S32500102C402326A4FE8327C4FE638607028327C4FE83A7C700638007028327C4FE83A7C7006F
S32500102C608325C4FD0325C4FEE7800700930705006F0080008327C4FE138507008320C1027E
S32500102C80032481021301010367800000130101FE232E1100232C8100130401022326A4FE2B
S32500102CA08327C4FE638207028327C4FE83A70701638C07008327C4FE83A707010325C4FE88
S32500102CC0E780070013000000130000008320C101032481011301010267800000130101FE2B
S32500102CE0232E1100232C8100130401022326A4FE938541810325C4FEEFF01FE9930705003D
S32500102D00138507008320C101032481011301010267800000130101FF2326810013040101FB
S32500102D200F100000130000000324C1001301010167800000130101FE232E1100232C810021
S32500102D4013040102930705002324B4FEA307F4FE9307F4FE13061000938507001305100013
S32500102D60EF00807693070500138507008320C101032481011301010267800000130101FDFC
S32500102D80232611022324810213040103232EA4FC03A701862326E4FE130700009307B4FE29
S32500102DA0130610009385070013050000EF00403D8347B4FE138707008326C4FE83A70186F8
S32500102DC0B3C7F6009306000063840700EF005066130507008320C1020324810213010103FA
S32500102DE067800000130101FD232611022324810213040103232EA4FC232CB4FC232AC4FC86
S32500102E002328D4FC032604FD832544FD032584FDEF0000212326A4FE8327C4FE63C8070824
S32500102E20B7978100938687400327C4FE9307070093971700B387E70093972700B387F6005D
S32500102E4003A707008327C4FD23A0E700B7978100938687400327C4FE930707009397170019
S32500102E60B387E70093972700B387F60003A747008327C4FD23A2E700B797810093868740E3
S32500102E800327C4FE9307070093971700B387E70093972700B387F60003A787008327C4FD10
S32500102EA023A4E7000325C4FEEF00803C130000008320C10203248102130101036780000097
S32500102EC0130101FE232E1100232C8100130401022326A4FE2324B4FE2322C4FE9306F01FEA
S32500102EE0130610008325C4FEB797810013854741EFF05FEF9306F01F13060000832584FE22
S32500102F00B797810013858740EFF0DFED9306F01F13061000832544FEB79781001385074257
S32500102F20EFF05FEC130000008320C101032481011301010267800000130101FD2326810254
S32500102F4013040103232EA4FC8327C4FD03A78700B70700403367F7008327C4FD23A4E7000B
S32500102F60232604FE6F008009B7978100938687400327C4FE9307070093971700B387E7005A
S32500102F8093972700B387F60003A707008327C4FD83A70700631EF704B79781009386874022
S32500102FA00327C4FE9307070093971700B387E70093972700B387F60083A7870063DA070294
S32500102FC00327C4FE9307070093971700B387E700939727003797810013078740B387E7004A
S32500102FE00327C4FD6306F700930730FF6F0040028327C4FE938717002326F4FE83A7018172
S32500103000138707008327C4FEE370F7F693070000138507000324C10213010103678000002B
S32500103020130101FC232E1102232C8102130401042326A4FC2324B4FC2322C4FC9307F0FFA9
S325001030402320F4FE9307D0FE2322F4FE232404FEB79781009385475A0325C4FCEF00500688
S32500103060232EA4FC8327C4FD639C07000325C4FCEF001017232EA4FC930710002324F4FE06
S325001030808327C4FD638C070A0325C4FDEF0010292320A4FE832704FE63D80700832704FE1F
S325001030A02322F4FE6F00000A032704FE9307070093971700B387E70093972700379781007B
S325001030C013078740B387E7002326F4FE032784FCB70700409387F7FF3377F7008327C4FED8
S325001030E023A4E700832784FE639C07000325C4FEEFF09FE42322A4FE832744FE63C4070489
S325001031008327C4FD83A7C700638407028327C4FD83A7C700832644FC032684FC8325C4FCF7
S325001031200325C4FEE7800700930705006F008000930700002322F4FE6F00C0009307D0FE2B
S325001031402322F4FE832744FE63D00702032504FEEF000012832744FE3307F04023AEE18443
S325001031609307F0FF6F008000832704FE138507008320C10303248103130101046780000064
S32500103180130101FD232611022324810213040103232EA4FC232CB4FC232AC4FC8327C4FD5E
S325001031A063C407020327C4FD9307070093971700B387E7009397270037978100130787405A
S325001031C0B387E7006F008000930700002324F4FE832784FE638E0706832784FE83A78700EF
S325001031E013F7370093071000630EF704832784FE83A7070083A7470163860704832784FE73
S3250010320083A7070083A74701032744FD13060700832584FD032584FEE78007002326A4FE3E
S325001032208327C4FE63DC07008327C4FE3307F04023AEE1849307F0FF6F0040028327C4FE14
S325001032406F00C0011307D00023AEE1846F00C0001307100523AEE1849307F0FF138507004C
S325001032608320C102032481021301010367800000130101FE232E8100130401022326A4FE3F
S325001032800327C4FE9307200063D6E704B7978100938687400327C4FE9307070093971700D1
S325001032A0B387E70093972700B387F60023A40700B7978100938687400327C4FE930707004C
S325001032C093971700B387E70093972700B387F60023A00700130000000324C1011301010218
S325001032E067800000130101FD2326810213040103232EA4FC93078000F3B707302326F4FEB1
S325001033008327C4FE2320F4FE8327C4FD2324F4FE832784FE83A70700032784FE03274700D8
S3250010332023A2E700832784FE83A74700032784FE0327070023A0E700832784FE032784FECF
S3250010334023A2E700832784FE032784FE23A0E70013000000832704FE2322F4FE832744FE47
S3250010336093F7870073A0073013000000130000000324C1021301010367800000130101FEBA
S32500103380232E1100232C8100232A210123283101130401029387C18183A707002322F4FE1B
S325001033A003A7C18483A7018513051000930500003306A700130806003338E800B386B70054
S325001033C0B307D80093860700130706009387060023A6E18423A8F1846F00400C832744FED0
S325001033E083A707002324F4FE832744FE03A6870083A6C70003A7C18483A701851385060004
S325001034009385070063E8A50813850600938507006318B500930606009307070063ECD70626
S32500103420832744FE83A70701032744FE0327470113050700E78007002326A4FE8327C4FE96
S3250010344063980700032544FEEFF0DFE96F008004832744FE03A7870083A7C7008326C4FED7
S3250010346013890600930900003306270193050600B3B5E500B3863701B387D500938607000C
S325001034801307060093870600832644FE23A4E60023A6F600832784FE2322F4FE032744FEB0
S325001034A09387C181E31CF7F213000000130000008320C10103248101032941018329010162
S325001034C01301010267800000130101FD232611022324810213040103232EA4FC232CB4FC95
S325001034E0232AC4FC8327C4FD63C407020327C4FD9307070093971700B387E70093972700CF
S325001035003797810013078740B387E7006F008000930700002324F4FE832784FE638C07065A
S32500103520832784FE83A7870093F73700638E0704832784FE83A7070083A7870163860704D8
S32500103540832784FE83A7070083A78701032744FD13060700832584FD032584FEE78007007A
S325001035602326A4FE8327C4FE63DC07008327C4FE3307F04023AEE1849307F0FF6F00400252
S325001035808327C4FE6F00C0011307D00023AEE1846F00C0001307100523AEE1849307F0FF3C
S325001035A0138507008320C102032481021301010367800000130101FF232681001304010150
S325001035C09307F0FF73B04730130000000324C1001301010167800000130101FF232611004C
S325001035E02324810013040101EF00400A130705009387050023AAE18423ACF184930700004D
S32500103600138507008320C100032481001301010167800000130101FF2326110023248100B6
S3250010362013040101EF008006130605009386050003A5418583A581853307A64013080700CC
S3250010364033380601B387B640B38607419387060013050700938507008320C10003248100C7
S325001036601301010167800000130101FF2326810013040101B7E7F5059387071013850700D8
S325001036800324C1001301010167800000130101FE232E81001304010237A381001303C300FC
S325001036A003230300232464FE37A381001303830003230300232664FE37A381001303C30026
S325001036C003230300032E84FEE3186EFC032384FE1308030093080000931708001307000066
S325001036E00328C4FE13060800930600003365C700B3E5D700130705009387050013050700E2
S32500103700938507000324C1011301010267800000130101FE232E8100130401022324A4FEA5
S325001037202326B4FEB7A68100938646001306F0FF23A0C600B7A68100032684FE23A0C60098
S325001037408326C4FE13D7060093070000B7A68100938646009307070023A0F60013000000B4
S325001037600324C1011301010267800000130101FE232E81001304010237A3810003230300C9
S32500103780232464FE37A381001303430003230300232664FE0323C4FE130803009308000041
S325001037A09317080013070000032884FE13060800930600003365C700B3E5D70013070500D3
S325001037C09387050013050700938507000324C1011301010267800000130101FC232E11021A
S325001037E0232C8102130401042326A4FC2324B4FC2322C4FCEFF09FE92324A4FE2326B4FE95
S32500103800032784FE8327C4FE378501001305056A930500003306A700130806003338E8004A
S32500103820B386B700B307D8009386070013070600938706001305070093850700EFF05FED27
S3250010384093078000F3B707302322F4FE832744FE232EF4FCEFF09FB28327C4FD2320F4FE23
S32500103860832704FE93F7870073A0073013000000130000008320C1030324810313010104DA
S3250010388067800000130101FF2326110023248100130401011305F0FF9305F0FFEFF05FE729
S325001038A09307000873A0473013000000130000008320C10003248100130101016780000097
S325001038C0130101FD2326810213040103232EA4FC232CB4FC232204FE232404FE9307803E01
S325001038E02326F4FE832784FD63960700930700006F00000E832784FD83A707002322F4FEA2
S325001039006F00000C232404FE6F008003832744FE03A78700832784FEB307F70003C7070010
S32500103920832784FE8326C4FDB387F60083C707006316F704832784FE938717002324F4FE50
S32500103940832784FE0327C4FDB307F70083C7070063880702832744FE03A78700832784FEFB
S32500103960B307F70083C70700638C0700032784FE8327C4FEE34CF7F86F0080001300000001
S32500103980832784FE0327C4FDB307F70083C7070063920702832744FE03A78700832784FEB1
S325001039A0B307F70083C7070063960700832744FE6F000002832744FE83A707002322F4FE3E
S325001039C0032744FE832784FDE31EF7F293070000138507000324C10213010103678000002E
S325001039E0130101FD2326810213040103232EA4FCB79781009387C75983A707002322F4FE56
S32500103A00232404FE9307803E2326F4FE6F00C00E232404FE6F00C00B832744FE03A78700D7
S32500103A20832784FEB307F70003C707009307F0026310F702832744FE03A78700832784FE81
S32500103A4093871700B307F70083C70700638E0700832744FE03A78700832784FEB307F7002B
S32500103A6083C70700639C0702832784FE0327C4FDB307F70003C707009307F002630CF7004C
S32500103A80832784FE0327C4FDB307F70083C7070063980704832744FE6F004007832744FE63
S32500103AA003A78700832784FEB307F70003C70700832784FE8326C4FDB387F60083C70700FA
S32500103AC06314F702832784FE938717002324F4FE032784FE8327C4FEE340F7F46F00000134
S32500103AE0130000006F00800013000000832744FE83A707002322F4FE032744FEB79781000C
S32500103B009387C759E316F7F093070000138507000324C1021301010367800000130101FD41
S32500103B202326810213040103232EA4FC930780FE2326F4FE232404FE6F000008B7978100B5
S32500103B4093868740032784FE9307070093971700B387E70093972700B387F60083A707000E
S32500103B6063960704B797810093868740032784FE9307070093971700B387E700939727007C
S32500103B80B387F6000327C4FD23A0E70083A70181032784FE63D6E700032784FE23A8E180FA
S32500103BA0832784FE2326F4FE6F000002832784FE938717002324F4FE032784FE9307F0014A
S32500103BC0E3DEE7F6130000008327C4FE138507000324C1021301010367800000130305000F
S32500103BE0630E060083830500230073001306F6FF1303130093851500E31606FE678000004F
S32500103C0083A701866394070293070000638A070093054000138501861703000067000000D7
S32500103C20B7070AFF23A0F1866780000067800000EF02801D3785810013054512EF00C003B3
S32500103C4013056000EF00C00E1305F007EF00C021EF02801B93070000130405006388070006
S32500103C609305000097000000E7000000EF00400713050400EF00401FEF020019B7878100AF
S32500103C8083A50715130101FF1304050083C745009304000093F72700639407029304F0FF3D
S32500103CA013850400130101016F00801A2326B100E78007008325C100635405009304F0FF20
S32500103CC0034504001304140083A78500E31005FE1305A000E7800700E35405FC6FF01FFCDA
S32500103CE0EF028012B7478100374481001387C7F41304C4F43304E440135424409384C7F494
S32500103D00631C0400930700006386070097000000E70000006F00C0131304F4FF93172400E8
S32500103D20B387F40083A70700E78007006FF05FFD9307F00163FAA7001307600123AEE184A5
S32500103D401305F0FF67800000EF02000C1317250093070200B387E70003A70700130101FF91
S32500103D60631E07002326A100EF0000148325C100EF008015130101016F00800D9306100010
S32500103D806302D7029306F0FF631AD7001307600123AEE184130510006FF0DFFD23A0070015
S32500103DA0E7000700130500006FF0DFFC130101FC130300002326B1016F00C000130101FC4B
S32500103DC0130300FF2328A101232A9101232C8101232E71016F00C000130101FC130300FE04
S32500103DE02320610323225103232441032326310323282103232A9102232C8102232E1102E0
S32500103E003301614067800200130101FF232021012322910023248100232611006780020074
S32500103E20832DC10013010101032D0100832C4100032C8100832BC10013010101032B010060
S32500103E40832A4100032A81008329C100130101010329010083244100032481008320C1000C
S32500103E601301010167800000130101FD2326810213040103232EA4FC130000008327C4FDC7
S32500103E802326F4FE0325C4FE93070500638607001330107C6F0080001330207C13000000A8
S32500103EA0130000006FF0DFFF130101FF232681001304010193070000138507000324C10084
S32500103EC01301010167800000130101FD232611022324810213040103232EA4FC232CB4FC8C
S32500103EE0232604FE8327C4FD634EF006832784FD63840708832784FD63C00706032784FD28
S32500103F009307F00163CAE704032784FD930730006344F704832784FD13071000B317F700BB
S32500103F20370781CF130787F733F7E7003337E0001377F70F631E070037071100B3F7E700F2
S32500103F40B337F00093F7F70F639C07026F00C00013050000EFF05FF1930760012326F4FE2D
S32500103F606F0040028327C4FD635EF000930730002326F4FE6F000001130000006F008000E7
S32500103F80130000008327C4FE638A07000327C4FE23AEE1849307F0FF6F0080009307000064
S32500103FA0138507008320C102032481021301010367800000943B81001000000000000000DD
S32500103FC0037A5200017C05011B0D02004800000018000000D8FDFFFF5C00000000440E402E
S32500103FE0489B0D44DB440E40489A0C44990B44980A44970944D7D8D9DADB440E4048960871
S325001040004495074494064493054492044489034488024481010000001C0000006400000032
S32500104020E8FDFFFF1800000000440E104889044488024481010000002C0000000000000078
S32500104040037A5200017C01011B0D020E409B0D9A0C990B980A970996089507940693059252
S3250010406004890388028101004400000034000000B0FDFFFF480000000044DB44DB0E304463
S32500104080DA44D944D844D744D7D8D9DADB0E2044D644D544D444D344D3D4D5D6D8D9DADBCF
S325001040A00E1044D244C944C844C1440E00000000C0150000008081000A48656C6C6F2066EC
S325001040C0726F6D204E494F532D56206F6E204445302D4E414E4F3A20626F6F74696E672005
S325001040E066726F6D204550435320616E642072756E6E696E672066726F6D20696E74657221
S325001041006E616C2054434D454D210000496E746572727570742064657465637465642C201C
S325001041204B657931207761732070726573736564210000002F6465762F4A5441475F5541B5
S3250010414052545F434F4D00002F6465762F4A5441475F554152545F434F4D00002F6465765B
S325001041602F53455249414C5F554152545F434F4D000000002F6465762F455043535F464CA8
S325001041804153485F434F4E54524F4C4C45525F50524F475F61766C5F6D656D00EC24810062
S325001041A0F824810004258100102581001C2581004425810044258100442581004425810082
S325001041C0442581004425810028258100342581002F6465762F6E756C6C0000002A2A2A2057
S325001041E0737461636B20736D617368696E67206465746563746564202A2A2A3A2074657274
S325001042006D696E6174656400889581008895810088958100000000000000000000000000CC
S32500104220000000000000000000000000000000000000000000000000000000000000000068
S32500104240000000000000000000000000000000000000000000000000000000000000000048
S32500104260000000000000000000000000000000000000000000000000000000000000000028
S32500104280000000000000000000000000000000000000000000000000000000000000000008
S325001042A09080810000000000DC09810014098100780981000000000000000000300A810096
S325001042C0D8A081000A000000000000000000000000000000000000000000000000000000C5
S325001042E00000000000000000000000000000000000000000000000000000000000000000A8
S32500104300000000000000000000000000000000000000000000000000000000000000000087
S32500104320000000000000000000000000000000000000000000000000000000000000000067
S32500104340000000000000000000000000000000000000000000000000000000000000000047
S32500105300A480810000000000D0148100081481006C148100000000000000000000000000CF
S3250010532060A0810000000000000000000000000000000000000000000100000000000000D5
S32500105340000000000000000000000000000000000000000000000000000000000000000037
S32500105360000000000000000000000000000000000000000000000000000000000000000017
S325001053800000000000000000000000000000000000000000000000000000000000000000F7
S325001053A00000000000000000000000000000000000000000000000000000000000000000D7
S325001053C000000000BC8081000000000000000000CC218100A0238100B81D8100441E81000F
S325001053E0701F81000000000000008000000000000000000000000000000000000000000007
S32500105400000000000000000000000000000000000000000000000000000000000000000076
S32500105420000000000000000000000000000000000000000000000000000000000000000056
S32500105440000000000000000000000000000000000000000000000000000000000000000036
S3250010546000000000000000000000000000000000981C8100000000000000800080A08100C0
S32500105480000080000100000080000000000001000001000000000000A4958100A49581007F
S325001054A018818100000000000000000000000000B42A81000000000000000000000000005D
S325001054C0E09381000000000000000000E09381000000000000000000E093810000000000DA
S325001054E0000000000000000000000000000000000000000000000000000000000000000096
S32500105500000000000000000000000000000000000000000000000000000000000000000075
S32500105520000000000000000000000000000000000000000000000000000000000000000055
S32500105540000000000000000000000000000000000000000000000000000000000000000035
S32500105560000000000000000000000000000000000000000000000000000000000000000015
S325001055800000000000000000000000000000000000000000000000000000000000000000F5
S325001055A00000000000000000000000000000000000000000000000000000000000000000D5
S325001055C00000000000000000000000000000000000000000000000000000000000000000B5
S325001055E0000000000000000000000000000000000000000000000000000000000000000095
S32500105600000000000000000000000000000000000000000000000000000000000000000074
S32500105620000000000000000000000000000000000000000000000000000000000000000054
S325001056400000000003000000C82C8100102D8100000000009C9581009C958100E0938100A6
S32500105660E0938100FFFFFFFFB0958100B0958100B8958100B8958100000000005004810027
S70500000000FA