:020000040010EA
:100000009302F0FF73B00230170500001305C5041A
:10001000832505009302F0FF638CB20213054500AF
:1000200003260500639405006700060013054500DC
:10003000930605003305B50083A206002320560071
:100040009386460013064600E398A6FE6FF05FFC19
:100050006F0000000893020000000000130101FC83
:100060002320110023225100232461002326710044
:100070002328A100232AB100232CC100232ED10064
:100080002320E1022322F10223240103232611036A
:100090002328C103232AD103232CE103232EF103B8
:1000A00073252034F325103473263034EF00C01349
:1000B0007310153483200100832241000323810043
:1000C0008323C1000325010183254101032681010A
:1000D0008326C101032701028327410203288102ED
:1000E0008328C102032E0103832E4103032F8103C2
:1000F000832FC1031301010473002030130101FD9C
:10010000232611022324810213040103130000009B
:10011000F32740342320F4FEF32740302322F4FE5B
:10012000032704FE832744FEB377F70093D7070124
:10013000232AF4FC232E04FC93071000232CF4FC48
:10014000032744FD832784FDB377F700638E0704FC
:10015000138781A58327C4FD93973700B307F70062
:1001600003A70700938681A58327C4FD93973700D3
:10017000B387F60083A7470013850700E700070051
:1001800013000000F32740342324F4FEF32740300B
:100190002326F4FE032784FE8327C4FEB377F700EB
:1001A00093D707016F000002832784FD9397170000
:1001B000232CF4FC8327C4FD93871700232EF4FC23
:1001C0006FF01FF8232AF4FC832744FDE39407F61D
:1001D00013000000130000008320C10203248102E9
:1001E0001301010367800000130101FD23261102A2
:1001F0002324810213040103232EA4FC232CB4FC2A
:10020000232AC4FC0327C4FDB7070080B377F70097
:100210002324F4FE0327C4FDB707008093C7F7FF2C
:10022000B377F7002326F4FE832784FE638807084C
:100230000327C4FE930730006300F7040327C4FEBE
:10024000930770006312F706B797020083A7473140
:10025000638A070613000000B797020083A747319F
:10026000032644FD832584FD0325C4FDE7800700A4
:10027000130000006F000005B797020083A7073145
:100280006386070413000000B797020083A70731B5
:10029000032644FD832584FD0325C4FDE780070074
:1002A000130000006F0080020327C4FE9307F000D4
:1002B00063F2E702EFF09FE46F00C00173001000EB
:1002C0006F008001130000006F00000113000000A8
:1002D0006F00800013000000832784FD1385070052
:1002E0008320C102032481021301010367800000FF
:1002F00000000000000000000000000000000000FE
:1003000000000000000000000000000000000000ED
:1003100000000000000000000000000000000000DD
:1003200000000000000000000000000000000000CD
:1003300000000000000000000000000000000000BD
:1003400000000000000000000000000000000000AD
:10035000000000000000000000000000130101FC8C
:10036000232E1102232C8102130401042326A4FC52
:100370008327C4FC232EF4FCB70781029387C70BA5
:1003800083A707002320F4FE832704FE13870700BA
:100390008327C4FD23A0E7008327C4FD83A70700AC
:1003A00063820702B797020083A7C7391385070046
:1003B000EF10805D2322A4FE832744FE63840700A0
:1003C000EF20C073930710002324F4FEB7078102C7
:1003D0009387C70B032784FE23A0E700B70781029A
:1003E0009387C70B83A707002326F4FE13000000A2
:1003F0008320C103032481031301010467800000EB
:10040000130101FE232E1100232C8100130401028D
:10041000B7970200938787302322F4FE93071000DA
:100420002324F4FEB70781029387870B032784FEFA
:1004300023A0E700930710002326F4FEB7078102EC
:100440009387C70B0327C4FE23A0E7001307000010
:10045000832644FE130600309305000013050000B8
:10046000EF60C01F130000008320C101032481013D
:100470001301010267800000130101FE232E110009
:10048000232C81001304010213050000EF10C00AA1
:10049000B70781029387070483A707002322F4FE8E
:1004A000832744FE93F70701638007029307000147
:1004B0002326F4FEB7078102938747050327C4FE6E
:1004C00023A0E7006FF05FFC930700012324F4FEF4
:1004D000B707810293870705032784FE23A0E7005F
:1004E0006FF09FFA130101FF2326110023248100DE
:1004F00013040101B767020013850746EFF0803B44
:10050000B76702001385074AEFF0C03AEFF05FEFDC
:100510009307000013072000930600001306002035
:10052000B76502009385855013054053EF00001F07
:100530009307000013072000930600001306002015
:10054000B7650200938505511305405AEF00001D61
:10055000B79702009387C73913072000930600005E
:1005600013060020B7650200938585511305C0412D
:10057000EF00C01AEF10005D93070000138507001D
:100580008320C10003248100130101016780000062
:10059000130101FD23261102232481021304010308
:1005A000232EA4FCB797020083A7073A938617006F
:1005B000379702002320D73A93F71700638007028A
:1005C000930710002326F4FEB707810293870705DF
:1005D0000327C4FE23A0E7006F00C00193071000AB
:1005E0002324F4FEB707810293874705032784FE7F
:1005F00023A0E7001305803EEF00D0196FF09FFAAB
:10060000130101FD23261102232481021304010397
:10061000232EA4FCB797020083A7473A93861700BE
:10062000379702002322D73A93F717006380070217
:10063000930700082326F4FEB70781029387070576
:100640000327C4FE23A0E7006F00C0019307000842
:100650002324F4FEB707810293874705032784FE0E
:1006600023A0E700B717000013858738EF0090122A
:100670006FF05FFA970200009382829E739052306F
:100680009302800873B0023073104030731040340E
:100690009791020093810148170100021301419CC8
:1006A00017930200130343CC97D303009383C384AF
:1006B0002320030013034300E36C73FE177302004F
:1006C000130303EF97730200938383EE6378730041
:1006D0002320030013034300E36C73FE97720200B0
:1006E000938202ED17730200130383EC97730200E9
:1006F000938303EC63FC620083A4020023A09300B5
:100700009382420093834300E3E862FE1772020083
:10071000130202EAEF6000116F000000130101FCF8
:10072000232E1102232C810213040104232EA4FC86
:10073000232CB4FC2328D4FC2326E4FC2324F4FC3F
:1007400093070600231BF4FC835764FD939727004F
:1007500013850700EF9080512326A4FE8327C4FE53
:100760006382070413058058EF9040502322A4FEB3
:10077000832744FE63820702130680589305000016
:10078000032544FEEFE09069832744FE0327C4FE5F
:1007900023A8E7026F0040010325C4FEEF9080709C
:1007A0006F008000232204FE832744FE638E07022D
:1007B000035664FD93080000032844FE832784FC4D
:1007C0000327C4FC832604FD832584FD0325C4FD83
:1007D000EF008003032544FEEF00402E9307100036
:1007E0002324F4FE6F00C0009307F0FF2324F4FEDF
:1007F000832784FE138507008320C103032481031C
:100800001301010467800000130101FC232E110273
:10081000232C810213040104232EA4FC232CB4FCFA
:10082000232AC4FC2328D4FC2326E4FC2324F4FC40
:10083000232204FD232014FD832744FC03A7070380
:10084000832744FD93972700138607009305500ADA
:1008500013050700EFE0905C832744FC03A7070320
:10086000832644FDB70700409387F7FFB387F60060
:1008700093972700B307F7002326F4FE8327C4FECF
:1008800093F707FF2326F4FE8327C4FE93F7F700B0
:10089000638A0700737004307300100013000000B7
:1008A0006FF0DFFF832784FD63840706232404FEA3
:1008B0006F004004032784FD832784FEB307F700FD
:1008C00003C70700832644FC832784FEB387F60012
:1008D000238AE702032784FD832784FEB307F700FA
:1008E00083C7070063800702832784FE938717006E
:1008F0002324F4FE032784FE9307F000E3FCE7FAC9
:100900006F00800013000000832744FCA3810704CC
:100910000327C4FC9307600063FAE7007370043098
:1009200073001000130000006FF0DFFF0327C4FC0A
:100930009307600063F6E700930760002326F4FC4A
:10094000832744FC0327C4FC23A6E702832744FC37
:100950000327C4FC23A6E704832744FC93874700AE
:1009600013850700EFA0405E832744FC938787012F
:1009700013850700EFA0405D832744FC032744FC58
:1009800023A8E700130770008327C4FC3307F74050
:10099000832744FC23ACE700832744FC032744FC63
:1009A00023A2E702832744FC93878705138507006A
:1009B000EF505076832744FC9387871513068042B7
:1009C0009305000013850700EFE05045832744FCA2
:1009D00013874744832744FC23AEE714832744FC52
:1009E0001387C74A832744FC23A0E716832744FCC8
:1009F00013874751832744FC23A2E716832644FC30
:100A0000130710009307000023A0E62023A2F6207E
:100A1000832744FC373700001307E7302394E7208F
:100A2000832744FC37B7FFFF1307D7BC2395E72084
:100A3000832744FC37170000130747232396E7203A
:100A4000832744FC37E7FFFF1307D7662397E72088
:100A5000832744FC37E7FFFF1307C7EE2398E720FF
:100A6000832744FC130750002399E720832744FC85
:100A70001307B000239AE720032604FD8325C4FD55
:100A80000325C4FEEFA0100D13070500832744FCC7
:100A900023A0E700832784FC63880700832784FC66
:100AA000032744FC23A0E700130000008320C103B8
:100AB000032481031301010467800000130101FD79
:100AC000232611022324810213040103232EA4FCF4
:100AD00073700430B797020083A7472C1387170061
:100AE000B797020023A2E72C83A7019F1387170063
:100AF00023A8E19EB797020083A7C730639207023D
:100B0000B79702000327C4FD23A6E73003A7019F80
:100B100093071000631CF702EF20503F6F000003A3
:100B200083A7C19F63940702B797020083A7C730CA
:100B300003A7C7028327C4FD83A7C70263E8E700B2
:100B4000B79702000327C4FD23A6E73083A7C1A0FF
:100B50001387170023A6E1A003A7C1A08327C4FD24
:100B600023A2E7048327C4FD83A7C702130710004D
:100B70003317F70083A7819F3367F70023ACE19E0B
:100B80008327C4FD03A7C702B79702009386873A5D
:100B90009307070093972700B387E70093972700F1
:100BA000B387F60083A747002326F4FE8327C4FDFE
:100BB0000327C4FE23A4E7008327C4FE03A78700FE
:100BC0008327C4FD23A6E7008327C4FE83A78700ED
:100BD0000327C4FD1307470023A2E7008327C4FDB2
:100BE000138747008327C4FE23A4E7008327C4FD9F
:100BF00003A7C7029307070093972700B387E7006F
:100C000093972700379702001307873A3387E70047
:100C10008327C4FD23AAE7008327C4FD03A7C702D7
:100C2000B79702009386873A9307070093972700A8
:100C3000B387E70093972700B387F60083A70700E1
:100C400093861700B79702001386873A9307070029
:100C500093972700B387E70093972700B307F60021
:100C600023A0D700B797020083A7472C1387F7FF6D
:100C7000B797020023A2E72CB797020083A7472C5F
:100C8000639407007360043083A7C19F63800702E9
:100C9000B797020083A7C73003A7C7028327C4FD05
:100CA00083A7C7026374F7007300000013000000FD
:100CB0008320C10203248102130101036780000025
:100CC000130101FD232611022324810213040103D1
:100CD000232EA4FC73700430B797020083A7472C1F
:100CE00013871700B797020023A2E72C8327C4FDC0
:100CF00063980700B797020083A7C7306F00800092
:100D00008327C4FD2326F4FE8327C4FE9387470070
:100D100013850700EFA0803B930705006398070445
:100D20008327C4FE03A7C702B79702009386873ABA
:100D30009307070093972700B387E700939727004F
:100D4000B387F60083A70700639207028327C4FED8
:100D500083A7C70213071000B317F70013C7F7FFE5
:100D600083A7819F3377F70023ACE19E8327C4FEDE
:100D700083A78702638A07008327C4FE93878701BE
:100D800013850700EFA0803483A7C1A01387170045
:100D900023A6E1A0B797020083A7C7300327C4FEAC
:100DA0006314F7028327C4FE9387470093850700E7
:100DB0001385419CEFA0C01B83A7819D138717005B
:100DC00023ACE19C6F00400183A7019F1387F7FFCD
:100DD00023A8E19EEF20105EB797020083A7472C5F
:100DE0001387F7FFB797020023A2E72CB7970200FB
:100DF00083A7472C6394070073600430B797020001
:100E000083A7C7300327C4FE6306F7000325C4FE8B
:100E1000EF20105583A7C19F63880702B797020090
:100E200083A7C7300327C4FE6310F70283A781A1FD
:100E3000638A070073700430730010001300000011
:100E40006FF0DFFF73000000130000008320C10279
:100E5000032481021301010367800000130101FDD7
:100E6000232611022324810213040103232EA4FC50
:100E7000232CB4FC232004FE8327C4FD639A0700BF
:100E80007370043073001000130000006FF0DFFF78
:100E9000832784FD639A0700737004307300100089
:100EA000130000006FF0DFFF83A781A1638A0700B2
:100EB0007370043073001000130000006FF0DFFF48
:100EC000EF00D05883A7419F2322F4FE8327C4FD5F
:100ED00083A70700032784FDB307F7002324F4FE4C
:100EE0008327C4FD83A70700032744FE6376F70228
:100EF0008327C4FD83A70700032784FE6370F704DC
:100F0000032784FE832744FE63FAE7029307100059
:100F10002320F4FE6F0080028327C4FD83A707000F
:100F2000032784FE6368F700032784FE832744FEBB
:100F300063F6E700930710002320F4FE8327C4FD27
:100F4000032784FE23A0E700832704FE638E0700A7
:100F5000032784FE832744FEB307F7409305000070
:100F600013850700EF40804AEF00D0502326A4FEEF
:100F70008327C4FE6394070073000000832704FEE8
:100F8000138507008320C10203248102130101039A
:100F900067800000130101FD232611022324810232
:100FA00013040103232EA4FC232604FE8327C4FD7F
:100FB000638A070283A781A1638A070073700430E4
:100FC00073001000130000006FF0DFFFEF00104807
:100FD000930500000325C4FDEF404043EF00904916
:100FE0002326A4FE8327C4FE639407007300000039
:100FF000130000008320C1020324810213010103B6
:1010000067800000130101FC232E810213040104F8
:101010002326A4FC8327C4FC2320F4FE832704FE9C
:10102000639A07007370043073001000130000000F
:101030006FF0DFFFB797020083A7C730032704FED6
:101040006316F700232C04FC6F00C011737004308A
:10105000B797020083A7472C13871700B7970200A2
:1010600023A2E72C832704FE83A747012322F4FE53
:1010700083A7819A2324F4FE83A7C19A2326F4FE32
:10108000B797020083A7472C1387F7FFB797020093
:1010900023A2E72CB797020083A7472C639407008D
:1010A00073600430032744FE832784FE6308F7003F
:1010B000032744FE8327C4FE6318F700930720002C
:1010C000232CF4FC6F00000A032744FE9387C19D84
:1010D0006316F706832704FE83A78702639A070433
:1010E00093073000232CF4FC232E04FC6F008003B4
:1010F000032704FE8327C4FDB307F70083C74758BF
:1011000013F7F70F930710006318F70093072000F9
:10111000232CF4FC6F0000058327C4FD9387170080
:10112000232EF4FC8327C4FDE354F0FC6F008003FE
:1011300093072000232CF4FC6F00C002032744FE19
:101140009387419C6306F700832744FE639807005A
:1011500093074000232CF4FC6F00C000930710009D
:10116000232CF4FC832784FD138507000324C1038B
:101170001301010467800000130101FD2326810291
:1011800013040103232EA4FC73700430B7970200EC
:1011900083A7472C13871700B797020023A2E72CD9
:1011A0008327C4FD63980700B797020083A7C73061
:1011B0006F0080008327C4FD2324F4FE832784FE70
:1011C00083A7C7022326F4FEB797020083A7472C04
:1011D0001387F7FFB797020023A2E72CB797020007
:1011E00083A7472C63940700736004308327C4FEF1
:1011F000138507000324C102130101036780000067
:10120000130101FD2326810213040103232EA4FCF4
:10121000232204FE8327C4FD63980700B7970200CA
:1012200083A7C7306F0080008327C4FD2324F4FE0A
:10123000832784FE83A7C7022326F4FE8327C4FEE8
:10124000138507000324C102130101036780000016
:10125000130101FC232E1102232C8102130401042B
:101260002326A4FC2324B4FC232E04FC032784FCA3
:101270009307600063FAE700737004307300100096
:10128000130000006FF0DFFF032784FC930760006A
:1012900063F6E700930760002324F4FC73700430C6
:1012A000B797020083A7472C13871700B797020050
:1012B00023A2E72C8327C4FC63980700B79702009A
:1012C00083A7C7306F0080008327C4FC2320F4FE6F
:1012D000832704FE83A7C7042322F4FE032744FECA
:1012E000832784FC630EF720032784FC832744FEB6
:1012F00063FAE702B797020083A7C730032704FE0B
:10130000630EF702B797020083A7C73083A7C7020F
:10131000032784FC6364F70293071000232EF4FC78
:101320006F00C001B797020083A7C730032704FEF0
:101330006316F70093071000232EF4FC832704FEA6
:1013400083A7C7022324F4FE832704FE03A7C70450
:10135000832704FE83A7C7026318F700832704FED0
:10136000032784FC23A6E702832704FE032784FCCB
:1013700023A6E704832704FE83A7870163CC070025
:1013800013077000832784FC3307F740832704FE8C
:1013900023ACE700832704FE83A64701032784FECE
:1013A0009307070093972700B387E70093972700D9
:1013B000379702001307873AB387E700639CF6125A
:1013C000832704FE9387470013850700EF90105092
:1013D0009307050063900702832784FE130710001C
:1013E000B317F70013C7F7FF83A7819F3377F70081
:1013F00023ACE19E832704FE83A7C70213071000D6
:101400003317F70083A7819F3367F70023ACE19E72
:10141000832704FE03A7C702B79702009386873A83
:101420009307070093972700B387E7009397270058
:10143000B387F60083A747002326F4FE832704FE24
:101440000327C4FE23A4E7008327C4FE03A7870065
:10145000832704FE23A6E7008327C4FE83A7870013
:10146000032704FE1307470023A2E700832704FE97
:10147000138747008327C4FE23A4E700832704FEC5
:1014800003A7C7029307070093972700B387E700D6
:1014900093972700379702001307873A3387E700AF
:1014A000832704FE23AAE700832704FE03A7C702BD
:1014B000B79702009386873A930707009397270010
:1014C000B387E70093972700B387F60083A7070049
:1014D00093861700B79702001386873A9307070091
:1014E00093972700B387E70093972700B307F60089
:1014F00023A0D7008327C4FD638407007300000086
:10150000B797020083A7472C1387F7FFB79702000E
:1015100023A2E72CB797020083A7472C6394070008
:1015200073600430130000008320C103032481038F
:101530001301010467800000130101FD232611023D
:101540002324810213040103232EA4FC73700430AE
:10155000B797020083A7472C13871700B79702009D
:1015600023A2E72C8327C4FD63980700B7970200E6
:1015700083A7C7306F0080008327C4FD2326F4FEB5
:101580008327C4FE9387470013850700EF9010342C
:1015900093070500639807048327C4FE03A7C702C7
:1015A000B79702009386873A93070700939727001F
:1015B000B387E70093972700B387F60083A7070058
:1015C000639207028327C4FE83A7C7021307100094
:1015D000B317F70013C7F7FF83A7819F3377F7008F
:1015E00023ACE19E8327C4FE83A78702638A07009A
:1015F0008327C4FE9387870113850700EF90102D82
:101600008327C4FE93874700938507001385C19DF8
:10161000EF901016232404FE6F00C0030327C4FEBE
:10162000832784FEB307F70083C7475813F7F70FE4
:1016300093071000631AF7000327C4FE832784FE74
:10164000B307F70023820758832784FE9387170088
:101650002324F4FE832784FEE352F0FCB7970200B4
:1016600083A7472C1387F7FFB797020023A2E72C25
:10167000B797020083A7472C639407007360043078
:1016800083A7C19F6382070473700430B797020079
:1016900083A7472C13871700B797020023A2E72CD4
:1016A000EF204051B797020083A7472C1387F7FF1D
:1016B000B797020023A2E72CB797020083A7472C15
:1016C0006394070073600430B797020083A7C730A4
:1016D0000327C4FE6316F70483A7C19F6382070232
:1016E00083A781A1638A0700737004307300100020
:1016F000130000006FF0DFFF730000006F00400276
:101700009387C19D03A7070083A7019F6318F70074
:10171000B797020023A607306F008000EF10003E4D
:10172000130000008320C10203248102130101037E
:1017300067800000130101FD2326810213040103C9
:10174000232EA4FC232404FE8327C4FD2326F4FEB9
:101750008327C4FD639A0700737004307300100080
:10176000130000006FF0DFFF8327C4FE03A74701CB
:101770009387C19D6314F7028327C4FE03A78702E2
:101780009387019B630CF7008327C4FE83A787021E
:1017900063960700930710002324F4FE832784FE3A
:1017A000138507000324C1021301010367800000B1
:1017B000130101FD232611022324810213040103D6
:1017C000232EA4FC8327C4FD2324F4FE8327C4FD19
:1017D000639A070073700430730010001300000058
:1017E0006FF0DFFFB797020083A7C730032784FE9F
:1017F0006302F718832784FE638E07167370043024
:10180000B797020083A7472C13871700B7970200EA
:1018100023A2E72C032584FEEFF0DFF193070500F8
:1018200063880712832784FE938747001385070088
:10183000EF90D009832784FE83A7C7021307100007
:101840003317F70083A7819F3367F70023ACE19E2E
:10185000832784FE03A7C702B79702009386873ABF
:101860009307070093972700B387E7009397270014
:10187000B387F60083A747002326F4FE832784FE60
:101880000327C4FE23A4E7008327C4FE03A7870021
:10189000832784FE23A6E7008327C4FE83A787004F
:1018A000032784FE1307470023A2E700832784FE53
:1018B000138747008327C4FE23A4E700832784FE01
:1018C00003A7C7029307070093972700B387E70092
:1018D00093972700379702001307873A3387E7006B
:1018E000832784FE23AAE700832784FE03A7C70279
:1018F000B79702009386873A9307070093972700CC
:10190000B387E70093972700B387F60083A7070004
:1019100093861700B79702001386873A930707004C
:1019200093972700B387E70093972700B307F60044
:1019300023A0D700832784FE03A7C702B79702001E
:1019400083A7C73083A7C7026364F7007300000052
:10195000B797020083A7472C1387F7FFB7970200BA
:1019600023A2E72CB797020083A7472C63940700B4
:1019700073600430130000008320C102032481023D
:101980001301010367800000130101FD23261102EA
:101990002324810213040103232EA4FC232004FE2C
:1019A0008327C4FD2322F4FE8327C4FD639A070026
:1019B0007370043073001000130000006FF0DFFF3D
:1019C000232404FE032544FEEFF0DFD69307050031
:1019D000638E071483A781A163900714832744FEB5
:1019E00003A7C702B797020083A7C73083A7C70220
:1019F000636AF700930710002320F4FE130710001A
:101A000023A2E1A0832744FE9387470013850700A4
:101A1000EF90C06B832744FE83A7C7021307100013
:101A20003317F70083A7819F3367F70023ACE19E4C
:101A3000832744FE03A7C702B79702009386873A1D
:101A40009307070093972700B387E7009397270032
:101A5000B387F60083A747002326F4FE832744FEBE
:101A60000327C4FE23A4E7008327C4FE03A787003F
:101A7000832744FE23A6E7008327C4FE83A78700AD
:101A8000032744FE1307470023A2E700832744FEF1
:101A9000138747008327C4FE23A4E700832744FE5F
:101AA00003A7C7029307070093972700B387E700B0
:101AB00093972700379702001307873A3387E70089
:101AC000832744FE23AAE700832744FE03A7C70217
:101AD000B79702009386873A9307070093972700EA
:101AE000B387E70093972700B387F60083A7070023
:101AF00093861700B79702001386873A930707006B
:101B000093972700B387E70093972700B307F60062
:101B100023A0D7006F008001832744FE93878701AD
:101B2000938507001385019BEF908044832704FE73
:101B3000138507008320C1020324810213010103DE
:101B400067800000130101FE232E1100232C810069
:101B500013040102938741A11307000093060000BC
:101B60001306C012B76502009385C55237350000D1
:101B700013054569EFE09FBA2326A4FE0327C4FEA0
:101B8000930710006316F700EF30D0212326A4FE40
:101B90000327C4FE930710006316F7047370043024
:101BA000B797020083A7C73093878705138507007F
:101BB000EF40505EB797020083A7C73013878715A1
:101BC000B797020023AAE72E1307F0FF23A8E1A08E
:101BD0001307100023AEE19E23AA019EEF908070B0
:101BE0006F0000020327C4FE9307F0FF631AF7009B
:101BF0007370043073001000130000006FF0DFFFFB
:101C0000B797020083A7472B130000008320C10170
:101C1000032481011301010267800000130101FF09
:101C20002326110023248100130401017370043062
:101C300023AE019EEF90C070130000008320C1000E
:101C4000032481001301010167800000130101FFDB
:101C5000232681001304010183A781A113871700A4
:101C600023ACE1A0130000000324C1001301010113
:101C700067800000130101FD232611022324810245
:101C800013040103232C04FC232E04FC83A781A14D
:101C9000639A070073700430730010001300000093
:101CA0006FF0DFFF73700430B797020083A7472CF3
:101CB00013871700B797020023A2E72C83A781A1FF
:101CC0001387F7FF23ACE1A083A781A163980728BE
:101CD00083A7019F638407286F00C0219387019B1E
:101CE00083A7C70083A7C700232CF4FC832784FDA8
:101CF00083A787022322F4FE832784FD83A7C701DD
:101D0000032784FD0327070223A4E700832784FD1C
:101D100083A70702032784FD0327C70123A2E70047
:101D2000832744FE03A74700832784FD9387870109
:101D3000631AF700832784FD03A70702832744FE65
:101D400023A2E700832784FD23A40702832744FE00
:101D500083A707001387F7FF832744FE23A0E7002C
:101D6000832784FD83A747012324F4FE832784FD72
:101D700083A78700032784FD0327C70023A4E70068
:101D8000832784FD83A7C700032784FD03278700DB
:101D900023A2E700832784FE03A74700832784FD4F
:101DA00093874700631AF700832784FD03A7C700C2
:101DB000832784FE23A2E700832784FD23AA07004C
:101DC000832784FE83A707001387F7FF832784FEFA
:101DD00023A0E700832784FD83A7C7021307100011
:101DE0003317F70083A7819F3367F70023ACE19E89
:101DF000832784FD03A7C702B79702009386873A1B
:101E00009307070093972700B387E700939727006E
:101E1000B387F60083A747002326F4FE832784FDBB
:101E20000327C4FE23A4E7008327C4FE03A787007B
:101E3000832784FD23A6E7008327C4FE83A78700AA
:101E4000032784FD1307470023A2E700832784FDAF
:101E5000138747008327C4FE23A4E700832784FD5C
:101E600003A7C7029307070093972700B387E700EC
:101E700093972700379702001307873A3387E700C5
:101E8000832784FD23AAE700832784FD03A7C702D5
:101E9000B79702009386873A930707009397270026
:101EA000B387E70093972700B387F60083A707005F
:101EB00093861700B79702001386873A93070700A7
:101EC00093972700B387E70093972700B307F6009F
:101ED00023A0D700832784FD03A7C702B79702007A
:101EE00083A7C73083A7C7026366F70013071000F4
:101EF00023A2E1A09387019B83A70700E39007DE5D
:101F0000832784FD63840700EF10D04A83A701A0D4
:101F10002320F4FE832704FE63880702EF001007E6
:101F200093070500638607001307100023A2E1A0B2
:101F3000832704FE9387F7FF2320F4FE832704FE04
:101F4000E39E07FC23A001A083A741A063880700AC
:101F500093071000232EF4FC73000000B7970200D3
:101F600083A7472C1387F7FFB797020023A2E72C1C
:101F7000B797020083A7472C63940700736004306F
:101F80008327C4FD138507008320C1020324810237
:101F90001301010367800000130101FE232E81005D
:101FA0001304010283A7419F2326F4FE8327C4FE66
:101FB000138507000324C10113010102678000009B
:101FC000130101FE232E810013040102232404FEC9
:101FD00083A7419F2326F4FE8327C4FE13850700B1
:101FE0000324C1011301010267800000130101FFF6
:101FF000232681001304010183A7019F1385070095
:102000000324C1001301010167800000130101FDD9
:102010002326810213040103232EA4FC8327C4FD7D
:1020200063980700B797020083A7C7306F0080004E
:102030008327C4FD2326F4FE8327C4FE639A07008A
:102040007370043073001000130000006FF0DFFFA6
:102050008327C4FE93874703138507000324C10227
:102060001301010367800000130101FC232E81028C
:10207000130401042326A4FC2324B4FC232A04FC17
:102080008327C4FC83A70700638607148327C4FC47
:102090002320F4FE832704FE83A7470003A74700FD
:1020A000832704FE23A2E700832704FE03A747003B
:1020B000832704FE93878700631CF700832704FEB1
:1020C00083A7470003A74700832704FE23A2E70056
:1020D000832704FE83A7470083A7C7002322F4FEBB
:1020E0008327C4FC2324F4FE832784FE83A74700B0
:1020F00003A74700832784FE23A2E700832784FEEB
:1021000003A74700832784FE93878700631CF7009B
:10211000832784FE83A7470003A74700832784FE05
:1021200023A2E700832784FE83A7470083A7C70075
:102130002326F4FE232E04FC232C04FC6F008006CF
:102140000327C4FE832784FDB307F70083C7470333
:10215000A309F4FC032784FC832784FDB307F7005D
:1021600083C70700034734FD6308F7009307100097
:10217000232EF4FC6F00C001834734FD639A0700EF
:102180008327C4FE232AF4FC93071000232EF4FCBB
:102190008327C4FD63900702832784FD938717007C
:1021A000232CF4FC032784FD9307F000E3FAE7F8FF
:1021B0006F00800013000000832744FD639A07002E
:1021C0000327C4FE832744FEE31CF7F06F00800062
:1021D00013000000832744FD138507000324C10377
:1021E0001301010467800000130101FD2326110281
:1021F0002324810213040103232EA4FC93077000FF
:102200002324F4FE0325C4FDEFD0101313070500AB
:102210009307F00063FAE700737004307300100056
:10222000130000006FF0DFFFEFF05FA2832784FE52
:102230009387F7FF2324F4FE032784FE9307070008
:1022400093972700B387E7009397270037970200FB
:102250001307873AB387E7008325C4FD138507007A
:10226000EFF09FE02326A4FE8327C4FE63980700B7
:10227000832784FEE39C07FA6F00800013000000B0
:102280008327C4FE639C070083A7819A8325C4FD2E
:1022900013850700EFF05FDD2326A4FE8327C4FE2D
:1022A000639C070083A7C19A8325C4FD138507009B
:1022B000EFF09FDB2326A4FE8327C4FE639A07006A
:1022C0008325C4FD1385C19DEFF01FDA2326A4FEEC
:1022D0008327C4FE639A07008325C4FD1385419CB0
:1022E000EFF09FD82326A4FEEFF0DF988327C4FEEB
:1022F000138507008320C102032481021301010317
:1023000067800000130101FD2326110223248102AE
:1023100013040103232EA4FC232CB4FC232AC4FCA5
:10232000232404FE930770002326F4FEEFF01F928F
:1023300083A7019F032784FD6368F7188327C4FEE2
:102340009387F7FF2326F4FE032784FE93070700F5
:1023500093973700B387E700939727001387070009
:102360008327C4FDB386E7000327C4FE9307070055
:1023700093972700B387E7009397270037970200CA
:102380001307873AB387E700130610009385070009
:1023900013850600EF10C06213070500832784FE33
:1023A000B387E7002324F4FE8327C4FEE39807F8ED
:1023B000032784FE9307070093973700B387E7004E
:1023C00093972700138707008327C4FD3387E7000F
:1023D00083A7819A13062000938507001305070041
:1023E000EF10005E13070500832784FEB387E70024
:1023F0002324F4FE032784FE9307070093973700F6
:10240000B387E70093972700138707008327C4FD4E
:102410003387E70083A7C19A13062000938507003E
:1024200013050700EF10C05913070500832784FE2A
:10243000B387E7002324F4FE032784FE93070700F5
:1024400093973700B387E700939727001387070018
:102450008327C4FD3387E700130640009385419C22
:1024600013050700EF10C05513070500832784FEEE
:10247000B387E7002324F4FE032784FE93070700B5
:1024800093973700B387E7009397270013870700D8
:102490008327C4FD3387E700130630009385C19D71
:1024A00013050700EF10C05113070500832784FEB2
:1024B000B387E7002324F4FE832744FD63860700E7
:1024C000832744FD23A00700EFF0CFFA832784FE83
:1024D000138507008320C102032481021301010335
:1024E00067800000130101FD2326110223248102CD
:1024F00013040103232EA4FC83A781A1638A070090
:102500007370043073001000130000006FF0DFFFE1
:10251000EFF0CFF373700430B797020083A7472C16
:1025200013871700B797020023A2E72C03A701A087
:102530008327C4FD3307F70023A0E1A0B79702006B
:1025400083A7472C1387F7FFB797020023A2E72C36
:10255000B797020083A7472C639407007360043089
:10256000EFF04FF12326A4FE8327C4FE1385070056
:102570008320C1020324810213010103678000004C
:10258000130101FD232611022324810213040103F8
:10259000232EA4FC8327C4FD2324F4FE832784FE7A
:1025A000639A07007370043073001000130000007A
:1025B0006FF0DFFFEFF08FE90325C4FDEFE09FA48C
:1025C00013070500930720006312F71A9307100002
:1025D0002322F4FE832784FE938747001385070098
:1025E000EF80D02E73700430B797020083A7472C7A
:1025F00013871700B797020023A2E72C832784FED6
:1026000083A7870263800702832784FE938787015D
:1026100013850700EF80902B832784FE130710009B
:10262000A382E758B797020083A7472C1387F7FFC9
:10263000B797020023A2E72CB797020083A7472C85
:102640006394070073600430832784FE83A7C70266
:10265000130710003317F70083A7819F3367F70034
:1026600023ACE19E832784FE03A7C702B79702002D
:102670009386873A9307070093972700B387E7006D
:1026800093972700B387F60083A747002326F4FE1D
:10269000832784FE0327C4FE23A4E7008327C4FE08
:1026A00003A78700832784FE23A6E7008327C4FEB1
:1026B00083A78700032784FE1307470023A2E700B0
:1026C000832784FE138747008327C4FE23A4E700E3
:1026D000832784FE03A7C702930707009397270069
:1026E000B387E70093972700379702001307873ACD
:1026F0003387E700832784FE23AAE700832784FE2D
:1027000003A7C702B79702009386873A930707008B
:1027100093972700B387E70093972700B387F600C6
:1027200083A7070093861700B79702001386873A9E
:102730009307070093972700B387E7009397270035
:10274000B307F60023A0D700832784FE03A7C702A0
:10275000B797020083A7C73083A7C70263FAE700D1
:102760001307100023A2E1A06F008000232204FEC3
:10277000EFF04FD0832744FE138507008320C1026A
:10278000032481021301010367800000130101FD8E
:10279000232611022324810213040103232804FCAD
:1027A00083A781A16398073283A7419F938717006E
:1027B000232AF4FC032744FD23AAE19E832744FD3A
:1027C0006394070483A7819A83A70700638A07009D
:1027D0007370043073001000130000006FF0DFFF0F
:1027E00083A7819A232CF4FC03A7C19A23A4E19A1E
:1027F000032784FD23A6E19A83A781A013871700EE
:1028000023A4E1A0EF10003B83A701A1032744FD0F
:102810006364F72683A7819A83A70700639807005C
:102820001307F0FF23A8E1A06F00002583A7819A7A
:1028300083A7C70083A7C700232EF4FC8327C4FD0A
:1028400083A747002320F4FE032744FD832704FECB
:102850006378F700032704FE23A8E1A06F00C021DE
:102860008327C4FD83A747012322F4FE8327C4FDE9
:1028700083A787000327C4FD0327C70023A4E7001D
:102880008327C4FD83A7C7000327C4FD0327870050
:1028900023A2E700832744FE03A747008327C4FD44
:1028A00093874700631AF7008327C4FD03A7C70077
:1028B000832744FE23A2E7008327C4FD23AA070041
:1028C000832744FE83A707001387F7FF832744FE6F
:1028D00023A0E7008327C4FD83A78702638C070634
:1028E0008327C4FD83A787022324F4FE8327C4FD26
:1028F00083A7C7010327C4FD0327070223A4E7001A
:102900008327C4FD83A707020327C4FD0327C7014C
:1029100023A2E700832784FE03A747008327C4FD83
:1029200093878701631AF7008327C4FD03A7070273
:10293000832784FE23A2E7008327C4FD23A4070284
:10294000832784FE83A707001387F7FF832784FE6E
:1029500023A0E7008327C4FD83A7C7021307100045
:102960003317F70083A7819F3367F70023ACE19EFD
:102970008327C4FD03A7C702B79702009386873A4F
:102980009307070093972700B387E70093972700E3
:10299000B387F60083A747002326F4FE8327C4FDF0
:1029A0000327C4FE23A4E7008327C4FE03A78700F0
:1029B0008327C4FD23A6E7008327C4FE83A78700DF
:1029C0000327C4FD1307470023A2E7008327C4FDA4
:1029D000138747008327C4FE23A4E7008327C4FD91
:1029E00003A7C7029307070093972700B387E70061
:1029F00093972700379702001307873A3387E7003A
:102A00008327C4FD23AAE7008327C4FD03A7C702C9
:102A1000B79702009386873A93070700939727009A
:102A2000B387E70093972700B387F60083A70700D3
:102A300093861700B79702001386873A930707001B
:102A400093972700B387E70093972700B307F60013
:102A500023A0D7008327C4FD03A7C702B7970200AE
:102A600083A7C73083A7C702E366F7DA930710008E
:102A70002328F4FC6FF01FDAB797020083A7C73052
:102A800003A7C702B79702009386873A9307070008
:102A900093972700B387E70093972700B387F60043
:102AA00003A707009307100063F6E70093071000E1
:102AB0002328F4FC83A701A063940700EF30107073
:102AC00083A741A063800702930710002328F4FC2A
:102AD0006F00400183A701A01387170023A0E1A086
:102AE000EF30D06D832704FD138507008320C102DA
:102AF000032481021301010367800000130101FE1A
:102B0000232E1100232C81001304010283A781A12D
:102B1000638807001307100023A2E1A06F00801351
:102B200023A201A0B797020083A7C73003A707001D
:102B3000B797020083A7C73083A7070363E2E702C2
:102B4000B797020003A7C730B797020083A7C73023
:102B5000938747039385070013050700EF30D06C78
:102B600083A7819F13850700EFD0412693070500B7
:102B7000138707009307F001B387E7402324F4FE8F
:102B8000B79702009386873A032784FE93070700CE
:102B900093972700B387E70093972700B387F60042
:102BA00083A70700639A0700737004307300100056
:102BB000130000006FF0DFFF032784FE9307070078
:102BC00093972700B387E700939727003797020072
:102BD0001307873AB387E7002326F4FE8327C4FE52
:102BE00083A7470003A747008327C4FE23A2E7006B
:102BF0008327C4FE03A747008327C4FE938787006B
:102C0000631CF7008327C4FE83A7470003A7470080
:102C10008327C4FE23A2E7008327C4FE83A74700BF
:102C200003A7C700B797020023A6E730B7970200B3
:102C300083A7C7309387870513850700EF3090552A
:102C4000B797020083A7C73013878715B79702008D
:102C500023AAE72E130000008320C1010324810171
:102C60001301010267800000130101FE232E1100F1
:102C7000232C8100130401022326A4FE2324B4FE86
:102C80008327C4FE639A070073700430730010003A
:102C9000130000006FF0DFFFB797020083A7C73073
:102CA00093878701938507000325C4FEEF80C03416
:102CB00093051000032584FEEF20407513000000EB
:102CC0008320C101032481011301010267800000F8
:102CD000130101FD232611022324810213040103A1
:102CE000232EA4FC232CB4FC232AC4FC8327C4FD7C
:102CF000639A070073700430730010001300000023
:102D00006FF0DFFF83A781A1639A0700737004301F
:102D100073001000130000006FF0DFFFB797020090
:102D200083A7C730832684FD3707008033E7E6009A
:102D300023ACE7008327C4FD83A747002326F4FEC6
:102D4000B797020083A7C7300327C4FE23AEE7006E
:102D5000B797020083A7C7300327C4FE0327870065
:102D600023A0E702B797020003A7C7308327C4FE5A
:102D700083A787001307870123A2E700B797020004
:102D800083A7C730138787018327C4FE23A4E700E6
:102D9000B797020083A7C7300327C4FD23A4E70227
:102DA0008327C4FD83A70700138717008327C4FD6B
:102DB00023A0E70093051000032544FDEF200065E4
:102DC000130000008320C1020324810213010103C8
:102DD00067800000130101FD2326110223248102D4
:102DE00013040103232EA4FC232CB4FC232AC4FCCB
:102DF0008327C4FD639A07007370043073001000CA
:102E0000130000006FF0DFFF8327C4FD83A7470096
:102E10002326F4FEB797020083A7C7300327C4FE1A
:102E200023AEE700B797020083A7C7300327C4FE8D
:102E30000327870023A0E702B797020003A7C73044
:102E40008327C4FE83A787001307870123A2E70017
:102E5000B797020083A7C730138787018327C4FE73
:102E600023A4E700B797020083A7C7300327C4FD58
:102E700023A4E7028327C4FD83A707001387170055
:102E80008327C4FD23A0E700832744FD6386070052
:102E90009307F0FF232CF4FC832544FD032584FDD8
:102EA000EF20C056130000008320C10203248102DA
:102EB0001301010367800000130101FC232E81022E
:102EC000130401042326A4FC8327C4FC83A7C700A2
:102ED00083A7C700232EF4FC8327C4FD639A070051
:102EE0007370043073001000130000006FF0DFFFF8
:102EF0008327C4FD83A787022320F4FE8327C4FD14
:102F000083A7C7010327C4FD0327070223A4E70003
:102F10008327C4FD83A707020327C4FD0327C70136
:102F200023A2E700832704FE03A747008327C4FDED
:102F300093878701631AF7008327C4FD03A707025D
:102F4000832704FE23A2E7008327C4FD23A40702EE
:102F5000832704FE83A707001387F7FF832704FE58
:102F600023A0E70083A781A1639E07168327C4FDE2
:102F700083A747012324F4FE8327C4FD83A787008A
:102F80000327C4FD0327C70023A4E7008327C4FD4C
:102F900083A7C7000327C4FD0327870023A2E700F8
:102FA000832784FE03A747008327C4FD9387470038
:102FB000631AF7008327C4FD03A7C700832784FE95
:102FC00023A2E7008327C4FD23AA0700832784FEEA
:102FD00083A707001387F7FF832784FE23A0E7005A
:102FE0008327C4FD83A7C702130710003317F70018
:102FF00083A7819F3367F70023ACE19E8327C4FD3D
:1030000003A7C702B79702009386873A9307070082
:1030100093972700B387E70093972700B387F600BD
:1030200083A747002326F4FE8327C4FD0327C4FE9D
:1030300023A4E7008327C4FE03A787008327C4FDDA
:1030400023A6E7008327C4FE83A787000327C4FDC8
:103050001307470023A2E7008327C4FD1387470017
:103060008327C4FE23A4E7008327C4FD03A7C70268
:103070009307070093972700B387E70093972700EC
:10308000379702001307873A3387E7008327C4FD89
:1030900023AAE7008327C4FD03A7C702B79702004E
:1030A0009386873A9307070093972700B387E70033
:1030B00093972700B387F60083A70700938617002E
:1030C000B79702001386873A930707009397270064
:1030D000B387E70093972700B307F60023A0D70034
:1030E0006F0000079387019B83A747002322F4FE0C
:1030F0008327C4FD032744FE23AEE700832744FE55
:1031000003A787008327C4FD23A0E702832744FE8B
:1031100083A787000327C4FD1307870123A2E700C5
:103120008327C4FD13878701832744FE23A4E70078
:103130008327C4FD1387019B23A4E7029387019B88
:1031400083A70700138717009387019B23A0E7003D
:103150008327C4FD03A7C702B797020083A7C73020
:1031600083A7C70263FCE70093071000232CF4FC3D
:103170001307100023A2E1A06F008000232C04FCA1
:10318000832784FD138507000324C1031301010471
:1031900067800000130101FD23268102130401034F
:1031A000232EA4FC232CB4FC83A781A1639A0700DF
:1031B0007370043073001000130000006FF0DFFF25
:1031C000032784FDB70700803367F7008327C4FD1A
:1031D00023A0E7008327C4FD83A7C7002320F4FEB4
:1031E000832704FE639A0700737004307300100095
:1031F000130000006FF0DFFF8327C4FD83A70701E2
:103200002322F4FE8327C4FD83A747000327C4FDC0
:103210000327870023A4E7008327C4FD83A7870033
:103220000327C4FD0327470023A2E700832744FEAA
:1032300083A747000327C4FD631AF7008327C4FD53
:1032400003A78700832744FE23A2E7008327C4FD4A
:1032500023A80700832744FE83A707001387F7FFEF
:10326000832744FE23A0E700832704FE83A74701AA
:103270002324F4FE832704FE83A78700032704FE8C
:103280000327C70023A4E700832704FE83A7C70002
:10329000032704FE0327870023A2E700832784FE79
:1032A00003A74700832704FE93874700631AF700AC
:1032B000832704FE03A7C700832784FE23A2E70019
:1032C000832704FE23AA0700832784FE83A7070021
:1032D0001387F7FF832784FE23A0E700832704FEDC
:1032E00083A7C702130710003317F70083A7819F36
:1032F0003367F70023ACE19E832704FE03A7C702D0
:10330000B79702009386873A9307070093972700A1
:10331000B387E70093972700B387F60083A747009A
:103320002326F4FE832704FE0327C4FE23A4E7001C
:103330008327C4FE03A78700832704FE23A6E70094
:103340008327C4FE83A78700032704FE13074700D3
:1033500023A2E700832704FE138747008327C4FEC8
:1033600023A4E700832704FE03A7C70293070700EF
:1033700093972700B387E7009397270037970200BA
:103380001307873A3387E700832704FE23AAE70061
:10339000832704FE03A7C702B79702009386873AE4
:1033A0009307070093972700B387E70093972700B9
:1033B000B387F60083A7070093861700B79702002C
:1033C0001386873A9307070093972700B387E70090
:1033D00093972700B307F60023A0D700832704FEA6
:1033E00003A7C702B797020083A7C73083A7C70206
:1033F00063F6E7001307100023A2E1A0130000000A
:103400000324C1021301010367800000130101FEC0
:10341000232E8100130401022326A4FE8327C4FE69
:10342000639A0700737004307300100013000000EB
:103430006FF0DFFF73700430B797020083A7472C4B
:1034400013871700B797020023A2E72C03A781A0D8
:103450008327C4FE23A0E70003A7419F8327C4FE60
:1034600023A2E700B797020083A7472C1387F7FF33
:10347000B797020023A2E72CB797020083A7472C37
:103480006394070073600430130000000324C1013B
:103490001301010267800000130101FE232E810049
:1034A000130401022326A4FE03A781A08327C4FEE0
:1034B00023A0E70003A7419F8327C4FE23A2E700C0
:1034C000130000000324C101130101026780000002
:1034D000130101FD23261102232481021304010399
:1034E000232EA4FC232CB4FC8327C4FD639A07007D
:1034F0007370043073001000130000006FF0DFFFE2
:10350000832784FD639A07007370043073001000F2
:10351000130000006FF0DFFF73700430B7970200F4
:1035200083A7472C13871700B797020023A2E72C25
:1035300083A7419F2324F4FE8327C4FD83A747006C
:10354000032784FEB307F7402326F4FEB797020053
:1035500083A7C73083C75758638E0700B797020009
:1035600083A7C730A3820758930710002322F4FED5
:103570006F008009832784FD03A707009307F0FFEE
:103580006316F700232204FE6F0000088327C4FDA2
:1035900003A7070083A781A06304F7028327C4FD64
:1035A00083A74700032784FE636CF700930710008E
:1035B0002322F4FE832784FD23A007006F00C004AC
:1035C000832784FD83A707000327C4FE6376F702E1
:1035D000832784FD03A707008327C4FE3307F74032
:1035E000832784FD23A0E7000325C4FDEFF0DFEA75
:1035F000232204FE6F004001832784FD23A00700DF
:10360000930710002322F4FEB797020083A7472CEC
:103610001387F7FFB797020023A2E72CB7970200A2
:1036200083A7472C6394070073600430832744FE0C
:10363000138507008320C1020324810213010103C3
:1036400067800000130101FF23268100130401019C
:103650001307100023A2E1A0130000000324C100FF
:103660001301010167800000130101FD232681027F
:1036700013040103232EA4FC8327C4FD638E0700DB
:103680008327C4FD2326F4FE8327C4FE83A7870473
:103690002324F4FE6F008000232404FE832784FE8D
:1036A000138507000324C102130101036780000092
:1036B000130101FD2326810213040103232EA4FC20
:1036C000232CB4FC8327C4FD638C07008327C4FD2F
:1036D0002326F4FE8327C4FE032784FD23A4E704E6
:1036E000130000000324C1021301010367800000DE
:1036F000130101FE232E1100232C8100130401026B
:103700002326A4FEEF00C00A6FF0DFFF130101FEC5
:10371000232E1100232C810013040102232604FE12
:103720006F0080030327C4FE9307070093972700C9
:10373000B387E70093972700379702001307873A6C
:10374000B387E70013850700EF70C0798327C4FEB5
:10375000938717002326F4FE0327C4FE9307600017
:10376000E3F2E7FC13850198EF70C0771385419968
:10377000EF7040771385019BEF70C0761385419CF5
:10378000EF7040761385C19DEF70C0751387019867
:1037900023A4E19A1387419923A6E19A130000001C
:1037A0008320C1010324810113010102678000000D
:1037B000130101FE232E1100232C810013040102AA
:1037C0006F00000873700430B797020083A7472C7E
:1037D00013871700B797020023A2E72C9387419C19
:1037E00083A7C70083A7C7002326F4FE8327C4FE50
:1037F0009387470013850700EF70500D83A7019F43
:103800001387F7FF23A8E19E83A7819D1387F7FF06
:1038100023ACE19CB797020083A7472C1387F7FFDF
:10382000B797020023A2E72CB797020083A7472C83
:1038300063940700736004300325C4FEEF00403238
:1038400083A7819DE39007F8130000001300000098
:103850008320C1010324810113010102678000005C
:10386000130101FD23261102232481021304010305
:10387000232EA4FC232CB4FC232AC4FC2328D4FC30
:103880008327C4FD63980700B797020083A7C7305A
:103890006F0080008327C4FD2326F4FE832784FD68
:1038A0000327C4FE23A0E7008327C4FE1387470332
:1038B000832784FD23A2E7008327C4FE03A7C70252
:1038C000832784FD23A8E7008327C4FE03A70703FB
:1038D000832784FD23AEE7008327C4FE03A74704A4
:1038E000832784FD23A4E7008327C4FE03A7C7041E
:1038F000832784FD23AAE700832784FD23AC0700E8
:10390000032704FD93075000630EF704B7970200E6
:1039100083A7C7300327C4FE6318F700832784FDFD
:1039200023A607006F004005832784FD032704FDBD
:1039300023A6E700032704FD93073000631EF70268
:10394000EFE0CFB08327C4FE83A787026388070018
:10395000832784FD1307200023A6E700EFE08FB143
:103960006F0080010325C4FEEFD0CFE913070500E7
:10397000832784FD23A6E700832744FD6384070291
:103980008327C4FE83A7070313850700EF00C01633
:103990009307050013870700832784FD2390E70220
:1039A0006F00C000832784FD2390070213000000EE
:1039B0008320C102032481021301010367800000F8
:1039C000130101FC232E1102232C81021304010494
:1039D0002326A4FC2324B4FC2322C4FC232E04FCB1
:1039E000832784FC83A70700638C070E832784FC4E
:1039F0002320F4FE832704FE83A7470003A7470084
:103A0000832704FE23A2E700832704FE03A74700C1
:103A1000832704FE93878700631CF700832704FE37
:103A200083A7470003A74700832704FE23A2E700DC
:103A3000832704FE83A7470083A7C7002322F4FE41
:103A4000832784FC2324F4FE832784FE83A7470076
:103A500003A74700832784FE23A2E700832784FE71
:103A600003A74700832784FE93878700631CF70022
:103A7000832784FE83A7470003A74700832784FE8C
:103A800023A2E700832784FE83A7470083A7C700FC
:103A90002326F4FE0327C4FD9307070093973700FE
:103AA000B387E70093972700138707008327C4FC99
:103AB000B387E700832644FC1306100093850700B4
:103AC0000325C4FEEFF0DFD98327C4FD93871700D9
:103AD000232EF4FC0327C4FE832744FEE312F7F6EB
:103AE0008327C4FD138507008320C10303248103BA
:103AF0001301010467800000130101FD23268102E8
:103B000013040103232EA4FC232604FE6F00C0012E
:103B10008327C4FD93871700232EF4FC8327C4FE5C
:103B2000938717002326F4FE8327C4FD03C70700ED
:103B30009307500AE30EF7FC8327C4FE93D72700B0
:103B40002326F4FE8327C4FE9397070193D707012A
:103B5000138507000324C1021301010367800000DD
:103B6000130101FE232E1100232C810013040102F6
:103B70002326A4FEB797020083A7C7309387871533
:103B800013850700EFB0505D8327C4FE83A70703AA
:103B900013850700EF6000310325C4FEEF6080301D
:103BA000130000008320C1010324810113010102DD
:103BB00067800000130101FF232681001304010127
:103BC00083A7819A83A70700639807001307F0FF74
:103BD00023A8E1A06F00400183A7819A83A7C700B3
:103BE00003A7070023A8E1A0130000000324C100DD
:103BF0001301010167800000130101FE232E8100E3
:103C000013040102B797020083A7C7302326F4FEEE
:103C10008327C4FE138507000324C1011301010299
:103C200067800000130101FE232E810013040102AE
:103C300083A7C19F63980700930710002326F4FE13
:103C40006F00C00183A781A163980700930720003C
:103C50002326F4FE6F008000232604FE8327C4FE83
:103C6000138507000324C1011301010267800000CE
:103C7000130101FD232611022324810213040103F1
:103C8000232EA4FC8327C4FD2324F4FE232204FE58
:103C90008327C4FD63820720832784FE03A7C7020E
:103CA000B797020083A7C73083A7C7026376F71CC4
:103CB000832784FE83A7870163C00702B7970200AA
:103CC00083A7C73083A7C702130770003307F740E5
:103CD000832784FE23ACE700832784FE83A6470165
:103CE000832784FE03A7C702930707009397270043
:103CF000B387E70093972700379702001307873AA7
:103D0000B387E700639AF614832784FE93874700FE
:103D100013850700EF70803B93070500639207024D
:103D2000832784FE83A7C70213071000B317F70089
:103D300013C7F7FF83A7819F3377F70023ACE19E7A
:103D4000B797020083A7C73003A7C702832784FE63
:103D500023A6E702832784FE83A7C7021307100068
:103D60003317F70083A7819F3367F70023ACE19EE9
:103D7000832784FE03A7C702B79702009386873A7A
:103D80009307070093972700B387E70093972700CF
:103D9000B387F60083A747002326F4FE832784FE1B
:103DA0000327C4FE23A4E7008327C4FE03A78700DC
:103DB000832784FE23A6E7008327C4FE83A787000A
:103DC000032784FE1307470023A2E700832784FE0E
:103DD000138747008327C4FE23A4E700832784FEBC
:103DE00003A7C7029307070093972700B387E7004D
:103DF00093972700379702001307873A3387E70026
:103E0000832784FE23AAE700832784FE03A7C70233
:103E1000B79702009386873A930707009397270086
:103E2000B387E70093972700B387F60083A70700BF
:103E300093861700B79702001386873A9307070007
:103E400093972700B387E70093972700B307F600FF
:103E500023A0D7006F008001B797020083A7C73067
:103E600003A7C702832784FE23A6E7029307100057
:103E70002322F4FE6F004002832784FE03A7C704B9
:103E8000B797020083A7C73083A7C7026376F700FE
:103E9000930710002322F4FE832744FE13850700B6
:103EA0008320C10203248102130101036780000003
:103EB000130101FD232611022324810213040103AF
:103EC000232EA4FC8327C4FD2324F4FE232204FE16
:103ED0008327C4FD638E071CB797020083A7C730F2
:103EE000032784FE630AF700737004307300100028
:103EF000130000006FF0DFFF832784FE83A7070510
:103F0000639A070073700430730010001300000000
:103F10006FF0DFFF832784FE83A707051387F7FF72
:103F2000832784FE23A8E704832784FE03A7C70210
:103F3000832784FE83A7C704630CF716832784FEB8
:103F400083A7070563960716832784FE9387470098
:103F500013850700EF70801793070500639207022F
:103F6000832784FE83A7C70213071000B317F70047
:103F700013C7F7FF83A7819F3377F70023ACE19E38
:103F8000832784FE03A7C704832784FE23A6E702B2
:103F9000832784FE83A7C702130770003307F74007
:103FA000832784FE23ACE700832784FE83A7C70210
:103FB000130710003317F70083A7819F3367F700BB
:103FC00023ACE19E832784FE03A7C702B7970200B4
:103FD0009386873A9307070093972700B387E700F4
:103FE00093972700B387F60083A747002326F4FEA4
:103FF000832784FE0327C4FE23A4E7008327C4FE8F
:1040000003A78700832784FE23A6E7008327C4FE37
:1040100083A78700032784FE1307470023A2E70036
:10402000832784FE138747008327C4FE23A4E70069
:10403000832784FE03A7C7029307070093972700EF
:10404000B387E70093972700379702001307873A53
:104050003387E700832784FE23AAE700832784FEB3
:1040600003A7C702B79702009386873A9307070012
:1040700093972700B387E70093972700B387F6004D
:1040800083A7070093861700B79702001386873A25
:104090009307070093972700B387E70093972700BC
:1040A000B307F60023A0D700930710002322F4FEE5
:1040B000832744FE138507008320C1020324810265
:1040C0001301010367800000130101FC232E11027C
:1040D000232C8102130401042326A4FC2324B4FC12
:1040E0008327C4FC2320F4FE930710002322F4FE50
:1040F0008327C4FC63820722832704FE83A7070566
:10410000639A0700737004307300100013000000FE
:104110006FF0DFFF832704FE83A7C704032784FC17
:1041200063F8E700832784FC232EF4FC6F00000172
:10413000832704FE83A7C704232EF4FC832704FEF1
:1041400083A7C7020327C4FD6308F71C832704FE67
:1041500083A70705032744FE6310F71CB7970200E7
:1041600083A7C730032704FE631AF7007370043077
:1041700073001000130000006FF0DFFF832704FEC0
:1041800083A7C7022324F4FE832704FE0327C4FD6C
:1041900023A6E702832704FE83A7870163CC0700D9
:1041A000130770008327C4FD3307F740832704FEFD
:1041B00023ACE700832704FE83A64701032784FE80
:1041C0009307070093972700B387E700939727008B
:1041D000379702001307873AB387E700639EF6120A
:1041E000832704FE9387470013850700EF60106E56
:1041F0009307050063920702832704FE83A7C70283
:1042000013071000B317F70013C7F7FF83A7819FA9
:104210003377F70023ACE19E832704FE83A7C70210
:10422000130710003317F70083A7819F3367F70048
:1042300023ACE19E832704FE03A7C702B7970200C1
:104240009386873A9307070093972700B387E70081
:1042500093972700B387F60083A747002326F4FE31
:10426000832704FE0327C4FE23A4E7008327C4FE9C
:1042700003A78700832704FE23A6E7008327C4FE45
:1042800083A78700032704FE1307470023A2E70044
:10429000832704FE138747008327C4FE23A4E70077
:1042A000832704FE03A7C7029307070093972700FD
:1042B000B387E70093972700379702001307873AE1
:1042C0003387E700832704FE23AAE700832704FE41
:1042D00003A7C702B79702009386873A93070700A0
:1042E00093972700B387E70093972700B387F600DB
:1042F00083A7070093861700B79702001386873AB3
:104300009307070093972700B387E7009397270049
:10431000B307F60023A0D700130000008320C103D9
:10432000032481031301010467800000130101FECF
:10433000232E810013040102B797020083A7C73020
:1043400083A787012326F4FEB797020083A7C7300F
:1043500003A7C702B797020083A7C7309306700070
:104360003387E64023ACE7008327C4FE13850700AC
:104370000324C1011301010267800000130101FF42
:104380002326810013040101B797020083A7C730D9
:10439000638C0700B797020083A7C73003A7070500
:1043A0001307170023A8E704B797020083A7C730B5
:1043B000138507000324C100130101016780000079
:1043C000130101FD2326110223248102130401039A
:1043D000232EA4FC232CB4FC232AC4FC8327C4FD75
:1043E000638A07007370043073001000130000002C
:1043F0006FF0DFFF73700430B797020083A7472C7C
:1044000013871700B797020023A2E72CB797020083
:1044100003A7C7308327C4FD938707169397270008
:10442000B307F70083A70700639A0702B797020054
:1044300003A7C7308327C4FDB307F7001307100095
:104440002382E758832744FD638A07009305100001
:10445000032544FDEF00907B73000000B797020036
:1044600083A7472C1387F7FFB797020023A2E72CF7
:10447000B797020083A7472C63940700736004304A
:1044800073700430B797020083A7472C1387170077
:10449000B797020023A2E72CB797020003A7C73003
:1044A0008327C4FD9387071693972700B307F70068
:1044B00083A707002326F4FE8327C4FE638807042E
:1044C000832784FD63820702B797020003A7C730E2
:1044D0008327C4FD9387071693972700B307F70038
:1044E00023A007006F008002B797020083A6C730A1
:1044F0008327C4FE1387F7FF8327C4FD938707161E
:1045000093972700B387F60023A0E700B797020030
:1045100003A7C7308327C4FDB307F70023820758DA
:10452000B797020083A7472C1387F7FFB7970200BE
:1045300023A2E72CB797020083A7472C63940700B8
:10454000736004308327C4FE138507008320C102F3
:10455000032481021301010367800000130101FCA1
:10456000232E1102232C810213040104232EA4FC08
:10457000232CB4FC232AC4FC2328D4FC2326E4FCEB
:104580008327C4FD638A0700737004307300100032
:10459000130000006FF0DFFF73700430B797020064
:1045A00083A7472C13871700B797020023A2E72C95
:1045B000B797020003A7C7308327C4FDB307F700EE
:1045C00083C7475813F7F70F930720006308F706D0
:1045D000B797020083A7C7300327C4FD1307071648
:1045E000131727003387E70083260700032784FD7E
:1045F0001347F7FF33F7E6008326C4FD93860616BC
:1046000093962600B387D70023A0E700B797020050
:1046100003A7C7308327C4FDB307F70013071000B3
:104620002382E7588327C4FC638A070093051000A0
:104630000325C4FCEF00905D73000000B7970200F3
:1046400083A7472C1387F7FFB797020023A2E72C15
:10465000B797020083A7472C639407007360043068
:1046600073700430B797020083A7472C1387170095
:10467000B797020023A2E72C832704FD6384070277
:10468000B797020003A7C7308327C4FD9387071697
:1046900093972700B307F70003A70700832704FDBC
:1046A00023A0E700B797020003A7C7308327C4FD04
:1046B000B307F70083C7475813F7F70F9307200096
:1046C0006306F700232604FE6F008004B7970200FC
:1046D00083A7C7300327C4FD130707161317270046
:1046E0003387E70083260700032744FD1347F7FFBE
:1046F00033F7E6008326C4FD9386061693962600BC
:10470000B387D70023A0E700930710002326F4FE09
:10471000B797020003A7C7308327C4FDB307F7008C
:1047200023820758B797020083A7472C1387F7FF08
:10473000B797020023A2E72CB797020083A7472C64
:1047400063940700736004308327C4FE1385070059
:104750008320C10303248103130101046780000047
:10476000130101FB23268104130401052326A4FC65
:104770002324B4FC2322C4FC2320D4FC232EE4FAFB
:10478000930710002320F4FE832784FC638A07002C
:104790007370043073001000130000006FF0DFFF2F
:1047A0008327C4FC639A0700737004307300100001
:1047B000130000006FF0DFFF8327C4FC2322F4FE08
:1047C00073700430B797020083A7472C1387170034
:1047D000B797020023A2E72C8327C4FB638207025A
:1047E000032744FE832784FC9387071693972700AB
:1047F000B307F70003A707008327C4FB23A0E70044
:10480000032744FE832784FCB307F70083C7475878
:10481000A30FF4FC032744FE832784FCB307F700AF
:10482000130720002382E758032704FC9307400066
:1048300063E4E70E832704FC13972700B7670200A1
:1048400093874753B307F70083A7070067800700E4
:10485000032744FE832784FC93870716939727003A
:10486000B307F70003A70700832744FC3367F7006B
:10487000832644FE832784FC93870716939727009B
:10488000B387F60023A0E7006F00400B032744FE28
:10489000832784FC9387071693972700B307F700B5
:1048A00083A7070013871700832644FE832784FC11
:1048B0009387071693972700B387F60023A0E70096
:1048C0006F00C007032744FE832784FC93870716E5
:1048D00093972700B307F700032744FC23A0E700C2
:1048E0006F00C0050347F4FD930720006302F70241
:1048F000032744FE832784FC93870716939727009A
:10490000B307F700032744FC23A0E7006F00000370
:10491000232004FE6F00800283A7419F638E07005F
:104920007370043073001000130000006FF0DFFF9D
:10493000130000006F008000130000000347F4FD27
:10494000930710006318F71A832744FE83A74701D3
:104950002324F4FE832744FE83A78700032744FE15
:104960000327C70023A4E700832744FE83A7C700CB
:10497000032744FE0327870023A2E700832784FE42
:1049800003A74700832744FE93874700631AF70075
:10499000832744FE03A7C700832784FE23A2E700E2
:1049A000832744FE23AA0700832784FE83A70700EA
:1049B0001387F7FF832784FE23A0E700832744FEA5
:1049C00083A7C702130710003317F70083A7819F3F
:1049D0003367F70023ACE19E832744FE03A7C70299
:1049E000B79702009386873A9307070093972700AB
:1049F000B387E70093972700B387F60083A74700A4
:104A00002326F4FE832744FE0327C4FE23A4E700E5
:104A10008327C4FE03A78700832744FE23A6E7005D
:104A20008327C4FE83A78700032744FE130747009C
:104A300023A2E700832744FE138747008327C4FE91
:104A400023A4E700832744FE03A7C70293070700B8
:104A500093972700B387E7009397270037970200C3
:104A60001307873A3387E700832744FE23AAE7002A
:104A7000832744FE03A7C702B79702009386873AAD
:104A80009307070093972700B387E70093972700C2
:104A9000B387F60083A7070093861700B797020035
:104AA0001386873A9307070093972700B387E70099
:104AB00093972700B307F60023A0D700832744FE6F
:104AC00083A78702638A07007370043073001000A5
:104AD000130000006FF0DFFF832744FE03A7C70227
:104AE000B797020083A7C73083A7C70263F4E70024
:104AF00073000000B797020083A7472C1387F7FFC6
:104B0000B797020023A2E72CB797020083A7472C90
:104B10006394070073600430832704FE1385070045
:104B20000324C1041301010567800000130101FB88
:104B300023268104130401052326A4FC2324B4FCAA
:104B40002322C4FC2320D4FC232EE4FA232CF4FAE1
:104B500093071000232CF4FC8327C4FC639A0700FE
:104B60007370043073001000130000006FF0DFFF5B
:104B7000832784FC638A070073700430730010007D
:104B8000130000006FF0DFFF8327C4FC232EF4FC2A
:104B9000232004FE8327C4FB638207020327C4FD8E
:104BA000832784FC9387071693972700B307F700A2
:104BB00003A707008327C4FB23A0E7000327C4FD46
:104BC000832784FCB307F70083C74758A30BF4FC83
:104BD0000327C4FD832784FCB307F70013072000D5
:104BE0002382E758032704FC9307400063E4E70EA1
:104BF000832704FC13972700B76702009387875425
:104C0000B307F70083A70700678007000327C4FDE9
:104C1000832784FC9387071693972700B307F70031
:104C200003A70700832744FC3367F7008326C4FDEE
:104C3000832784FC9387071693972700B387F60092
:104C400023A0E7006F00400B0327C4FD832784FCEB
:104C50009387071693972700B307F70083A70700EA
:104C6000138717008326C4FD832784FC93870716C8
:104C700093972700B387F60023A0E7006F00C007D3
:104C80000327C4FD832784FC938707169397270087
:104C9000B307F700032744FC23A0E7006F00C0051B
:104CA000034774FD930720006302F7020327C4FD46
:104CB000832784FC9387071693972700B307F70091
:104CC000032744FC23A0E7006F000003232C04FC0F
:104CD0006F00800283A7419F638E070073700430CA
:104CE00073001000130000006FF0DFFF13000000DE
:104CF0006F00800013000000034774FD930710004D
:104D00006310F7248327C4FD83A78702638A070003
:104D10007370043073001000130000006FF0DFFFA9
:104D200083A781A1639E07168327C4FD83A747013C
:104D30002324F4FE8327C4FD83A787000327C4FD33
:104D40000327C70023A4E7008327C4FD83A7C70068
:104D50000327C4FD0327870023A2E700832784FEDF
:104D600003A747008327C4FD93874700631AF70012
:104D70008327C4FD03A7C700832784FE23A2E7007F
:104D80008327C4FD23AA0700832784FE83A7070087
:104D90001387F7FF832784FE23A0E7008327C4FD42
:104DA00083A7C702130710003317F70083A7819F5B
:104DB0003367F70023ACE19E8327C4FD03A7C70236
:104DC000B79702009386873A9307070093972700C7
:104DD000B387E70093972700B387F60083A74700C0
:104DE0002326F4FE8327C4FD0327C4FE23A4E70083
:104DF0008327C4FE03A787008327C4FD23A6E700FB
:104E00008327C4FE83A787000327C4FD1307470039
:104E100023A2E7008327C4FD138747008327C4FE2E
:104E200023A4E7008327C4FD03A7C7029307070055
:104E300093972700B387E7009397270037970200DF
:104E40001307873A3387E7008327C4FD23AAE700C7
:104E50008327C4FD03A7C702B79702009386873A4A
:104E60009307070093972700B387E70093972700DE
:104E7000B387F60083A7070093861700B797020051
:104E80001386873A9307070093972700B387E700B5
:104E900093972700B307F60023A0D7006F00000701
:104EA0009387019B83A747002322F4FE8327C4FD39
:104EB000032744FE23AEE700832744FE03A78700B1
:104EC0008327C4FD23A0E702832744FE83A787002E
:104ED0000327C4FD1307870123A2E7008327C4FD2E
:104EE00013878701832744FE23A4E7008327C4FD9B
:104EF0001387019B23A4E7029387019B83A70700E5
:104F0000138717009387019B23A0E7008327C4FD25
:104F100003A7C702B797020083A7C73083A7C702BA
:104F200063F0E702832784FB63880700832784FB01
:104F30001307100023A0E7001307100023A2E1A02D
:104F4000832784FD138507000324C1041301010591
:104F500067800000130101FC232E81021304010469
:104F60002326A4FC2324B4FC2322C4FC8327C4FCF2
:104F7000639A070073700430730010001300000080
:104F80006FF0DFFF832784FC638A070073700430AF
:104F900073001000130000006FF0DFFF8327C4FCD4
:104FA000232EF4FC232004FE0327C4FD832784FC66
:104FB000B307F70083C74758A30DF4FC0327C4FDCC
:104FC000832784FCB307F700130720002382E758E8
:104FD0000327C4FD832784FC938707169397270034
:104FE000B307F70083A70700138717008326C4FDC4
:104FF000832784FC9387071693972700B387F600CF
:1050000023A0E7000347B4FD930710006310F724C3
:105010008327C4FD83A78702638A07007370043067
:1050200073001000130000006FF0DFFF83A781A161
:10503000639E07168327C4FD83A747012324F4FE3C
:105040008327C4FD83A787000327C4FD0327C70068
:1050500023A4E7008327C4FD83A7C7000327C4FD5B
:105060000327870023A2E700832784FE03A74700C6
:105070008327C4FD93874700631AF7008327C4FD85
:1050800003A7C700832784FE23A2E7008327C4FD6C
:1050900023AA0700832784FE83A707001387F7FF4F
:1050A000832784FE23A0E7008327C4FD83A7C702CC
:1050B000130710003317F70083A7819F3367F700AA
:1050C00023ACE19E8327C4FD03A7C702B797020064
:1050D0009386873A9307070093972700B387E700E3
:1050E00093972700B387F60083A747002326F4FE93
:1050F0008327C4FD0327C4FE23A4E7008327C4FE3F
:1051000003A787008327C4FD23A6E7008327C4FEE7
:1051100083A787000327C4FD1307470023A2E700E6
:105120008327C4FD138747008327C4FE23A4E70019
:105130008327C4FD03A7C70293070700939727009F
:10514000B387E70093972700379702001307873A42
:105150003387E7008327C4FD23AAE7008327C4FD24
:1051600003A7C702B79702009386873A9307070001
:1051700093972700B387E70093972700B387F6003C
:1051800083A7070093861700B79702001386873A14
:105190009307070093972700B387E70093972700AB
:1051A000B307F60023A0D7006F0000079387019B89
:1051B00083A747002322F4FE8327C4FD032744FE70
:1051C00023AEE700832744FE03A787008327C4FD9F
:1051D00023A0E702832744FE83A787000327C4FD9B
:1051E0001307870123A2E7008327C4FD13878701E4
:1051F000832744FE23A4E7008327C4FD1387019B74
:1052000023A4E7029387019B83A707001387170056
:105210009387019B23A0E7008327C4FD03A7C70250
:10522000B797020083A7C73083A7C70263F0E702DE
:10523000832744FC63880700832744FC130710007E
:1052400023A0E7001307100023A2E1A01300000031
:105250000324C1031301010467800000130101FD51
:105260002326810213040103232EA4FC232CB4FC67
:10527000832784FD638A0700737004307300100075
:10528000130000006FF0DFFF8327C4FD6398070061
:10529000B797020083A7C7306F0080008327C4FD43
:1052A0002326F4FE73700430B797020083A7472CBF
:1052B00013871700B797020023A2E72C0327C4FE29
:1052C000832784FDB307F70083C7475813F7F70F09
:1052D000930720006310F7020327C4FE832784FD91
:1052E000B307F70023820758930710002324F4FE26
:1052F0006F008000232404FEB797020083A7472C89
:105300001387F7FFB797020023A2E72CB797020095
:1053100083A7472C6394070073600430832784FEBF
:10532000138507000324C1021301010367800000F5
:10533000130101FD2326810213040103232EA4FC83
:10534000232CB4FC232AC4FC8327C4FD63980700E4
:10535000B797020083A7C7306F0080008327C4FD82
:105360002324F4FE73700430B797020083A7472C00
:1053700013871700B797020023A2E72C032784FEA8
:10538000832784FD9387071693972700B307F700B9
:1053900083A707002326F4FE032784FE832784FDCA
:1053A0009387071693972700B307F70003A7070013
:1053B000832744FD93C7F7FF3377F700832684FEE6
:1053C000832784FD9387071693972700B387F600FA
:1053D00023A0E700B797020083A7472C1387F7FFA6
:1053E000B797020023A2E72CB797020083A7472CA8
:1053F00063940700736004308327C4FE138507009D
:105400000324C1021301010367800000130101FDA1
:10541000232611022324810213040103232EA4FC5A
:10542000232CB4FC83A7419F2322F4FEB7970200EC
:1054300083A7C730A3820758B797020083A7C73056
:105440009387470013850700EF50504893070500E6
:1054500063940702B797020083A7C73083A7C702E8
:1054600013071000B317F70013C7F7FF83A7819F37
:105470003377F70023ACE19E0327C4FD9307F0FFC9
:10548000631AF708832784FD638607089387C19D05
:1054900083A747002324F4FEB797020083A7C730F1
:1054A000032784FE23A4E700B797020083A7C73031
:1054B000032784FE0327870023A6E700B79702008F
:1054C00003A7C730832784FE83A7870013074700FD
:1054D00023A2E700B797020083A7C73013874700CE
:1054E000832784FE23A4E700B797020083A7C73071
:1054F0001387C19D23AAE7009387C19D83A7070057
:10550000138717009387C19D23A0E70013000000B5
:105510006F000008032744FE8327C4FDB307F7008C
:105520002326F4FEB797020083A7C7300327C4FEE3
:1055300023A2E7000327C4FE832744FE6372F70219
:1055400003A7C19AB797020083A7C7309387470084
:105550009385070013050700EF50102A6F004003E2
:1055600003A7819AB797020083A7C73093874700A4
:105570009385070013050700EF50102883A701A1AA
:105580000327C4FE6376F7000327C4FE23A8E1A027
:10559000130000008320C1020324810213010103D0
:1055A00067800000130101FE232E1100232C8100CF
:1055B00013040102232604FEEF00104783A7C1A4B1
:1055C00063860702938701A5130760009306000016
:1055D0001306000AB76502009385C55537650000BC
:1055E000130505BEEFB08F932326A4FE8327C4FEC8
:1055F000639A0700737004307300100013000000FA
:105600006FF0DFFF8327C4FE138507008320C101ED
:10561000032481011301010267800000130101FCD2
:10562000232E1102232C810213040104232EA4FC37
:10563000232CB4FC232AC4FC2328D4FC2326E4FC1A
:105640001305C002EF4080622326A4FE8327C4FE18
:10565000638407028327C4FE238407028327C4FED2
:105660000327C4FC832604FD032644FD832584FD13
:105670000325C4FDEF00C0018327C4FE1385070086
:105680008320C10303248103130101046780000008
:10569000130101FD232611022324810213040103B7
:1056A0002326A4FE2324B4FE2322C4FE2320D4FEFA
:1056B000232EE4FC232CF4FC832784FE639A07004A
:1056C0007370043073001000130000006FF0DFFFF0
:1056D000EF009035832784FD0327C4FE23A0E70055
:1056E000832784FD032784FE23ACE700832784FD02
:1056F000032704FE23AEE700832784FD0327C4FDB0
:1057000023A0E702832784FD9387470013850700C2
:10571000EF509003832744FE638E0700832784FDA8
:1057200083C7870293E7470013F7F70F832784FDAA
:105730002384E702130000008320C10203248102B6
:105740001301010367800000130101FB23261104EC
:1057500023248104130401052326A4FC2324B4FC80
:105760002322C4FC2320D4FC232EE4FAB7970200A2
:1057700003A747362326E4FE13070000232C04FC6E
:105780008327C4FC639A0700737004307300100011
:10579000130000006FF0DFFF83A7C1A46380070A36
:1057A000832784FC232EF4FC832744FC2320F4FE6F
:1057B0008327C4FC2322F4FE032784FC93075000B4
:1057C00063CEE704EFE00FC6130705009307200040
:1057D0006314F70283A7C1A41307C4FD9306000056
:1057E0000326C4FB9305070013850700EF6090565E
:1057F000232CA4FC6F00800483A7C1A41307C4FD5D
:1058000093060000130600009305070013850700A8
:10581000EF605054232CA4FC6F00400283A7C1A466
:105820001307C4FD93060000032604FC930507003C
:1058300013850700EF70400B232CA4FC832784FD05
:1058400013870700B79702008326C4FE83A7473655
:10585000B3C7F6009306000063840700EFA0C021E1
:10586000130507008320C1040324810413010105EB
:1058700067800000130101FF23268100130401014A
:1058800083A701A5639A07007370043073001000AA
:10589000130000006FF0DFFF83A701A51385070049
:1058A0000324C1001301010167800000130101FD01
:1058B0002326810213040103232EA4FC8327C4FDA5
:1058C0002326F4FE8327C4FD639A07007370043017
:1058D00073001000130000006FF0DFFF8327C4FE89
:1058E00083A78701138507000324C1021301010365
:1058F00067800000130101FD2326810213040103C8
:10590000232EA4FC232CB4FC8327C4FD2326F4FE01
:105910008327C4FD639A070073700430730010007E
:10592000130000006FF0DFFF73700430B7970200C0
:1059300083A7472C13871700B797020023A2E72CF1
:10594000832784FD638007028327C4FE83C7870201
:1059500093E7470013F7F70F8327C4FE2384E7027A
:105960006F00C0018327C4FE83C7870293F7B7FF88
:1059700013F7F70F8327C4FE2384E702B7970200CB
:1059800083A7472C1387F7FFB797020023A2E72CC2
:10599000B797020083A7472C639407007360043015
:1059A000130000000324C1021301010367800000FB
:1059B000130101FD2326810213040103232EA4FCFD
:1059C0008327C4FD2326F4FE8327C4FD639A0700C2
:1059D0007370043073001000130000006FF0DFFFDD
:1059E00073700430B797020083A7472C1387170002
:1059F000B797020023A2E72C8327C4FE83C7870240
:105A000093F7470063960700232404FE6F00C0004D
:105A1000930710002324F4FEB797020083A7472CB6
:105A20001387F7FFB797020023A2E72CB79702006E
:105A300083A7472C6394070073600430832784FE98
:105A4000138507000324C1021301010367800000CE
:105A5000130101FE232E1100232C810013040102E7
:105A60002326A4FE0325C4FEEFF09FF49307050050
:105A7000138507008320C101032481011301010262
:105A800067800000130101FD232681021304010336
:105A9000232EA4FC8327C4FD2324F4FE8327C4FD06
:105AA000639A070073700430730010001300000045
:105AB0006FF0DFFF832784FE83A747002326F4FED1
:105AC0008327C4FE138507000324C10213010103C9
:105AD00067800000130101FD2326810213040103E6
