:020000040010EA
:100000009302F0FF73B00230170500001305C5041A
:10001000832505009302F0FF638CB20213054500AF
:1000200003260500639405006700060013054500DC
:10003000930605003305B50083A206002320560071
:100040009386460013064600E398A6FE6FF05FFC19
:100050006F000000B49A000000000000130101FCD2
:100060002320110023225100232461002326710044
:100070002328A100232AB100232CC100232ED10064
:100080002320E1022322F10223240103232611036A
:100090002328C103232AD103232CE103232EF103B8
:1000A00073252034F325103473263034EF00C01349
:1000B0007310153483200100832241000323810043
:1000C0008323C1000325010183254101032681010A
:1000D0008326C101032701028327410203288102ED
:1000E0008328C102032E0103832E4103032F8103C2
:1000F000832FC1031301010473002030130101FD9C
:10010000232611022324810213040103130000009B
:10011000F32740342320F4FEF32740302322F4FE5B
:10012000032704FE832744FEB377F70093D7070124
:10013000232AF4FC232E04FC93071000232CF4FC48
:10014000032744FD832784FDB377F700638E0704FC
:100150001387018B8327C4FD93973700B307F700FC
:1001600003A707009386018B8327C4FD939737006D
:10017000B387F60083A7470013850700E700070051
:1001800013000000F32740342324F4FEF32740300B
:100190002326F4FE032784FE8327C4FEB377F700EB
:1001A00093D707016F000002832784FD9397170000
:1001B000232CF4FC8327C4FD93871700232EF4FC23
:1001C0006FF01FF8232AF4FC832744FDE39407F61D
:1001D00013000000130000008320C10203248102E9
:1001E0001301010367800000130101FD23261102A2
:1001F0002324810213040103232EA4FC232CB4FC2A
:10020000232AC4FC0327C4FDB7070080B377F70097
:100210002324F4FE0327C4FDB707008093C7F7FF2C
:10022000B377F7002326F4FE832784FE6380070854
:100230000327C4FE93073000630CF7020327C4FEB4
:1002400093077000631AF70483A781846384070609
:100250001300000083A78184032644FD832584FDC9
:100260000325C4FDE7800700130000006F00800431
:1002700083A74184638407041300000083A741849B
:10028000032644FD832584FD0325C4FDE780070084
:10029000130000006F0080020327C4FE9307F000E4
:1002A00063F2E702EFF09FE56F00C00173001000FA
:1002B0006F008001130000006F00000113000000B8
:1002C0006F00800013000000832784FD1385070062
:1002D0008320C1020324810213010103678000000F
:1002E000130101FD2326810213040103232EA4FC24
:1002F0008327C4FD2320F4FEB70781029387C70B31
:1003000083A707002322F4FE832744FE13870700F8
:10031000832704FE23A0E700930710002324F4FEA4
:10032000B70781029387C70B032784FE23A0E7004A
:10033000B70781029387C70B83A707002326F4FE24
:10034000130000000324C1021301010367800000B1
:10035000130101FE232E1100232C8100130401023E
:10036000938701842322F4FE930710002324F4FED4
:10037000B70781029387870B032784FE23A0E7003A
:10038000930710002326F4FEB70781029387C70B5B
:100390000327C4FE23A0E70013070000832644FEC2
:1003A000130640289305000013050000EF00001518
:1003B000130000008320C101032481011301010205
:1003C00067800000130101FE232E1100232C810001
:1003D00013040102B7870000138547D4EF30003BB8
:1003E000EFF01FF7232204FE232404FE03A7018459
:1003F000930710006310F702B7870000138587D9B1
:10040000EF30C03823A00184232404FE232204FEFD
:100410006FF0DFFD032784FEB78701009387076A2B
:100420006316F702832744FE138717002322E4FE96
:100430002326F4FEB7078102938707040327C4FE2F
:1004400023A0E700232404FE6FF05FFA832784FED5
:10045000938717002324F4FE6FF05FF997020000E2
:10046000938202C0739052309302800873B00230BE
:10047000731040307310403497A100009381C1E5A0
:10048000170100021301C1BD138301849383819579
:100490002320030013034300E36C73FE1783000063
:1004A000130303A697830000938383A563787300E7
:1004B0002320030013034300E36C73FE97820000C4
:1004C000938202A417830000130383A39783000081
:1004D000938303A363FC620083A4020023A0930020
:1004E0009382420093834300E3E862FE1782000098
:1004F000130202A1EF00001D6F000000130101FDB7
:100500002326110223248102130401032326A4FEBF
:100510002324B4FE2322C4FE2320D4FE232EE4FC95
:100520000327C4FD832604FE032644FE832584FEA0
:100530000325C4FEEF00C0019307050013850700E3
:100540008320C1020324810213010103678000009C
:10055000130101FA232E810413040106232EA4FAA9
:10056000232CB4FA232AC4FA2328D4FA2326E4FA43
:100570009307A0FE2322F4FC832784FB2324F4FCAE
:10058000032784FC9307F00063C4E71293078000FD
:10059000F3B707302328F4FC832704FD2326F4FC5B
:1005A0001387018B832784FC93973700B307F700E9
:1005B000032744FB23A0E7001387018B832784FCD8
:1005C00093973700B307F700032704FB23A2E70044
:1005D000832744FB63820706832784FC0327C4FB2D
:1005E000232AE4FC232CF4FC032784FD9307F0006A
:1005F00063E8E700832784FD938707016F0080008D
:100600009307F0FF232EF4FC8327C4FD63D6070075
:100610008327C4FD6F0000088327C4FD232CF4FC4E
:10062000832784FD13071000B317F70073A047302A
:10063000930700006F000006832784FC0327C4FB98
:100640002320E4FE2322F4FE032744FE9307F00058
:1006500063E8E700832744FE938707016F0080006B
:100660009307F0FF2324F4FE832784FE63D607005C
:10067000832784FE6F000002832784FE2322F4FE7A
:10068000832744FE13071000B317F70073B04730F9
:10069000930700002322F4FC8327C4FC2326F4FEE6
:1006A0008327C4FE93F7870073A007301300000070
:1006B000832744FC138507000324C10513010106A9
:1006C00067800000130101FE232E1100232C8100FE
:1006D0001304010213050000EF0080061300000060
:1006E000EF008009B7870000138607DCB78700009A
:1006F000938507DCB7870000138507DCEF20C06710
:10070000EF20803EB73700001385C7AEEF2090562C
:1007100003A7C18483A6018583A7418513860700AB
:100720009385060013050700EFF0DFC92326A4FE1A
:1007300013051000EF30C0350325C4FEEF20D05460
:10074000130101FE232E1100232C8100130401024A
:100750002326A4FEEF20500F9307800073A00730DC
:1007600013000000130000008320C1010324810155
:100770001301010267800000130101FE232E110006
:10078000232C8100130401021306200093050000AE
:10079000B7870000138587ECEF004021B787000082
:1007A000138507EAEF200022130000001306100053
:1007B00093050000B7970000138587F2EF00D0483B
:1007C000B7970000138507F0EF20C01FB797000010
:1007D000138547FCEF10D0459307803E2326F4FE97
:1007E00083A70186639807000327C4FE23A0E18640
:1007F0006F00800013000000B737000093870721C7
:100800002324F4FE032784FE23A4E18413000000C4
:10081000EF20903013060000930500001305000040
:10082000EF20D024130000008320C10103248101A4
:100830001301010267800000130101FD232611024C
:100840002324810213040103232EA4FC232CB4FCD3
:10085000232AC4FC8327C4FD83A707002326F4FEB4
:100860008327C4FE138787028327C4FD83A78700DD
:1008700093860700032644FD832584FD13050700A6
:10088000EF00406493070500138507008320C10231
:10089000032481021301010367800000130101FD9D
:1008A000232611022324810213040103232EA4FC16
:1008B000232CB4FC232AC4FC8327C4FD83A7070090
:1008C0002326F4FE8327C4FE138787028327C4FDF3
:1008D00083A7870093860700032644FD832584FDB4
:1008E00013050700EF00D0009307050013850700EC
:1008F0008320C102032481021301010367800000E9
:10090000130101FD23261102232481021304010394
:10091000232EA4FC8327C4FD83A707002326F4FE0F
:100920008327C4FE138787028327C4FD83A787001C
:100930009385070013050700EF00004293070500A9
:10094000138507008320C1020324810213010103E0
:1009500067800000130101FD232611022324810278
:1009600013040103232EA4FC232CB4FC232AC4FC6F
:100970008327C4FD83A707002326F4FE8327C4FE34
:1009800093878702032644FD832584FD1385070092
:10099000EF00404393070500138507008320C10241
:1009A000032481021301010367800000130101FD8C
:1009B000232611022324810213040103232EA4FC05
:1009C000232CB4FC232AC4FC8327C4FD1307100086
:1009D00023A0E7028327C4FD83A707022326F4FE92
:1009E0008327C4FD83A70700938747001387070069
:1009F0008327C4FE2320F700032584FD832544FDBF
:100A0000130700008326C4FDB71700001386C7A094
:100A1000EFF0DFAE8327C4FD23A207028327C4FDC6
:100A20001387870083A501868326C4FDB7170000BE
:100A3000138647C413050700EF109057930705006E
:100A400063DA07008327C4FD370700801347F7FFE9
:100A500023A2E700130000008320C10203248102C7
:100A60001301010367800000130101FA232E8104A2
:100A7000130401062326A4FA8327C4FA2322F4FCD4
:100A8000832744FC83A707002324F4FC232C04FAC7
:100A9000832784FC9387470083A707002326F4FC61
:100AA0008327C4FC2328F4FC832704FD93F7073035
:100AB000638E071C832704FD93F707106386070ED8
:100AC000B7070100232EF4FA832744FC83A787028B
:100AD0009387170093F7F77F232AF4FC832744FCBE
:100AE00083A7C702032744FD6302F706832784FC1C
:100AF00083A70700232CF4FC832784FD232EF4FA1C
:100B00000327C4FBB7870000B377F70063840704AB
:100B1000832744FC83A787020327C4FB1377F70FBF
:100B2000832644FCB387F600238CE702832744FC2A
:100B300083A787029387170013F7F77F832744FC67
:100B400023A4E702130000006FF01FF81300000059
:100B50006F008000130000000327C4FBB7070100EB
:100B60006364F704832744FC83A7070213F7E7FFB6
:100B7000832744FC23A0E702832744FC83A70702C2
:100B8000232EF4FC832784FC9387470013870700F8
:100B90008327C4FD2320F700832784FC9387470025
:100BA00083A707002320F4FE832704FD93F7072083
:100BB000E38007EE832704FD93D707012320F4FC8D
:100BC0006F00C005832744FC83A74703032744FC29
:100BD000B307F70037170000B307F70083C7878311
:100BE0002322F4FE832784FC032744FE23A0E7008E
:100BF000832744FC83A747039387170013F7F77FE6
:100C0000832744FC23AAE70293071000232CF4FA5D
:100C1000832704FC9387F7FF2320F4FC832704FC3D
:100C2000638C0700832744FC03A74703832744FC06
:100C300083A70703E318F7F8832704FCE38A07E494
:100C4000832744FC83A7070213F7D7FF832744FCBD
:100C500023A0E702832744FC83A707022324F4FE92
:100C6000832744FC83A70700938747001387070067
:100C7000832784FE2320F700832784FC9387470083
:100C800083A707002326F4FE6FF09FE01300000007
:100C9000130000000324C105130101066780000052
:100CA000130101FD2326810213040103232EA4FC5A
:100CB0008327C4FD2320F4FE832704FE83A70700B7
:100CC0009387470083A707002322F4FE832744FE6F
:100CD0002324F4FE832784FE93F70740638C0702E6
:100CE000832704FE83A7070293E707402326F4FE29
:100CF000832704FE83A70700938747001387070015
:100D00008327C4FE2320F700832704FE23A20702C3
:100D10006F004003832704FE03A74702B707008044
:100D200093C7C7FF63E0E702832704FE83A7470258
:100D300013871700832704FE23A2E702832704FEFC
:100D400083A7470283A70186138507000324C102F6
:100D50001301010367800000130101FE232E8100AF
:100D6000130401022326A4FE2324B4FE6F00C00155
:100D7000032784FEB7470000B377F70063860700B8
:100D8000930750FF6F0000038327C4FE03A74703A8
:100D90008327C4FE83A70703630CF7008327C4FEE1
:100DA00003A747028327C4FE83A74700E362F7FC3B
:100DB00093070000138507000324C10113010102FA
:100DC00067800000130101FD232681021304010343
:100DD000232EA4FC232CB4FC232AC4FC930770FE0E
:100DE0002324F4FE032784FDB7770000938717A020
:100DF000630CF700032784FDB7770000938727A0D3
:100E00006302F7066F00C00A8327C4FD03A74700EB
:100E1000B707008093C7F7FF6306F708832744FDF1
:100E200083A707002326F4FE0327C4FE93071000C0
:100E300063DEE7000327C4FEB707008093C7F7FF10
:100E40006306F7008327C4FE6F00C000B707008069
:100E500093C7E7FF0327C4FD2322F700232404FEE2
:100E60006F0040048327C4FD03A74700B707008035
:100E700093C7F7FF630CF7028327C4FD03A747025C
:100E80008327C4FD83A74700B337F70093F7F70F15
:100E900013870700832744FD23A0E700232404FED3
:100EA0006F00C000130000006F00800013000000FE
:100EB000832784FE138507000324C1021301010365
:100EC00067800000130101FC232E1102232C8102F4
:100ED000130401042326A4FC2324B4FC2322C4FC11
:100EE0002320D4FC832784FC2328F4FC6F00801289
:100EF0008327C4FC83A78702232CF4FC8327C4FC2C
:100F000083A7C702232EF4FC032784FD8327C4FD97
:100F1000636CF700032784FD8327C4FDB307F74004
:100F2000232AF4FC6F008001B717000013870780A5
:100F30008327C4FDB307F740232AF4FC832744FD2D
:100F4000638E0706832744FC032744FD63F6E7000E
:100F5000832744FC232AF4FC8327C4FC13878703DC
:100F60008327C4FDB307F700032644FD93850700DC
:100F7000032504FDEF208054032704FD832744FD4F
:100F8000B307F7002328F4FC032744FC832744FD20
:100F9000B307F7402322F4FC0327C4FD832744FD55
:100FA000B307F70013F7F77F8327C4FC23A6E702F4
:100FB000832744FCE34EF0F26F0080001300000032
:100FC000032704FD832784FC631CF704032704FC28
:100FD000B7470000B377F7006398070413000000D9
:100FE0008327C4FC83A78702032784FD631CF700C3
:100FF0008327C4FC03A747028327C4FC83A74700B9
:10100000E360F7FE8327C4FC83A78702032784FDE0
:101010006300F702832744FCE34CF0EC6F0080018F
:10102000130000006F000001130000006F0080003B
:1010300013000000032704FD832784FC6304F706E4
:1010400093078000F3B707302326F4FE8327C4FEFE
:101050002320F4FE8327C4FC83A7070213E71700AD
:101060008327C4FC23A0E7028327C4FC83A70702CD
:101070002322F4FE8327C4FC83A70700938747003D
:1010800013870700832744FE2320F700832704FEED
:101090002324F4FE832784FE93F7870073A0073090
:1010A00013000000032704FD832784FC630AF70074
:1010B000032704FD832784FCB307F7406F00000279
:1010C000032704FCB7470000B377F70063860700E7
:1010D000930750FF6F0080009307B0FF1385070050
:1010E0008320C103032481031301010467800000EE
:1010F000130101FC232E1102232C8102130401048D
:101100002326A4FC2324B4FC2322C4FC2320D4FCE7
:10111000232804FC832784FC232CF4FC6F00C00EDE
:101120008327C4FC83A70703232EF4FC8327C4FC76
:1011300083A747032328F4FC0327C4FD832704FD6A
:10114000637EF700032704FD8327C4FDB307F74040
:101150009387F7FF232AF4FC6F004003832704FDE5
:10116000638E0700B7170000138707808327C4FD2D
:10117000B307F740232AF4FC6F0040011307F07F08
:101180008327C4FDB307F740232AF4FC832744FDDB
:1011900063820708832744FC032744FD63F6E700C6
:1011A000832744FC232AF4FC0327C4FCB717000060
:1011B000938787833307F7008327C4FDB307F700BE
:1011C000032644FD832584FC13850700EF20002FB0
:1011D000032784FC832744FDB307F7002324F4FC92
:1011E000032744FC832744FDB307F7402322F4FC84
:1011F0000327C4FD832744FDB307F70013F7F77FE8
:101200008327C4FC23A8E702832744FCE34AF0F0C9
:101210006F0080001300000093078000F3B70730D1
:101220002326F4FE8327C4FE2320F4FE8327C4FC78
:1012300083A7070213E727008327C4FC23A0E70244
:101240008327C4FC83A707022322F4FE8327C4FC60
:1012500083A707009387470013870700832744FE6F
:101260002320F700832704FE2324F4FE832784FE33
:1012700093F7870073A0073013000000832744FC16
:101280006354F004032704FCB7470000B377F7006A
:1012900063920704130000008327C4FC83A747035D
:1012A000032704FD631CF7008327C4FC03A7470240
:1012B0008327C4FC83A74700E360F7FE8327C4FCB1
:1012C00083A74702639C0700832744FCE34EF0F2A8
:1012D0006F000001130000006F0080001300000089
:1012E000032784FC832784FD630AF700032784FC1B
:1012F000832784FDB307F7406F000002032704FC37
:10130000B7470000B377F70063860700930750FFE5
:101310006F0080009307B0FF138507008320C1038F
:10132000032481031301010467800000130101FD00
:10133000232611022324810213040103232EA4FC7B
:10134000232CB4FC232AC4FC8327C4FD83A70700F5
:101350002326F4FE8327C4FE138787028327C4FD58
:1013600083A7870093860700032644FD832584FD19
:1013700013050700EF008050930705001385070051
:101380008320C1020324810213010103678000004E
:10139000130101FD232611022324810213040103FA
:1013A000232EA4FC232CB4FC232AC4FC8327C4FDD5
:1013B00083A707002326F4FE8327C4FE1387870232
:1013C0008327C4FD83A7870093860700032644FD77
:1013D000832584FD13050700EF00006D93070500CA
:1013E000138507008320C102032481021301010336
:1013F00067800000130101FD2326110223248102CE
:1014000013040103232EA4FC8327C4FD83A7070034
:101410002326F4FE8327C4FE138787028327C4FD97
:1014200083A787009385070013050700EF00803B23
:1014300093070500138507008320C102032481025E
:101440001301010367800000130101FD232611022F
:101450002324810213040103232EA4FC232CB4FCB7
:10146000232AC4FC8327C4FD83A707002322F4FE9C
:1014700093070000639A0700930700006396070034
:101480009307000063860700930710006F00800039
:10149000930700002324F4FE832784FE6396070449
:1014A0008327C4FD37170000130707C823A2E700EE
:1014B0008327C4FD83A747002326F4FE832744FE29
:1014C0009387C7000327C4FE23A0E700130700008B
:1014D0008326C4FDB71700001386074A832544FD01
:1014E000032584FDEFF08F81130000008320C102EB
:1014F000032481021301010367800000130101FC32
:10150000232E1102232C8102130401042326A4FCA0
:101510008327C4FC232CF4FC832784FD83A70700C6
:10152000232EF4FC8327C4FD9387870083A707003D
:101530002320F4FE832704FE2322F4FE232404FE4A
:101540008327C4FD93878700032784FE23A0E70039
:101550008327C4FD9387870083A707002326F4FE13
:10156000832744FE93F7070863880700832544FE1A
:10157000032584FDEF000003832744FE93F707440F
:1015800063880700832544FE032584FDEF000010D7
:10159000130000008320C10303248103130101040D
:1015A00067800000130101FD23268102130401035B
:1015B000232EA4FC232CB4FC832784FD93F737004F
:1015C000639E070A8327C4FD83A7C7008327C4FD42
:1015D00083A787008327C4FD83A7C70093871700CD
:1015E00093F7F7032322F4FE8327C4FD83A70700A4
:1015F00083A707002324F4FE032784FE8327C4FD6A
:1016000083A7C7001377F70F8326C4FDB387F600BF
:10161000238EE7008327C4FD032744FE23A6E700AB
:101620008327C4FD83A7C7009387170093F7F703A9
:101630002322F4FE8327C4FD83A78700032744FEEB
:101640006310F7048327C4FD83A7470013F7F7F758
:101650008327C4FD23A2E7008327C4FD83A7470097
:101660002326F4FE8327C4FD83A707009387C700C2
:101670000327C4FE23A0E7006F00800013000000D2
:101680000324C1021301010367800000130101FD5F
:101690002326810213040103232EA4FC232CB4FC73
:1016A0008327C4FD03A707018327C4FD83A7470140
:1016B000630EF70C8327C4FD83A7870193F72700E8
:1016C000638C0700032784FDB7170000938707800A
:1016D000B377F700638A07068327C4FD83A7070152
:1016E0008327C4FD83A747018327C4FD83A7070180
:1016F0000327C4FDB307F70083C7C70593F7F70FA8
:101700002324F4FE8327C4FD83A7070093874700A3
:10171000032784FE23A0E7008327C4FD83A70701D6
:101720009387170013F7F7038327C4FD23A8E70067
:101730008327C4FD83A7470013E707048327C4FD5D
:1017400023A2E7006F0080048327C4FD83A707005E
:101750009387870083A707002322F4FE832744FE94
:10176000232CF4FC032784FDB71700009387078020
:10177000B377F700639C07008327C4FD83A7470066
:1017800013F7F7FB8327C4FD23A2E7008327C4FDDB
:1017900003A707018327C4FD83A74701631CF70044
:1017A0008327C4FD83A7470013F7F7BB8327C4FD36
:1017B00023A2E7008327C4FD83A747002326F4FE66
:1017C0008327C4FD83A707009387C7000327C4FEB0
:1017D00023A0E700130000000324C102130101034A
:1017E00067800000130101FE232E81001304010213
:1017F0002326A4FE2324B4FE6F00C001032784FE29
:10180000B7470000B377F70063860700930750FFE0
:101810006F00C0018327C4FE03A707018327C4FE0E
:1018200083A74701E31CF7FC93070000138507001B
:101830000324C1011301010267800000130101FFAD
:1018400023261100232481001304010183A7418171
:10185000638A070083A74181E7800700930705009B
:101860006F00800093878187138507008320C10064
:10187000032481001301010167800000130101FBB3
:10188000232611042324810413040105232EA4FA22
:10189000232CB4FA232AC4FA2328D4FAA30504FC7F
:1018A000232604FC032704FBB7470000B377F700A7
:1018B00093B7170093F7F70F2328F4FC6F00000588
:1018C0008327C4FC938717002326F4FC8327C4FBDB
:1018D00003A78700832784FB93861700232CD4FA61
:1018E0008326C4FB3387E6000347C7011377F70F4E
:1018F0002380E7008327C4FB83A787009387170013
:1019000013F7F7038327C4FB23A4E7000327C4FCD2
:10191000832744FB635CF7008327C4FB03A787008E
:101920008327C4FB83A7C700E31CF7F88327C4FC05
:101930006390070A8327C4FB03A787008327C4FBA0
:1019400083A7C7006316F708832704FD6390070287
:10195000EFF0DFEE130705009307B0002320F70038
:1019600093071000A305F4FC6F0080079307800025
:10197000F3B707302322F4FE832744FE232AF4FC26
:101980008327C4FB83A7470013E707088327C4FB0B
:1019900023A2E7008327C4FB83A74700232CF4FC82
:1019A0008327C4FB83A707009387C700032784FD11
:1019B00023A0E700832744FD2320F4FE832704FEB1
:1019C00093F7870073A00730130000001300000096
:1019D0008327C4FC63960700832744FBE39807F240
:1019E00093078000F3B707302326F4FE8327C4FE55
:1019F000232AF4FC8327C4FB83A7470013E70708C7
:101A00008327C4FB23A2E7008327C4FB83A74700E7
:101A1000232EF4FC8327C4FB83A707009387C7000A
:101A20000327C4FD23A0E700832744FD2324F4FEFD
:101A3000832784FE93F7870073A00730130000000C
:101A40008347B4FC63860700930750FF6F00800054
:101A50008327C4FC138507008320C1040324810469
:101A60001301010567800000130101FF2326110007
:101A7000232481001304010183A74181638A0700A5
:101A800083A74181E7800700930705006F0080006E
:101A900093878187138507008320C1000324810079
:101AA0001301010167800000130101FB23261104CB
:101AB0002324810413040105232EA4FA232CB4FA51
:101AC000232AC4FA2328D4FA832744FB2324F4FCD2
:101AD000032704FBB7470000B377F7002326F4FC85
:101AE0006F00400F8327C4FB83A74701938717002C
:101AF00093F7F7032328F4FC8327C4FB83A707018C
:101B0000032704FD631AF7088327C4FC638C0700CE
:101B1000EFF09FF5130705009307B0002320F700AF
:101B20006F00C00B93078000F3B707302322F4FE49
:101B3000832744FE232AF4FC8327C4FB83A74700A2
:101B400013E707448327C4FB23A2E7008327C4FBD2
:101B500083A74700232CF4FC8327C4FB83A707003B
:101B60009387C700032784FD23A0E700832744FD54
:101B70002320F4FE832704FE93F7870073A0073029
:101B800013000000130000008327C4FB83A7070194
:101B9000032704FDE308F7FE832784FC9387F7FF00
:101BA0002324F4FC832784FB13871700232CE4FAF7
:101BB0000327C4FB8326470103C707008327C4FB11
:101BC000B387D700238EE7048327C4FB032704FDD4
:101BD00023AAE700832784FCE39607F0930780009D
:101BE000F3B707302326F4FE8327C4FE232AF4FC30
:101BF0008327C4FB83A7470013E707448327C4FB5D
:101C000023A2E7008327C4FB83A74700232EF4FC0D
:101C10008327C4FB83A707009387C7000327C4FD5E
:101C200023A0E700832744FD2324F4FE832784FEBA
:101C300093F7870073A0073013000000032744FBCD
:101C4000832784FCB307F740138507008320C10472
:101C5000032481041301010567800000130101FCC6
:101C6000232E1102232C8102130401042326A4FC39
:101C70002324B4FC232C04FC232E04FC232004FE88
:101C8000232204FE8327C4FC639607009307A0FE6B
:101C90006F00800D8327C4FC232EF4FC832784FC73
:101CA00093978700232CF4FC832784FD93E7370068
:101CB000232CF4FC832784FD2324F4FE8327C4FD16
:101CC00083A7070C9387C70013870700832784FE29
:101CD0002320F7000325C4FDEF0050242322A4FE97
:101CE000832744FE63860700832744FE6F00C007F6
:101CF0008327C4FD83A7070C83A707002326F4FED0
:101D00008327C4FE2322F4FE832744FE93D7274073
:101D100093F77700032704FEB367F7002320F4FE50
:101D2000832744FE93D7374093F78700032704FEA9
:101D3000B367F7002320F4FE832744FE93D71740B0
:101D400093F70701032704FEB367F7002320F4FE8F
:101D5000032704FE832784FC6306F700930720FD16
:101D60006F00800093070000138507008320C103E4
:101D7000032481031301010467800000130101FDA6
:101D80002326810213040103232EA4FC232CB4FC7C
:101D9000232AC4FC232604FE8327C4FD638A07008C
:101DA000832784FD63860700832744FD639607002D
:101DB0009307A0FE6F0040048327C4FD2326F4FE92
:101DC0008327C4FE03A70703832744FD23A0E7005E
:101DD0008327C4FE83A70703639607009307B0FF1A
:101DE0006F0080018327C4FE13874703832784FD88
:101DF00023A0E70093070000138507000324C10216
:101E00001301010367800000130101FC232E11025E
:101E1000232C8102130401042326A4FC2324B4FCF4
:101E2000232A04FC232C04FC232E04FC232004FE80
:101E30008327C4FC639607009307A0FE6F00800F02
:101E40008327C4FC232EF4FC832784FC63C607028B
:101E50008327C4FD03A7470C832784FC63FEE700A8
:101E60008327C4FD83A7070D1387F7FF832784FC0F
:101E7000B377F700638607009307A0FE6F00800B1F
:101E8000032784FC8327C4FD83A7070D93850700E0
:101E900013050700EF504007930705002320F4FEC9
:101EA000832704FE13978700B7070001938707F085
:101EB000B377F700232CF4FC832784FD93E72700F6
:101EC000232CF4FC832784FD2322F4FE8327C4FD06
:101ED00083A7070C9387C70013870700832744FE57
:101EE0002320F7008327C4FD83A7070C93870701EE
:101EF00083A707002324F4FE832784FE13F717002B
:101F0000930710006316F702930710002326F4FED0
:101F10008327C4FD83A7070C938707011387070056
:101F20008327C4FE2320F7009307B0FF6F008000D3
:101F3000832744FD138507008320C1030324810305
:101F40001301010467800000130101FA232E11041C
:101F5000232C810413040106232EA4FA232CB4FAA3
:101F6000232AC4FA2328D4FA2326E4FA03A7C18734
:101F70002326E4FE13070000232404FC8327C4FA6D
:101F80002326F4FC832744FB2328F4FC8327C4FB8B
:101F9000232EF4FC832784FB63CE0706832744FBB0
:101FA00063CA07068327C4FB63860706832704FBEF
:101FB000638207068327C4FD03A7470C832744FBDE
:101FC00063FAE7048327C4FD03A7470C832784FB38
:101FD00063F2E7048327C4FD83A7070D832644FB30
:101FE000032784FB3387E6403387E7408327C4FA1F
:101FF0006362F7028327C4FA63CE07008327C4FD18
:1020000083A7070D1387F7FF832784FBB377F700B8
:10201000638C07149307A0FE6F00C0159307F0FFB1
:102020002322F4FC232A04FC93074000232CF4FC15
:10203000832704FD93F73700638C0704832704FD8F
:1020400093F73700232AF4FC032784FD832744FDFC
:10205000B307F740232CF4FC032784FD8327C4FC3B
:1020600063F6E7008327C4FC232CF4FC032704FD5C
:10207000832744FDB307F7402328F4FC832704FD9E
:1020800093F73700638007029307A0FE6F00800E6E
:10209000032784FD8327C4FC63F6E7008327C4FC81
:1020A000232CF4FC130744FC832744FDB306F700FC
:1020B000032704FB832784FCB307F700032684FD72
:1020C0009385070013850600EF10403F032784FC2B
:1020D000832784FDB307F7002324F4FC0327C4FC03
:1020E000832784FDB307F7402326F4FC832744FCB1
:1020F0002320F4FE8327C4FD03A7870B832704FD59
:10210000B307F70013870700832704FE2320F70097
:102110008327C4FD83A7070C9387070183A70700C4
:102120002322F4FE832744FE13F7270093072000A1
:102130006316F702930720002324F4FE8327C4FDCF
:1021400083A7070C9387070113870700832784FE63
:102150002320F7009307B0FF6F00C001832704FD21
:10216000938747002328F4FC8327C4FCE39807EAFD
:1021700093070000138707008326C4FE83A7C18747
:10218000B3C7F6009306000063840700EF10C07B1E
:10219000130507008320C1050324810513010106EF
:1021A00067800000130101FB23261104232481040E
:1021B00013040105232EA4FA232CB4FA232AC4FA0B
:1021C0002328D4FA232604FC232204FE832784FB3D
:1021D0002328F4FC832704FB232AF4FC232C04FC8F
:1021E000232E04FC8327C4FB63860700832744FB5C
:1021F000639607009307A0FE6F0080178327C4FB38
:102200002322F4FE832784FB032704FB1306070025
:1022100093850700032544FEEF0080462326A4FC97
:102220008327C4FC638607008327C4FC6F00401427
:10223000032784FB832744FE83A7070D93850700AC
:1022400013050700EF40504C93070500232EF4FCC4
:102250006F004010232404FE232004FE232604FEE6
:10226000832744FD63820710832744FE83A7070D5D
:10227000B307F040032704FDB377F7002324F4FEEF
:10228000032784FE832704FD630AF700032704FD68
:10229000832784FEB307F7402320F4FE832784FEC0
:1022A000938507000325C4FBEFF01FB62326A4FC8B
:1022B0008327C4FC638607008327C4FC6F00400BA0
:1022C000832744FE03A7070D832704FE3307F74047
:1022D000832744FD6374F700930707002326F4FE69
:1022E000832584FE032604FD032744FB832784FD06
:1022F000B307F7000327C4FE938607000325C4FB3A
:10230000EFF09FC42326A4FC8327C4FC6386070048
:102310008327C4FC6F00C005032744FD8327C4FE48
:10232000B307F740232AF4FC032784FD8327C4FE68
:10233000B307F700232CF4FC032704FD8327C4FE16
:10234000B307F7002328F4FC8327C4FD9387170005
:10235000232EF4FC832744FE83A7C70C0327C4FD68
:10236000E36AF7EE6F008000130000008327C4FCCF
:10237000138507008320C104032481041301010590
:1023800067800000130101FD23261102232481022E
:1023900013040103232EA4FC232CB4FC232AC4FC25
:1023A0002328D4FC232404FE232604FE8327C4FD13
:1023B00063860700832744FD639607009307A0FE0A
:1023C0006F00C0058327C4FD2326F4FE832784FD08
:1023D000032704FD13060700938507000325C4FEA9
:1023E000EF00002A2324A4FE832784FE63960702BD
:1023F0008327C4FE03A7870B832784FDB307F70059
:1024000013870700832704FD138607009305070041
:10241000032544FDEF10800A832784FE13850700FF
:102420008320C1020324810213010103678000009D
:10243000130101FC232E1102232C81021304010439
:102440002326A4FC232E04FC232204FE232004FEC6
:102450008327C4FC639607009307A0FE6F0000214A
:102460008327C4FC83A7070C639607009307D0FE5D
:102470006F00C01F8327C4FC83A7870C639A070AD9
:102480008327C4FC83A7070C9387870083A70700D3
:102490002326F4FE8327C4FE232EF4FC8327C4FDE9
:1024A00093F7F70F232EF4FC8327C4FD9387B7FE21
:1024B0001307C000636AF70613972700B787000069
:1024C000938747E2B307F70083A7070067800700F9
:1024D000930700022320F4FE6F00000E9307000410
:1024E0002320F4FE6F00400D930700082320F4FE24
:1024F0006F00800C930700102320F4FE6F00C00BC8
:10250000930700202320F4FE6F00000B9307004088
:102510002320F4FE6F00400AB7170000938707805E
:102520002320F4FE6F0040099307D0FE6F000014D3
:102530008327C4FC83A7070C9387470083A7070062
:102540002324F4FE832784FE232EF4FC8327C4FD7A
:1025500093F7F70F232EF4FC0327C4FD93078001A4
:102560006302F7040327C4FD9307800163E2E704D5
:102570000327C4FD93074001630AF7000327C4FD46
:1025800093076001630AF7006F008002930700025F
:102590002320F4FE6F004002930700082320F4FE7E
:1025A0006F008001930700102320F4FE6F00C0002D
:1025B0009307D0FE6F00800B8327C4FC83A7070D11
:1025C00093850700032504FEEF4050119307050093
:1025D0002322F4FE8327C4FC83A7470C032744FE71
:1025E000631AF7008327C4FC83A7C70C032704FEE4
:1025F000630AF7008327C4FC23A807029307D0FED1
:102600006F00C0068327C4FC0327C4FD23ACE70C7E
:102610008327C4FC032704FE23A6E70C8327C4FCFE
:102620001307100023A8E7028327C4FC23AA07028C
:10263000032744FE8327C4FC23ACE702032704FEE0
:102640008327C4FC23AEE7028327C4FC83A7070DBE
:10265000138707008327C4FC23A0E7048327C4FC57
:1026600013850700EF000060930700001385070043
:102670008320C10303248103130101046780000048
:10268000130101FD2326810213040103232EA4FC60
:10269000232CB4FC232AC4FC232204FE232404FE9E
:1026A000232604FE8327C4FD639607009307A0FE3C
:1026B0006F00C0058327C4FD2322F4FE832744FE58
:1026C00083A7870B032784FDB307F7002324F4FEB9
:1026D000032784FE832744FDB307F7002326F4FE77
:1026E000832744FE83A7C70B032784FE637AF70082
:1026F000832744FE03A7C70B8327C4FE6376F70036
:102700009307A0FE6F008000930700001385070069
:102710000324C1021301010367800000130101FDBE
:10272000232611022324810213040103232EA4FC77
:10273000B7B70A00938707E62324F4FE231304FEA9
:102740008327C4FD639A07029307A0FE6F0000056C
:1027500013051000EF00C01B835764FE032784FE9F
:1027600063E6E700930720FC6F004003835764FE95
:10277000938717002313F4FE8327C4FD83A7070C58
:1027800083A707002326F4FE8327C4FE13F7170050
:1027900093071000E30EF7FA930700001385070074
:1027A0008320C1020324810213010103678000001A
:1027B000130101FC232E8102130401042326A4FC2F
:1027C0002324B4FC2322C4FC2320D4FC13070000E0
:1027D000930700002324E4FE2326F4FE83A701864A
:1027E000638E07108327C4FC638607108327C4FC0D
:1027F000032744FC23A8E7008327C4FC032704FC29
:1028000023AAE70093078000F3B707302322F4FEE2
:10281000832744FE232AF4FC03A7818683A7C1866D
:102820002324E4FE2326F4FE832784FC1388070078
:1028300093080000032684FE8326C4FE3307C800E5
:1028400093050700B3B50501B387D800B386F5003B
:1028500093870600130607009386070013051000F0
:10286000930500003307A600130807003338C8009B
:10287000B387B600B306F800938706008326C4FC2E
:1028800023A4E60023A6F6008327C4FC1387018255
:10289000232EE4FC2320F4FE832704FE0327C4FD3B
:1028A00023A2E7008327C4FD03A70700832704FEB4
:1028B00023A0E7008327C4FD83A70700032704FEA6
:1028C00023A2E7008327C4FD032704FE23A0E7001B
:1028D00013000000832744FD232CF4FC832784FD90
:1028E00093F7870073A007301300000093070000E0
:1028F0006F0000019307A0FE6F0080009307A0F710
:10290000138507000324C10313010104678000003D
:10291000130101FD23261102232481021304010364
:10292000232EA4FCEF0080740327C4FD9307070047
:1029300093971700B387E70093973700B387E700B3
:10294000939727002324F4FE232604FE130000009F
:10295000EF00807513070500938705008326C4FEEA
:1029600013860700E366D6FE8326C4FE138607009F
:102970006398C600832684FE93070700E3EAD7FC2A
:1029800093070000138507008320C10203248102FE
:102990001301010367800000130101FE232E810053
:1029A000130401022326A4FE2324B4FE2322C4FE22
:1029B000832744FE138507000324C101130101028C
:1029C00067800000130101FE232E1100232C8100DB
:1029D000130401022326A4FEB7A70000938507A8CD
:1029E0000325C4FEEF00C00593070500138507000B
:1029F0008320C101032481011301010267800000CB
:102A0000130101FF23261100232481001304010177
:102A100083A74181638A070083A74181E78007007C
:102A2000930705006F008000938781871385070057
:102A30008320C1000324810013010101678000008D
:102A4000130101FD23261102232481021304010333
:102A5000232EA4FC232CB4FC8327C4FD6388070029
:102A60008327C4FD83A78700639E0700EFF05FF90B
:102A700013070500930760012320F7009307A0FECA
:102A80006F0040058327C4FD032784FD2324E4FE53
:102A90002326F4FE8327C4FE032784FE23A2E70037
:102AA000832784FE03A707008327C4FE23A0E70033
:102AB000832784FE83A707000327C4FE23A2E70021
:102AC000832784FE0327C4FE23A0E7001300000031
:102AD00093070000138507008320C10203248102AD
:102AE0001301010367800000130101FE232E110072
:102AF000232C810013040102B7870000938707D4B9
:102B00002326F4FE6F00C0018327C4FE83A70700BD
:102B1000E78007008327C4FE9387C7FF2326F4FEC0
:102B20000327C4FEB78700009387C7D3E37EF7FC73
:102B300013000000130000008320C1010324810161
:102B40001301010267800000130101FE232E110012
:102B5000232C810013040102B7870000938707D458
:102B60002326F4FE6F00C0018327C4FE83A707005D
:102B7000E78007008327C4FE9387C7FF2326F4FE60
:102B80000327C4FEB7870000938747D4E37EF7FC92
:102B900013000000130000008320C1010324810101
:102BA0001301010267800000130101FD23261102B9
:102BB0002324810213040103232EA4FC9385818125
:102BC0000325C4FDEF0000792326A4FE8327C4FE5D
:102BD000638607028327C4FE83A7C70063800702BA
:102BE0008327C4FE83A7C7008325C4FD0325C4FE35
:102BF000E7800700930705006F0080008327C4FE6D
:102C0000138507008320C1020324810213010103FD
:102C100067800000130101FE232E1100232C810088
:102C2000130401022326A4FE8327C4FE6382070245
:102C30008327C4FE83A70701638C07008327C4FE94
:102C400083A707010325C4FEE780070013000000E7
:102C5000130000008320C10103248101130101023C
:102C600067800000130101FE232E1100232C810038
:102C7000130401022326A4FE938581810325C4FE4B
:102C8000EFF01FDC93070500138507008320C101C7
:102C9000032481011301010267800000130101FD7B
:102CA000232611022324810213040103232EA4FCF2
:102CB000232CB4FC232AC4FC2328D4FC032604FDC3
:102CC000832544FD032584FDEF00505D2326A4FEEB
:102CD0008327C4FE63C80708B79700009386870C54
:102CE0000327C4FE9307070093971700B387E700F5
:102CF00093972700B387F60003A707008327C4FD37
:102D000023A0E700B79700009386870C0327C4FE33
:102D10009307070093971700B387E700939727005F
:102D2000B387F60003A747008327C4FD23A2E7006B
:102D3000B79700009386870C0327C4FE930707000C
:102D400093971700B387E70093972700B387F600A0
:102D500003A787008327C4FD23A4E7000325C4FE3F
:102D6000EF000009130000008320C1020324810248
:102D70001301010367800000130101FE232E1100DF
:102D8000232C8100130401022326A4FE2324B4FE75
:102D90002322C4FE9306F01F130610008325C4FEF1
:102DA000B79700001385470DEFF05FEF9306F01F14
:102DB00013060000832584FEB79700001385870C57
:102DC000EFF0DFED9306F01F13061000832544FE9D
:102DD000B79700001385070EEFF05FEC13000000BB
:102DE0008320C101032481011301010267800000D7
:102DF000130101FE232E8100130401022326A4FEE9
:102E00000327C4FE9307200063D6E704B7970000AA
:102E10009386870C0327C4FE930707009397170038
:102E2000B387E70093972700B387F60023A4070032
:102E3000B79700009386870C0327C4FE930707000B
:102E400093971700B387E70093972700B387F6009F
:102E500023A00700130000000324C1011301010295
:102E600067800000130101FD232681021304010382
:102E7000232EA4FC93078000F3B707302326F4FE2B
:102E80008327C4FE2320F4FE8327C4FD2324F4FEFD
:102E9000832784FE83A70700032784FE03274700B8
:102EA00023A2E700832784FE83A74700032784FE2D
:102EB0000327070023A0E700832784FE032784FE5F
:102EC00023A2E700832784FE032784FE23A0E700D4
:102ED00013000000832704FE2322F4FE832744FE10
:102EE00093F7870073A00730130000001300000061
:102EF0000324C1021301010367800000130101FED6
:102F0000232E1100232C8100232A210123283101A3
:102F1000130401029387018283A707002322F4FE92
:102F200003A7818683A7C1861305100093050000BF
:102F30003306A700130806003338E800B386B7004D
:102F4000B307D8009386070013070600938706008F
:102F500023A4E18623A6F1866F00400C832744FE5C
:102F600083A707002324F4FE832744FE03A68700DB
:102F700083A6C70003A7818683A7C18613850600A1
:102F80009385070063E8A50813850600938507006D
:102F90006318B500930606009307070063ECD70695
:102FA000832744FE83A70701032744FE0327470125
:102FB00013050700E78007002326A4FE8327C4FE2D
:102FC00063980700032544FEEFF0DFE96F008004FB
:102FD000832744FE03A7870083A7C7008326C4FE78
:102FE00013890600930900003306270193050600A4
:102FF000B3B5E500B3863701B387D50093860700E4
:103000001307060093870600832644FE23A4E600E8
:1030100023A6F600832784FE2322F4FE032744FE22
:1030200093870182E31CF7F21300000013000000F5
:103030008320C10103248101032941018329010166
:103040001301010267800000130101FF23268100A4
:10305000130401019307F0FF73B047301300000021
:103060000324C1001301010167800000130101FF67
:10307000232611002324810013040101EF00400ADC
:10308000130705009387050023A8E18623AAF1868C
:1030900093070000138507008320C10003248100EB
:1030A0001301010167800000130101FF23261100B5
:1030B0002324810013040101EF008006130605009C
:1030C0009386050003A5018783A541873307A640A2
:1030D0001308070033380601B387B640B3860741AB
:1030E0009387060013050700938507008320C1001E
:1030F000032481001301010167800000130101FF17
:103100002326810013040101B7E7F5059387071013
:10311000138507000324C10013010101678000002B
:10312000130101FE232E81001304010237038102E3
:103130001303C30003230300232464FE3703810227
:103140001303830003230300232664FE3703810255
:103150001303C30003230300032E84FEE3186EFC55
:10316000032384FE1308030093080000931708004C
:10317000130700000328C4FE13060800930600008E
:103180003365C700B3E5D700130705009387050033
:1031900013050700938507000324C10113010102F1
:1031A00067800000130101FE232E81001304010239
:1031B0002324A4FE2326B4FEB7068102938646008C
:1031C0001306F0FF23A0C600B7068102032684FE83
:1031D00023A0C6008326C4FE13D706009307000071
:1031E000B7068102938646009307070023A0F600E6
:1031F000130000000324C1011301010267800000D5
:10320000130101FE232E8100130401023703810202
:1032100003230300232464FE3703810213034300C6
:1032200003230300232664FE0323C4FE13080300C4
:10323000930800009317080013070000032884FE7A
:1032400013060800930600003365C700B3E5D700F6
:1032500013070500938705001305070093850700F2
:103260000324C1011301010267800000130101FC66
:10327000232E1102232C8102130401042326A4FC13
:103280002324B4FC2322C4FCEFF09FE92324A4FEF2
:103290002326B4FE032784FE8327C4FE378501005E
:1032A0001305056A930500003306A70013080600FE
:1032B0003338E800B386B700B307D8009386070019
:1032C0001307060093870600130507009385070080
:1032D000EFF05FED93078000F3B707302322F4FE91
:1032E000832744FE232EF4FCEFF05FC18327C4FD47
:1032F0002320F4FE832704FE93F7870073A0073092
:1033000013000000130000008320C1030324810385
:103310001301010467800000130101FF232611003F
:1033200023248100130401011305F0FF9305F0FF2E
:10333000EFF05FE79307000873A047301300000029
:10334000130000008320C100032481001301010148
:1033500067800000130101FD23268102130401038D
:10336000232EA4FC232CB4FC232204FE232404FEDD
:103370009307803E2326F4FE832784FD639607008F
:10338000930700006F00000E832784FD83A70700CA
:103390002322F4FE6F00000C232404FE6F00800340
:1033A000832744FE03A78700832784FEB307F70023
:1033B00003C70700832784FE8326C4FDB387F60076
:1033C00083C707006316F704832784FE93871700DB
:1033D0002324F4FE832784FE0327C4FDB307F700EC
:1033E00083C7070063880702832744FE03A787007B
:1033F000832784FEB307F70083C70700638C0700A9
:10340000032784FE8327C4FEE34CF7F86F00800097
:1034100013000000832784FE0327C4FDB307F700D1
:1034200083C7070063920702832744FE03A7870030
:10343000832784FEB307F70083C70700639607005E
:10344000832744FE6F000002832744FE83A7070002
:103450002322F4FE032744FE832784FDE31EF7F2B4
:1034600093070000138507000324C1021301010321
:103470006780000093050500930600001306000016
:10348000130500006F00006D130101FF930500009C
:10349000232481002326110013040500EF00007A85
:1034A00017550000032545A58327C503638407003E
:1034B000E780070013050400EF30D041B347B500A3
:1034C00093F73700B308C5006394070693073000ED
:1034D00063F0C7069377350013070500639A070664
:1034E00013F6C8FFB306E6409307000263CED70881
:1034F00093860500930707006378C70203A80600B8
:10350000938747009386460023AE07FFE3E8C7FE94
:103510009307F6FFB387E74093F7C7FF938747000A
:103520003307F700B385F500636817016780000073
:10353000130705006378150583C7050013071700F7
:1035400093851500A30FF7FEE398E8FE678000005F
:1035500083C605001307170093773700A30FD7FE24
:1035600093851500E38E07F683C605001307170041
:1035700093773700A30FD7FE93851500E39A07FCD6
:103580006FF01FF667800000130101FF2326810002
:103590001304000283A3050083A2450083AF8500C6
:1035A00003AFC50083AE050103AE450103A385014A
:1035B00003A8C50183A6050213074702B307E64027
:1035C000232E77FC232057FE2322F7FF2324E7FF37
:1035D0002326D7FF2328C7FF232A67FE232C07FFB4
:1035E000232ED7FE93854502E346F4FA9386050021
:1035F000930707006378C70203A806009387470074
:103600009386460023AE07FFE3E8C7FE9307F6FF65
:10361000B387E74093F7C7FF938747003307F70067
:10362000B385F500636817010324C100130101018C
:103630006780000083C705001307170093851500F6
:10364000A30FF7FEE382E8FE83C705001307170008
:1036500093851500A30FF7FEE39EE8FC6FF0DFFCF7
:10366000130101FD232481021304050013850500C5
:10367000232291022326110293840500EF00803853
:1036800013071500975600009386C6832326E10092
:103690008327840313070101232CD1002322E10097
:1036A000930610001307200023289100232AA1006D
:1036B000232ED1002324E10083248400638A070899
:1036C00003A744068397C400137717006316070007
:1036D00013F707206304070A1397270163420702C1
:1036E00003A74406B7260000B3E7D700B7E6FFFFFD
:1036F0009386F6FF3377D7002396F40023A2E406DF
:10370000130504001306410093850400EF00907E2A
:1037100083A7440613341500330480401374B400A7
:1037200093F717001304F4FF6398070083D7C400CE
:1037300093F70720638407028320C1021305040066
:1037400003248102832441021301010367800000E6
:1037500013050400EF00407A6FF09FF603A584057F
:10376000EF10805B8320C102130504000324810253
:1037700083244102130101036780000003A584052F
:10378000EF1000588397C4006FF01FF593050500F4
:1037900003A581826FF0DFEC130101FE23282101D4
:1037A00003A90500232C8100232A9100232E110058
:1037B00023263101232441011384050093040500CD
:1037C00063020904832909006388090203AA090026
:1037D000630E0A0083250A0063840500EFF0DFFB17
:1037E00093050A0013850400EF00904093850900BB
:1037F00013850400EF00D03F9305090013850400F2
:10380000EF00103F93050400032481018320C101D0
:10381000032901018329C100032A810013850400C3
:1038200083244101130101026F00903C83A7818230
:10383000638AA7108325C504130101FE232A910082
:10384000232E1100232C810023282101232631015E
:103850009304050063800504130900009309000820
:10386000B387250103A40700630E04009305040039
:103870000324040013850400EF009037E31804FECE
:1038800083A5C40413094900E31C39FD1385040012
:10389000EF00103683A50404638605001385040039
:1038A000EF00103503A48414630004021389C414C8
:1038B000630C240193050400032404001385040011
:1038C000EF001033E31889FE83A5440563860500E5
:1038D00013850400EF00D03183A7840363860704B7
:1038E00083A7C40313850400E780070003A4042E04
:1038F000630C04028325040063860500138504001D
:10390000EFF09FE993050400032481018320C101A6
:10391000032901018329C100138504008324410187
:10392000130101026F00D02C8320C1010324810107
:1039300083244101032901018329C10013010102EC
:103940006780000067800000974700009387C75793
:1039500083AF070003AF470083AE870003AEC70005
:1039600003A3070183A8470103A8870183A6470291
:1039700003A7870283A5C70103A6070283C7C7025F
:10398000130101FC13050100232E11022320F10174
:103990002322E1012324D1012326C1012328610030
:1039A000232A1101232C01012322D1022324E10225
:1039B0002306F102232EB1002320C102EF00800470
:1039C000130605009305010013052000EF00801188
:1039D00013056000EF2040631305F007EF30806FA0
:1039E000130101FF23261100EFF01FF69387C18713
:1039F00003A707006316070037070AFF23A0E700A5
:103A0000678000009377350013070500639C070467
:103A1000B7867F7F9386F6F79305F0FF03260700AE
:103A200013074700B377D600B387D700B3E7C700C3
:103A3000B3E7D700E384B7FE8346C7FFB307A740C9
:103A4000638406048346D7FF638C06020345E7FFC1
:103A50003335A0003305F5001305E5FF678000004E
:103A6000E38806FA834707001307170093763700A9
:103A7000E39807FE3307A7401305F7FF67800000B0
:103A80001385D7FF678000001385C7FF678000009C
:103A90009305050003A581826F00802F130101FCAF
:103AA0002324C1022326D102232AF1029306060011
:103AB00093078102138605009305050003A5818203
:103AC000232E11002328E102232C0103232E1103AE
:103AD0002326F100EF10104A8320C10113010104D5
:103AE0006780000093060600138605009305050015
:103AF00003A581826F004000130101FF13870500B9
:103B00002324810093050600130405001386060094
:103B10001305070023AC018623261100EF30D07671
:103B20009307F0FF630AF5008320C100032481009E
:103B3000130101016780000083A78187E38607FEE8
:103B40008320C1002320F40003248100130101011C
:103B500067800000130101FE232821011389C1821F
:103B6000232C81001304050003250900232A91005A
:103B70002326310123244101232E110093840500C3
:103B8000130A060093890600EF10801717470000FC
:103B900003278736832787146386070803A7470010
:103BA0009305F0010325090063C4E5089315270078
:103BB000631E04021307170023A2E700B387B700B0
:103BC00023A49700EF104015130500008320C101C6
:103BD0000324810183244101032901018329C100B8
:103BE000032A810013010102678000003388B700B7
:103BF0002324480983A68718130610003316E6000D
:103C0000B3E6C60023A4D718232438119306200056
:103C1000E312D4FA83A6C718B3E6C60023A6D718C2
:103C20006FF05FF99307C7142324F7146FF01FF7A1
:103C3000EF10800E1305F0FF6FF05FF9130101FD27
:103C400023267101938BC18223286101130B050088
:103C500003A50B0023202103232E3101232C410136
:103C6000232A5101232481012326110223248102C6
:103C70002322910223229101138C0500EF104008AA
:103C8000174A0000032A4A2703298A14930A1000BE
:103C90009309F0FF63080902832449001384F4FFA9
:103CA0006342040293942400B304990063080C0453
:103CB00083A74410638487051304F4FF9384C4FF2F
:103CC000E31634FF0324810203A50B008320C10205
:103CD00083244102032901028329C101032A8101AE
:103CE000832A4101032B0101832BC100032C810096
:103CF000832C4100130101036F1000028327490048
:103D000083A644009387F7FF638E870423A20400F1
:103D1000E38406FA8327891833978A00832C4900A5
:103D2000B377F70063920702E78006000327490094
:103D300083278A1463149701E38027F9E38407F843
:103D4000138907006FF05FF58327C91883A544081E
:103D50003377F700631C070013050B00E7800600AC
:103D60006FF0DFFC232289006FF09FFA13850500B6
:103D7000E78006006FF09FFB930700006388070051
:103D8000170500001305054E6FF0CFEE67800000A9
:103D9000130101FF2324810013040500138505008E
:103DA00023AC018623261100EF30C0249307F0FFD7
:103DB000630AF5008320C10003248100130101017F
:103DC0006780000083A78187E38607FE8320C10008
:103DD0002320F40003248100130101016780000007
:103DE000972500009385C57B6F00106583274506E6
:103DF00093F71700639807008357C50093F70720D0
:103E00006386070013050000678000000325850511
:103E1000130101FF23261100EF00906E8320C100E3
:103E20001305000013010101678000008327450688
:103E300093F71700639807008357C50093F707208F
:103E400063860700130500006780000003258505D1
:103E5000130101FF23261100EF00106C8320C10025
:103E6000130500001301010167800000130101FF29
:103E70009387F5FF23248100139417003304F40083
:103E8000131424003304F4001314340023202101FC
:103E9000138905009305440723229100232611006E
:103EA000EF00D06793040500630005021305C50009
:103EB00023A0040023A2240123A4A4001306840643
:103EC00093050000EF10407C8320C1000324810093
:103ED000032901001385040083244100130101011B
:103EE00067800000972500009385856B17450000CB
:103EF000032585006F005054130101FE232A910011
:103F0000930405001385018A232E1100232C8100C0
:103F10002328210123263101232441012322510199
:103F2000EF00105E83A784036398071403A4440082
:103F300017070000130707EB23AEE4029387C42E94
:103F40001307300023A2E42E23A4F42E23A0042E72
:103F5000930740002326F400130680009305000019
:103F60002320040023220400232404002322040627
:103F700023280400232A0400232C04001305C4056D
:103F8000EF108070972A0000938ACA36172A000023
:103F9000130A8A3C97290000938989441729000055
:103FA0001309894B13058405232E84002320540311
:103FB000232244032324340323262403EF005053F5
:103FC00003A48400B7070100938787002326F40029
:103FD0001306800093050000232004002322040020
:103FE000232404002322040623280400232A040097
:103FF000232C04001305C405EF1000691305840584
:10400000232E840023205403232244032324340337
:1040100023262403EF00D04D03A4C400B7070200F9
:10402000938727012326F4001306800093050000E0
:104030002320040023220400232404002322040656
:1040400023280400232A0400232C04001305C4059C
:10405000EF10806313058405232E8400232054036E
:10406000232244032324340323262403EF0050484F
:104070009307100023ACF402032481018320C101C3
:1040800083244101032901018329C100032A8100FE
:10409000832A41001385018A130101026F00D04772
:1040A000130101FE23263101930905001385C189FF
:1040B00023282101232E1100232C8100232A910083
:1040C000EF00104417490000032909E383278903FF
:1040D000638E070A1309092E9304F0FF8327490012
:1040E000032489009387F7FF63D807006F00000956
:1040F00013048406638497080317C4009387F7FFAB
:10410000E31807FEB707FFFF938717002326F40085
:104110001305840523220406EF00903D1385C18911
:10412000EF00903F130680002320040023240400A6
:104130002322040023280400232A0400232C040043
:10414000930500001305C405EF1000542328040252
:10415000232A040223220404232404048320C1010B
:104160001305040003248101832441010329010173
:104170008329C100130101026780000003240900A4
:10418000630C0400130904006FF05FF513050900C8
:10419000EFF09FD66FF01FF49305C01A1385090046
:1041A000EF00D03713040500630805021305C500AE
:1041B00093074000232004002322F4002324A400BA
:1041C0001306001A93050000EF10004C232089000D
:1041D000130904006FF09FF0232009001385C189A3
:1041E000EF0090339307C00023A0F9006FF01FF792
:1041F0001385C1896F00D0301385C1896F00D0311C
:104200001385018A6F00D02F1385018A6F00D0308B
:10421000130101FF1385C18923261100EF00502EE1
:104220008320C10003A5818297050000938545BCCA
:10423000130101016F001016130101FF9705000023
:10424000938505BF03A5818223261100EF009014FA
:104250008320C1001385C189130101016F00D02B98
:10426000130101FF2324810097470000938787B340
:1042700017440000130404B33304F44023229100D4
:104280002326110093542440638004021304C4FFC6
:104290003304F400832704009384F4FF1304C4FF61
:1042A000E7800700E39804FE8320C1000324810017
:1042B000832441001301010167800000130101FE06
:1042C000232C8100232A9100232821012326310158
:1042D0002324410193890500232E1100175A000061
:1042E000130A0A3F13090500EF10C04703278A008D
:1042F000B71700001384F7FE8324470093F4C4FF2C
:1043000033848400330434411354C4001304F4FF91
:104310001314C400634EF400930500001305090054
:10432000EF10902083278A00B38797006308F50277
:1043300013050900EF1080438320C101032481018C
:1043400083244101032901018329C100032A81003B
:10435000130500001301010267800000B3058040CF
:1043600013050900EF10501C9307F0FF6308F504D4
:10437000138701938327070083268A00B384844030
:1043800093E41400B38787401305090023A2960025
:104390002320F700EF10803D8320C1010324810119
:1043A00083244101032901018329C100032A8100DB
:1043B000130510001301010267800000930500003F
:1043C00013050900EF10501603278A009306F0002A
:1043D000B307E540E3DEF6F483A601833305D54059
:1043E00093E7170023A8A1922322F7006FF05FF450
:1043F00063820518130101FF232481002322910009
:10440000138405009304050023261100EF10803566
:104410008325C4FF130784FF175500001305452BA0
:1044200093F7E5FF3306F70083264600032885004F
:1044300093F6C6FF6302C81A2322D60093F515002F
:104440003308D6006390050A032384FF83254800C0
:10445000975800009388482833076740032887004F
:10446000B387670093F51500630218150323C7008F
:1044700023266800232403016386051A93E61700A8
:104480002322D7002320F6009306F01F63ECF606E4
:1044900093F687FF9386860083254500B306D500F3
:1044A00003A6060013D8570093071000B39707011F
:1044B000B3E7B700938586FF2326B7002324C70000
:1044C0002322F50023A0E6002326E6000324810032
:1044D0008320C100138504008324410013010101DE
:1044E0006F10C0288325480093F5150063860508E2
:1044F00093E61700232ED4FE2320F6009306F01F28
:10450000E3F8F6F893D69700130640006360D612DE
:1045100093D667009385960313868603939535009B
:10452000B305B50083A60500938585FF6398D50084
:104530006F00401583A686006388D50003A6460059
:104540001376C6FFE3E8C7FE83A5C6002326B7009F
:104550002324D700032481008320C10023A4E50085
:10456000138504008324410023A6E6001301010102
:104570006F10C01F67800000B387D70097580000F6
:104580009388881583268600638C160D0328C60041
:1045900093E517003306F70023A606012324D8006D
:1045A0002322B7002320F6006FF01FEE639C051254
:1045B000832586000326C600B386F60093E716001F
:1045C00023A6C5002324B6002322F7003307D70013
:1045D0002320D7006FF09FEF93F51500B386D70027
:1045E00063900502832584FF3307B7408327C70004
:1045F00003268700B386B6002326F60023A4C7004F
:1046000093E716002322F7002324E50083A74183C4
:10461000E3EEF6EA83A5C18A13850400EFF01FCA12
:104620006FF0DFEAB387D7006FF0DFF513064001C4
:104630006370D602130640056364D60693D6C7009E
:104640009385F6061386E606939535006FF05FEDC9
:104650009385C6051386B605939535006FF05FEC1C
:10466000232AE5002328E50093E6170023261701F7
:10467000232417012322D7003307F7002320F70054
:104680006FF0DFE40328450013562640930710001F
:10469000B397C700B3E707012322F5006FF01FEBC4
:1046A00013064015636CD60093D6F70093858607F2
:1046B00013867607939535006FF09FE613064055F5
:1046C000636CD60093D627019385D6071386C60759
:1046D000939535006FF0DFE49305803F1306E00704
:1046E0006FF01FE493E617002322D7002320F60083
:1046F0006FF0DFDD83278600638A07308396C5006D
:10470000130101FD23248102232C4101232861018F
:10471000232611022322910223202103232E31017B
:10472000232A51012326710123248101232291018F
:1047300093F78600130B0600130A05001384050087
:104740006386070883A705016382070893F726009D
:1047500083240B00638C0708832744028325C4014C
:10476000B70A0080930900001309000093CA0AC029
:104770001386090013050A00630209049306090061
:1047800063F42A0193860A00E78007006356A02697
:1047900083278B00B389A9003309A940B387A740B9
:1047A0002324FB0063860720832744028325C4015A
:1047B0001386090013050A00E31209FC83A904000B
:1047C00003A94400938484006FF09FFA93050400CA
:1047D00013050A00EF109048631605228316C400E3
:1047E00083240B0093F72600E39807F693F716004F
:1047F000639C07128327040003278400B70A008004
:10480000930B00009309000093CAFAFF1385070079
:10481000130C07006382091013F60620630C0624AC
:10482000930C070063E6E92E13F70648630A0708AE
:104830000326440183250401131716003307C7001C
:104840003389B740135CF701330CEC009307190070
:10485000135C1C40B387370113060C006376FC0021
:10486000138C07001386070093F60640638E062C10
:104870009305060013050A00EF00404A930C05005B
:10488000630205308325040113060900EFE01FC30E
:104890008357C40093F7F7B793E707082316F4008C
:1048A00033852C01B3072C4123289401232A84014A
:1048B0002320A400138C09002324F400938C090006
:1048C00013860C0093850B00EF00504A03278400E9
:1048D000832704001389090033078741B3879701B1
:1048E0002324E4002320F4009309000083278B0095
:1048F000B38B2B01B38727412324FB00638A070A6C
:1049000083270400032784008316C400138507004F
:10491000130C0700E39209F083AB040083A9440061
:10492000938484006FF09FEE930A0000130500004B
:10493000130C000093090000638E090C6306050E3A
:1049400093870A00938B090063F43701938B070068
:1049500003250400832704010329840083264401DE
:1049600063F6A7003309D9006340790F63C8DB1AE7
:10497000832744028325C40113060C0013050A0093
:10498000E7800700130905006358A006B38A2A418F
:1049900013051000638A0A0483278B00330C2C0153
:1049A000B3892941B38727412324FB00E39607F805
:1049B000130500008320C1020324810283244102E5
:1049C000032901028329C101032A8101832A4101AC
:1049D000032B0101832BC100032C8100832C410098
:1049E00013010103678000009305040013050A000A
:1049F000EF10D077E30205FA8317C40093E70704AA
:104A00002316F4001305F0FF6FF0DFFA1305000022
:104A10006780000083A94400938704009384840086
:104A2000E38A09FE03AC0700138609009305A00082
:104A300013050C00EF005027630005141305150043
:104A4000B30A85416FF0DFEF93050C0013060900F0
:104A5000EF00D031832704009305040013050A00FA
:104A6000B38727012320F400EF105070E30005F214
:104A70006FF09FF88326040163E4F6048325440164
:104A800063E0B9041389090063F43A0113890A0049
:104A900013050900EF20004F832744028325C4013A
:104AA000B306A94013860B0013050A00E780070030
:104AB00013090500E352A0F4B38929416FF01FE305
:104AC0001309070063F4E90013890900138507003F
:104AD0001306090093850B00EF005029032784007B
:104AE0008327040033072741B38727012324E400E9
:104AF0002320F400E31207FC9305040013050A00C9
:104B0000EF10D066E31A05EEB38929416FF01FDE7E
:104B1000138C0900938C09006FF09FDA13860B0049
:104B200093050C00EF0090240327840083270400E2
:104B300013890B0033077741B38777012324E400FF
:104B40002320F4006FF09FE413050A00EF005048A3
:104B5000930C0500E31605D48325040113050A0010
:104B6000EFF01F898317C4001307C0002320EA0059
:104B700093F7F7F76FF09FE893871900938A070080
:104B80006FF05FDC1307C0008317C4002320EA0026
:104B90006FF0DFE6130101FE2328210123263101F6
:104BA000232441012322510123206101232E1100DE
:104BB000232C8100232A9100138B0500930A052ED4
:104BC000130A0000930910001309F0FF83A44A00A0
:104BD00003A48A009384F4FF63C604028357C400CD
:104BE0009384F4FF63FCF9008317E40013050400C9
:104BF00063862701E7000B00336AAA0013048406CA
:104C0000E39E24FD83AA0A00E3920AFC8320C101EB
:104C10000324810183244101032901018329C10067
:104C2000832A4100032B010013050A00032A810097
:104C30001301010267800000130101FD23202103FD
:104C4000232E3101232C4101232A51012328610104
:104C5000232671012326110223248102232291029B
:104C6000930A0500938B0500130B052E130A000011
:104C7000930910001309F0FF83244B0003248B00D9
:104C80009384F4FF63C804028357C4009384F4FF41
:104C900063FEF9008317E4009305040013850A00FE
:104CA00063862701E7800B00336AAA001304840699
:104CB000E39C24FD032B0B00E3100BFC8320C102BB
:104CC0000324810283244102032901028329C101B3
:104CD000832A4101032B0101832BC10013050A0024
:104CE000032A81011301010367800000678000002F
:104CF0006780000067800000678000006780000018
:104D00006780000013051000678000001305100085
:104D1000678000006780000067800000130101FDCC
:104D2000232021032326110223248102232291021E
:104D3000232E3101232C4101232A51012328610113
:104D40002326710123248101232291019387B50039
:104D50001307600113090500636EF708930700014C
:104D600063E0B722EF001020930400019307800155
:104D7000930520009759000093898995B387F9001E
:104D800003A44700138787FF630AE43083274400A6
:104D90008326C4000326840093F7C7FFB307F400FB
:104DA00003A747002326D60023A4C60013671700D5
:104DB0001305090023A2E700EF00501B1305840030
:104DC0008320C102032481028324410203290102BA
:104DD0008329C101032A8101832A4101032B010197
:104DE000832BC100032C8100832C4100130101039C
:104DF0006780000093F487FF63C4071863E2B41868
:104E0000EF0050169307701F63F4973A93D79400FE
:104E10006380071813074000636AF72E93D7640076
:104E20009385970313858703939635009759000060
:104E30009389098AB386D90003A44600938686FF26
:104E4000638686021306F0006F0000016352072498
:104E50000324C400638C86008327440093F7C7FFB4
:104E600033879740E354E6FE9305050003A4090148
:104E700097580000938848866304141F83274400D2
:104E80009306F00093F7C7FF3387974063C8E63275
:104E900023AA190123A81901635C072E1307F01F29
:104EA00003A549006364F72013F787FF1307870002
:104EB0003387E9008326070013D6570093071000B5
:104EC000B397C7003365F500930787FF2326F400E7
:104ED0002324D40023A2A9002320870023A6860030
:104EE00093D72540130610003316F600636AC50AEF
:104EF000B377A600639407021316160093F5C5FF57
:104F0000B377A60093854500639A07001316160031
:104F1000B377A60093854500E38A07FE1308F000E7
:104F20001393350033836900130503008327C500FD
:104F3000138E0500630EF51E03A7470013840700B8
:104F400083A7C7001377C7FFB3069740634ED81EE9
:104F5000E3C206FE3307E4008326470003268400ED
:104F60001305090093E616002322D7002326F60036
:104F700023A4C700EF00807F130584006FF05FE477
:104F80009307C0002320F900130500006FF05FE3D2
:104F900093060020930500041305F0036FF01FE94A
:104FA00003A489008327440013FBC7FF63689B00A9
:104FB00033079B409307F00063C8E70A938C018393
:104FC00003A70C0083AAC18A9307F0FF330A640188
:104FD000B38A54016308F73AB71700009387F700C4
:104FE000B38AFA00B7F7FFFFB3FAFA0093850A0015
:104FF00013050900EF0050539307F0FF930B0500D2
:105000006308F52063644521138C019383250C000C
:10501000B385BA002320BC0013870500631AAA28B1
:10502000931745016396072883AB8900B3075B019B
:1050300093E7170023A2FB001387818A83260700CA
:1050400063F4B6002320B7001387418A8326070044
:1050500063F4B6002320B70013840B006F00C01B5D
:1050600003A549006FF0DFE793E714002322F40063
:10507000B304940023A499001367170013050900D3
:1050800023A2E400EF00806E130584006FF05FD36D
:105090008326C400032684006FF05FD003A4C700FA
:1050A00093852500E38487DC6FF05FCE13D79700EC
:1050B0009306400063F2E6149306400163EAE6308B
:1050C0001306C7059306B705131636003386C900C5
:1050D00003270600130686FF6318E6006F00002B07
:1050E000032787006308E6008326470093F6C6FF80
:1050F000E3E8D7FE0326C7002326C4002324E400E8
:1051000023248600232687006FF09FDD13074001CC
:105110006376F71213074005636AF72C93D7C40030
:105120009385F7061385E706939635006FF01FD039
:10513000130E1E0093773E0013058500638E071043
:105140008327C5006FF01FDF0326840093E514005A
:105150002322B4002326F60023A4C700B30494003E
:1051600023AA990023A8990093E7160023A6140107
:1051700023A4140123A2F4003307E400130509005B
:105180002320D700EF00805E130584006FF05FC31B
:10519000B307F40003A747001305090013671700BE
:1051A00023A2E700EF00805C130584006FF05FC16D
:1051B00093D53400938784006FF0DFBB93E614002F
:1051C0002322D400B304940023AA990023A89900B1
:1051D0009366170023A6140123A4140123A2D4006C
:1051E000B307F4001305090023A0E700EF000058FF
:1051F000130584006FF0DFBC13D767001306970315
:1052000093068703131636006FF05FEC630A3409C8
:1052100003A489008327440093F7C7FF338797408F
:1052200063E697009307F000E3C0E7E41305090085
:10523000EF00C053130500006FF09FB89385C705BA
:105240001385B705939635006FF05FBE8327830003
:105250009385F5FF6396672493F73500130383FF67
:10526000E39607FE03A749009347F6FFB3F7E7006D
:1052700023A2F90013161600E3E4C7D2E30206D214
:105280003377F600631A0700131616003377F6001B
:10529000130E4E00E30A07FE93050E006FF05FC881
:1052A000138C019303270C003387EA002320EC00C2
:1052B00083A60C009307F0FF6388F614B3874B4175
:1052C000B387E7002320FC0093FC7B00638C0C0C6D
:1052D00037170000B38B9B4193058700938B8B009E
:1052E000B3859541B38A5B01B38555411307F7FF39
:1052F00033FAE50093050A0013050900EF00D022F8
:105300009307F0FF6308F51433057541B30A4501AF
:1053100003270C0023A4790193E71A00B305EA00E0
:105320002320BC0023A2FB00E30834D19306F00045
:1053300063F0660F0327440093074BFF93F787FF43
:10534000137717003367F7002322E4001306500099
:105350003307F4002322C7002324C70063E6F600C6
:1053600083A74B006FF05FCD930584001305090000
:10537000EFF00F8883AB890083250C0083A74B00D7
:105380006FF09FCB938A0A016FF05FC693D62640D9
:1053900093071000B397D7003365F50023A2A90047
:1053A0006FF09FD5B3855B01B305B0409395450180
:1053B00013DA450193050A0013050900EF00D01622
:1053C0009307F0FFE312F5F4130A00006FF05FF4A7
:1053D0009306400563E4E60413D7C7001306F706F7
:1053E0009306E706131636006FF05FCE13074015DD
:1053F0006364F70493D7F4009385870713857707D1
:10540000939635006FF09FA223A07C016FF0DFEB35
:105410009307100023A2FB006FF05FE19306401595
:1054200063E4E60413D7F7001306870793067707AC
:10543000131636006FF09FC9130740556364F704D5
:1054400093D724019385D7071385C7079396350013
:105450006FF0DF9D938C8CFFB38A9A01B38A7A41F7
:10546000130A00006FF0DFEA9306405563E4E6029A
:1054700013D727011306D7079306C707131636005D
:105480006FF0DFC49306803F9305F0071305E00734
:105490006FF0DF991306803F9306E0076FF01FC39C
:1054A00083A749006FF01FDD9377350093F6F50F62
:1054B000638E07029307F6FF630606021306F0FFEA
:1054C0006F00800113051500137735006302070292
:1054D0009387F7FF6388C70003470500E314D7FEEF
:1054E0006780000013050000678000009307060036
:1054F00013073000637CF70493F5F50F13978500CD
:10550000B305B70013970501B708FFFE3788808001
:10551000B385E5009388F8EF1308080813033000FB
:105520006F0000019387C7FF130545006370F30206
:105530000327050033C7E500330617011347F7FFBC
:105540003377E60033770701E30E07FC3307F500F6
:10555000639807006FF01FF913051500E304E5F8E1
:1055600083470500E39AD7FE6780000063F6A50233
:105570003387C5006372E502B307C50063060604FE
:105580008346F7FF9387F7FF1307F7FF2380D700C2
:10559000E318F5FE678000009307F00063E8C70298
:1055A000930705009306F6FF630A060C9386160020
:1055B000B386D70003C705009387170093851500AE
:1055C000A38FE7FEE398D7FE67800000B367B500BE
:1055D00093F73700639E0708930806FF93F808FFC8
:1055E00093880801B307150193860500130705008A
:1055F00003A806009386060113070701232807FF67
:1056000003A846FF232A07FF03A886FF232C07FFD2
:1056100003A8C6FF232E07FFE31CF7FC1377C60081
:10562000B38515011378F600630C07049386050013
:1056300013870700B38E0701130E300003A3060083
:1056400013074700B388EE40232E67FE938646007B
:10565000E3661EFF1307C8FF1377C7FF1307470052
:1056600013763600B387E700B385E5006FF09FF34C
:105670009306F6FF930705006FF05FF36780000065
:10568000130608006FF01FF21303F0001307050064
:10569000637EC3029377F7006390070A639205085D
:1056A000937606FF1376F600B386E6002320B70054
:1056B0002322B7002324B7002326B70013070701CE
:1056C000E366D7FE6314060067800000B306C3409C
:1056D0009396260097020000B38656006780C600A6
:1056E0002307B700A306B7002306B700A305B7003A
:1056F0002305B700A304B7002304B700A303B70032
:105700002303B700A302B7002302B700A301B70029
:105710002301B700A300B7002300B7006780000093
:1057200093F5F50F93968500B3E5D50093960501A3
:10573000B3E5D5006FF0DFF69396270097020000DF
:10574000B386560093820000E78006FA9380020039
:10575000938707FF3307F7403306F600E378C3F675
:105760006FF0DFF3138501896FF08FD913850189FD
:105770006FF08FDA130101FF1387050023248100E6
:1057800093050600130405001386060013050700A1
:1057900023AC018623261100EF10D0749307F0FF8D
:1057A000630AF5008320C100032481001301010175
:1057B0006780000083A78187E38607FE8320C100FE
:1057C0002320F400032481001301010167800000FD
:1057D000130101FD232291022326110223248102B9
:1057E00023202103232E3101232C4101232A51019F
:1057F00023286101232671012324810193040600DB
:105800006382051C1384050013090500EFF09FF562
:105810000327C4FF9387B40093066001930A84FFB3
:105820009379C7FF63F6F60E13FA87FF63C6070E78
:1058300063649A0E63D44911174C0000130C4CE9B1
:1058400003268C00B3863A0183A74600630ED61C5C
:1058500013F6E7FF3386C6000326460013761600CC
:105860006314061493F7C7FF3386F900635E460B93
:105870001377170063140702832B84FFB38B7A41DD
:1058800003A74B001377C7FFB387E700338B3701BC
:1058900063544B33338BE90063564B2993850400E3
:1058A00013050900EFF08FC793040500630205405C
:1058B0008327C4FF130785FF93F7E7FFB387FA0039
:1058C000638AE7241386C9FF9307400263E0C72E6B
:1058D00013073001636EC720930705001307040008
:1058E0008326070023A0D7008326470023A2D700E2
:1058F0000327870023A4E70013050900930504008C
:10590000EFE01FAF13050900EFF05FE66F008006C0
:10591000130A0001E3709AF29307C0002320F900F4
:10592000930400006F00000583A7C60003A786004C
:10593000930906002326F70023A4E70083A74A0063
:10594000B38649411306F00093F7170033873A01F5
:105950006364D60AB3E7370123A2FA00832747001E
:1059600093E717002322F70013050900EFF01FE06B
:10597000930404008320C10203248102032901024D
:105980008329C101032A8101832A4101032B0101DB
:10599000832BC100032C8100138504008324410262
:1059A000130101036780000013771700E31807EE67
:1059B000832B84FFB38B7A4103A74B001377C7FF78
:1059C0006FF05FED032481028320C1028324410232
:1059D000032901028329C101032A8101832A41018C
:1059E000032B0101832BC100032C810093050600CA
:1059F000130101036FF08FB2B3E7470123A2FA004E
:105A0000B3854A0193E6160023A2D50083274700F9
:105A1000938585001305090093E717002322F700FB
:105A2000EFE01F9D6FF05FF493F7C7FFB386370178
:105A300013060A0163DEC62213771700E31007E698
:105A4000832B84FFB38B7A4103A74B001377C7FFE7
:105A5000B387E700338B3701E34ECBE283A7CB005C
:105A600003A78B001386C9FF930640022326F70085
:105A700023A4E70093848B0063E2C626130730015A
:105A8000938704006372C702032704009307B001E1
:105A900023A4EB000327440023A6EB0063E8C724FC
:105AA0001304840093870B010327040023A0E7005D
:105AB0000327440023A2E7000327840023A4E70070
:105AC00033874B01B3074B412324EC0093E71700C6
:105AD0002322F70083A74B001305090093F7170053
