S00600002D454C3B
S325001000006F00803000000000000000000000000000000000000000000000000000000000AB
S32500100020130101FC232011002322510023246100232671002328A100232AB100232CC10053
S32500100040232ED1002320E1022322F10223240103232611032328C103232AD103232CE103FF
S32500100060232EF10373252034F325103473263034EF00C013731015348320010083224100C8
S32500100080032381008323C1000325010183254101032681018326C1010327010283274102F8
S325001000A0032881028328C102032E0103832E4103032F8103832FC1031301010473002030DC
S325001000C0130101FD23261102232481021304010313000000F32740342320F4FEF327403057
S325001000E02322F4FE032704FE832744FEB377F70093D70701232AF4FC232E04FC93071000D0
S32500100100232CF4FC032744FD832784FDB377F700638E07041387018A8327C4FD93973700E6
S32500100120B307F70003A707009386018A8327C4FD93973700B387F60083A747001385070097
S32500100140E700070013000000F32740342324F4FEF32740302326F4FE032784FE8327C4FEE4
S32500100160B377F70093D707016F000002832784FD93971700232CF4FC8327C4FD938717001E
S32500100180232EF4FC6FF01FF8232AF4FC832744FDE39407F613000000130000008320C1026A
S325001001A0032481021301010367800000130101FD232611022324810213040103232EA4FC3C
S325001001C0232CB4FC232AC4FC0327C4FDB7070080B377F7002324F4FE0327C4FDB707008051
S325001001E093C7F7FFB377F7002326F4FE832784FE638007080327C4FE93073000630CF70201
S325001002000327C4FE93077000631AF70483A7C183638407061300000083A7C183032644FD0D
S32500100220832584FD0325C4FDE7800700130000006F00800483A781836384070413000000EF
S3250010024083A78183032644FD832584FD0325C4FDE7800700130000006F0080020327C4FE80
S325001002609307F00063F2E702EFF09FE56F00C001730010006F008001130000006F00000117
S32500100280130000006F00800013000000832784FD138507008320C102032481021301010341
S325001002A067800000130101FE232E1100232C81001304010213054028EF30905EB727000077
S325001002C083A707EA83A7870013850700EF204078A30504FE8347B4FE13871700A305E4FE75
S325001002E02326F4FEB7078102938707040327C4FE23A0E700B78701001385076AEF00401D1D
S32500100300130000006FF01FFD9702F0FD938282CF739052309302800873B002307310403063
S32500100320731040349721F0FD9381C1351701F0FF130141CD138381839383819423200300CD
S3250010034013034300E36C73FEEF00000B13030038930300386378730023200300130343006B
S32500100360E36C73FE93020038130300389303003863FC620083A4020023A093009382420027
S3250010038093834300E3E862FE13020038EF00400D6F000000130101FE232E810013040102CC
S325001003A02326A4FE2324B4FE2322C4FE032784FE8327C4FE630AF7026F0040020327C4FE21
S325001003C0930747002326F4FE832784FE938647002324D4FE0327070023A0E700032784FEBF
S325001003E0832744FEE31CF7FC130000000324C1011301010267800000130101FF23261100A1
S3250010040023248100130401011386418393050038B777100213858729EFF0DFF713064028FA
S3250010042093050000B707100213850702EFF09FF61306003893054028B77710021385C71920
S32500100440EFF05FF5EF10407CEF10501F130000008320C1000324810013010101678000000E
S32500100460130101FE232E1100232C81001304010213050000EF00000913000000EF00000CE9
S325001004801306C02F9305C02F1305C02FEF101047EF10D00EB72710021385C7DDEF204024DE
S325001004A003A7018483A6418483A78184138607009385060013050700EFF0DFDE2326A4FE76
S325001004C013051000EF30907E0325C4FEEF208022130101FE232E1100232C810013040102B7
S325001004E02326A4FE0325C4FEEF10806993070500138507008320C1010324810113010102C6
S3250010050067800000130101FE232E1100232C8100130401022326A4FEEF10D06B9307800040
S3250010052073A0073013000000130000008320C101032481011301010267800000130101FE16
S32500100540232E1100232C81001304010213061000930500001305803AEF0040201305003807
S32500100560EF10006F130000001306200093050000B717000013858740EF001048B7170000D1
S325001005801385073EEF10C06C9307803E2326F4FE83A70185639807000327C4FE23A8E184DC
S325001005A06F00800013000000B72710029387875F2324F4FE032784FE23AEE1821300000007
S325001005C0EF20400E130600009305000013050000EF208002130000008320C101032481012D
S325001005E01301010267800000130101FD232611022324810213040103232EA4FC232CB4FCA4
S32500100600232AC4FC8327C4FD83A707002326F4FE8327C4FE138787028327C4FD83A7870035
S3250010062093860700032644FD832584FD13050700EF00406493070500138507008320C1029B
S32500100640032481021301010367800000130101FD232611022324810213040103232EA4FC97
S32500100660232CB4FC232AC4FC8327C4FD83A707002326F4FE8327C4FE138787028327C4FD87
S3250010068083A7870093860700032644FD832584FD13050700EF00D0009307050013850700C4
S325001006A08320C102032481021301010367800000130101FD232611022324810213040103C2
S325001006C0232EA4FC8327C4FD83A707002326F4FE8327C4FE138787028327C4FD83A7870091
S325001006E09385070013050700EF00004293070500138507008320C10203248102130101030F
S3250010070067800000130101FD232611022324810213040103232EA4FC232CB4FC232AC4FC8C
S325001007208327C4FD83A707002326F4FE8327C4FE93878702032644FD832584FD138507008B
S32500100740EF00404393070500138507008320C102032481021301010367800000130101FDB2
S32500100760232611022324810213040103232EA4FC232CB4FC232AC4FC8327C4FD1307100090
S3250010078023A0E7028327C4FD83A707022326F4FE8327C4FD83A70700938747001387070020
S325001007A08327C4FE2320F700032584FD832544FD130700008326C4FDB717100213868781E6
S325001007C0EF1080698327C4FD23A207028327C4FD1387870083A501858326C4FDB71710025E
S325001007E0138607A513050700EF1040239307050063DA07008327C4FD370700801347F7FFC1
S3250010080023A2E700130000008320C102032481021301010367800000130101FA232E81040F
S32500100820130401062326A4FA8327C4FA2322F4FC832744FC83A707002324F4FC232C04FA61
S32500100840832784FC9387470083A707002326F4FC8327C4FC2328F4FC832704FD93F707307C
S32500100860638E071C832704FD93F707106386070EB7070100232EF4FA832744FC83A7870269
S325001008809387170093F7F77F232AF4FC832744FC83A7C702032744FD6302F706832784FC00
S325001008A083A70700232CF4FC832784FD232EF4FA0327C4FBB7870000B377F700638407040E
S325001008C0832744FC83A787020327C4FB1377F70F832644FCB387F600238CE702832744FC51
S325001008E083A787029387170013F7F77F832744FC23A4E702130000006FF01FF81300000048
S325001009006F008000130000000327C4FBB70701006364F704832744FC83A7070213F7E7FF48
S32500100920832744FC23A0E702832744FC83A70702232EF4FC832784FC938747001387070081
S325001009408327C4FD2320F700832784FC9387470083A707002320F4FE832704FD93F707208F
S32500100960E38007EE832704FD93D707012320F4FC6F00C005832744FC83A74703032744FCBD
S32500100980B307F70037170000B307F70083C787832322F4FE832784FC032744FE23A0E700C6
S325001009A0832744FC83A747039387170013F7F77F832744FC23AAE70293071000232CF4FA8B
S325001009C0832704FC9387F7FF2320F4FC832704FC638C0700832744FC03A74703832744FCAC
S325001009E083A70703E318F7F8832704FCE38A07E4832744FC83A7070213F7D7FF832744FCDA
S32500100A0023A0E702832744FC83A707022324F4FE832744FC83A707009387470013870700A1
S32500100A20832784FE2320F700832784FC9387470083A707002326F4FE6FF09FE01300000052
S32500100A40130000000324C1051301010667800000130101FD2326810213040103232EA4FC94
S32500100A608327C4FD2320F4FE832704FE83A707009387470083A707002322F4FE832744FE2E
S32500100A802324F4FE832784FE93F70740638C0702832704FE83A7070293E707402326F4FE37
S32500100AA0832704FE83A7070093874700138707008327C4FE2320F700832704FE23A2070221
S32500100AC06F004003832704FE03A74702B707008093C7C7FF63E0E702832704FE83A7470206
S32500100AE013871700832704FE23A2E702832704FE83A7470283A70185138507000324C1027D
S32500100B001301010367800000130101FE232E8100130401022326A4FE2324B4FE6F00C001AD
S32500100B20032784FEB7470000B377F70063860700930750FF6F0000038327C4FE03A7470329
S32500100B408327C4FE83A70703630CF7008327C4FE03A747028327C4FE83A74700E362F7FC05
S32500100B6093070000138507000324C1011301010267800000130101FD232681021304010346
S32500100B80232EA4FC232CB4FC232AC4FC930770FE2324F4FE032784FDB7770000938717A057
S32500100BA0630CF700032784FDB7770000938727A06302F7066F00C00A8327C4FD03A7470008
S32500100BC0B707008093C7F7FF6306F708832744FD83A707002326F4FE0327C4FE930710001C
S32500100BE063DEE7000327C4FEB707008093C7F7FF6306F7008327C4FE6F00C000B707008004
S32500100C0093C7E7FF0327C4FD2322F700232404FE6F0040048327C4FD03A74700B7070080C1
S32500100C2093C7F7FF630CF7028327C4FD03A747028327C4FD83A74700B337F70093F7F70F3B
S32500100C4013870700832744FD23A0E700232404FE6F00C000130000006F00800013000000BB
S32500100C60832784FE138507000324C1021301010367800000130101FC232E1102232C810263
S32500100C80130401042326A4FC2324B4FC2322C4FC2320D4FC832784FC2328F4FC6F008012C4
S32500100CA08327C4FC83A78702232CF4FC8327C4FC83A7C702232EF4FC032784FD8327C4FD0E
S32500100CC0636CF700032784FD8327C4FDB307F740232AF4FC6F008001B71700001387078015
S32500100CE08327C4FDB307F740232AF4FC832744FD638E0706832744FC032744FD63F6E700C7
S32500100D00832744FC232AF4FC8327C4FC138787038327C4FDB307F700032644FD9385070063
S32500100D20032504FDEF20107C032704FD832744FDB307F7002328F4FC032744FC832744FD82
S32500100D40B307F7402322F4FC0327C4FD832744FDB307F70013F7F77F8327C4FC23A6E70234
S32500100D60832744FCE34EF0F26F00800013000000032704FD832784FC631CF704032704FC65
S32500100D80B7470000B377F70063980704130000008327C4FC83A78702032784FD631CF700C7
S32500100DA08327C4FC03A747028327C4FC83A74700E360F7FE8327C4FC83A78702032784FDE5
S32500100DC06300F702832744FCE34CF0EC6F008001130000006F000001130000006F00800037
S32500100DE013000000032704FD832784FC6304F70693078000F3B707302326F4FE8327C4FE6F
S32500100E002320F4FE8327C4FC83A7070213E717008327C4FC23A0E7028327C4FC83A7070226
S32500100E202322F4FE8327C4FC83A707009387470013870700832744FE2320F700832704FEF6
S32500100E402324F4FE832784FE93F7870073A0073013000000032704FD832784FC630AF700F0
S32500100E60032704FD832784FCB307F7406F000002032704FCB7470000B377F700638607006C
S32500100E80930750FF6F0080009307B0FF138507008320C1030324810313010104678000006A
S32500100EA0130101FC232E1102232C8102130401042326A4FC2324B4FC2322C4FC2320D4FCC1
S32500100EC0232804FC832784FC232CF4FC6F00C00E8327C4FC83A70703232EF4FC8327C4FCC2
S32500100EE083A747032328F4FC0327C4FD832704FD637EF700032704FD8327C4FDB307F74038
S32500100F009387F7FF232AF4FC6F004003832704FD638E0700B7170000138707808327C4FDBF
S32500100F20B307F740232AF4FC6F0040011307F07F8327C4FDB307F740232AF4FC832744FDB0
S32500100F4063820708832744FC032744FD63F6E700832744FC232AF4FC0327C4FCB717000013
S32500100F60938787833307F7008327C4FDB307F700032644FD832584FC13850700EF209056C4
S32500100F80032784FC832744FDB307F7002324F4FC032744FC832744FDB307F7402322F4FC43
S32500100FA00327C4FD832744FDB307F70013F7F77F8327C4FC23A8E702832744FCE34AF0F0FF
S32500100FC06F0080001300000093078000F3B707302326F4FE8327C4FE2320F4FE8327C4FCB8
S32500100FE083A7070213E727008327C4FC23A0E7028327C4FC83A707022322F4FE8327C4FC33
S3250010100083A707009387470013870700832744FE2320F700832704FE2324F4FE832784FE50
S3250010102093F7870073A0073013000000832744FC6354F004032704FCB7470000B377F7004E
S3250010104063920704130000008327C4FC83A74703032704FD631CF7008327C4FC03A747028B
S325001010608327C4FC83A74700E360F7FE8327C4FC83A74702639C0700832744FCE34EF0F267
S325001010806F000001130000006F00800013000000032784FC832784FD630AF700032784FCD2
S325001010A0832784FDB307F7406F000002032704FCB7470000B377F70063860700930750FF6B
S325001010C06F0080009307B0FF138507008320C103032481031301010467800000130101FDFF
S325001010E0232611022324810213040103232EA4FC232CB4FC232AC4FC8327C4FD83A7070000
S325001011002326F4FE8327C4FE138787028327C4FD83A7870093860700032644FD832584FD20
S3250010112013050700EF00005193070500138507008320C102032481021301010367800000ED
S32500101140130101FD232611022324810213040103232EA4FC232CB4FC232AC4FC8327C4FDBE
S3250010116083A707002326F4FE8327C4FE138787028327C4FD83A7870093860700032644FDB8
S32500101180832584FD13050700EF00006E93070500138507008320C10203248102130101032E
S325001011A067800000130101FD232611022324810213040103232EA4FC8327C4FD83A7070052
S325001011C02326F4FE8327C4FE138787028327C4FD83A787009385070013050700EF00803B2B
S325001011E093070500138507008320C102032481021301010367800000130101FD232611021E
S325001012002324810213040103232EA4FC232CB4FC232AC4FC8327C4FD83A707002322F4FE03
S3250010122093070000639A070093070000639607009307000063860700930710006F0080003D
S32500101240930700002324F4FE832784FE639607048327C4FD37170000130707C823A2E70027
S325001012608327C4FD83A747002326F4FE832744FE9387C7000327C4FE23A0E70013070000C4
S325001012808326C4FDB71710021386C72A832544FD032584FDEF00503C130000008320C102DE
S325001012A0032481021301010367800000130101FC232E1102232C8102130401042326A4FC23
S325001012C08327C4FC232CF4FC832784FD83A70700232EF4FC8327C4FD9387870083A7070075
S325001012E02320F4FE832704FE2322F4FE232404FE8327C4FD93878700032784FE23A0E70015
S325001013008327C4FD9387870083A707002326F4FE832744FE93F7070863880700832544FEDE
S32500101320032584FDEF000003832744FE93F7074463880700832544FE032584FDEF000010B7
S32500101340130000008320C103032481031301010467800000130101FD232681021304010359
S32500101360232EA4FC232CB4FC832784FD93F73700639E070A8327C4FD83A7C7008327C4FDA2
S3250010138083A787008327C4FD83A7C7009387170093F7F7032322F4FE8327C4FD83A70700A2
S325001013A083A707002324F4FE032784FE8327C4FD83A7C7001377F70F8326C4FDB387F6007B
S325001013C0238EE7008327C4FD032744FE23A6E7008327C4FD83A7C7009387170093F7F703C7
S325001013E02322F4FE8327C4FD83A78700032744FE6310F7048327C4FD83A7470013F7F7F7D6
S325001014008327C4FD23A2E7008327C4FD83A747002326F4FE8327C4FD83A707009387C7000B
S325001014200327C4FE23A0E7006F008000130000000324C1021301010367800000130101FD03
S325001014402326810213040103232EA4FC232CB4FC8327C4FD03A707018327C4FD83A74701A5
S32500101460630EF70C8327C4FD83A7870193F72700638C0700032784FDB71700009387078004
S32500101480B377F700638A07068327C4FD83A707018327C4FD83A747018327C4FD83A7070104
S325001014A00327C4FDB307F70083C7C70593F7F70F2324F4FE8327C4FD83A70700938747009E
S325001014C0032784FE23A0E7008327C4FD83A707019387170013F7F7038327C4FD23A8E700B1
S325001014E08327C4FD83A7470013E707048327C4FD23A2E7006F0080048327C4FD83A707004F
S325001015009387870083A707002322F4FE832744FE232CF4FC032784FDB71700009387078067
S32500101520B377F700639C07008327C4FD83A7470013F7F7FB8327C4FD23A2E7008327C4FD14
S3250010154003A707018327C4FD83A74701631CF7008327C4FD83A7470013F7F7BB8327C4FD6D
S3250010156023A2E7008327C4FD83A747002326F4FE8327C4FD83A707009387C7000327C4FE29
S3250010158023A0E700130000000324C1021301010367800000130101FE232E81001304010290
S325001015A02326A4FE2324B4FE6F00C001032784FEB7470000B377F70063860700930750FF5D
S325001015C06F00C0018327C4FE03A707018327C4FE83A74701E31CF7FC93070000138507009E
S325001015E00324C1011301010267800000130101FF232611002324810013040101B7270000C1
S3250010160083A747E9638C0700B727000083A747E9E7800700930705006F008000938781890C
S32500101620138507008320C100032481001301010167800000130101FB2326110423248104B2
S3250010164013040105232EA4FA232CB4FA232AC4FA2328D4FAA30504FC232604FC032704FB2D
S32500101660B7470000B377F70093B7170093F7F70F2328F4FC6F0000058327C4FC93871700FA
S325001016802326F4FC8327C4FB03A78700832784FB93861700232CD4FA8326C4FB3387E600E3
S325001016A00347C7011377F70F2380E7008327C4FB83A787009387170013F7F7038327C4FB30
S325001016C023A4E7000327C4FC832744FB635CF7008327C4FB03A787008327C4FB83A7C700C9
S325001016E0E31CF7F88327C4FC6390070A8327C4FB03A787008327C4FB83A7C7006316F7080C
S32500101700832704FD63900702EFF05FEE130705009307B0002320F70093071000A305F4FCFB
S325001017206F00800793078000F3B707302322F4FE832744FE232AF4FC8327C4FB83A7470068
S3250010174013E707088327C4FB23A2E7008327C4FB83A74700232CF4FC8327C4FB83A70700A2
S325001017609387C700032784FD23A0E700832744FD2320F4FE832704FE93F7870073A00730F6
S3250010178013000000130000008327C4FC63960700832744FBE39807F293078000F3B707304B
S325001017A02326F4FE8327C4FE232AF4FC8327C4FB83A7470013E707088327C4FB23A2E70037
S325001017C08327C4FB83A74700232EF4FC8327C4FB83A707009387C7000327C4FD23A0E700C8
S325001017E0832744FD2324F4FE832784FE93F7870073A00730130000008347B4FC63860700AB
S32500101800930750FF6F0080008327C4FC138507008320C104032481041301010567800000BC
S32500101820130101FF232611002324810013040101B727000083A747E9638C0700B727000037
S3250010184083A747E9E7800700930705006F00800093878189138507008320C100032481004D
S325001018601301010167800000130101FB232611042324810413040105232EA4FA232CB4FA12
S32500101880232AC4FA2328D4FA832744FB2324F4FC032704FBB7470000B377F7002326F4FC6D
S325001018A06F00400F8327C4FB83A747019387170093F7F7032328F4FC8327C4FB83A70701EE
S325001018C0032704FD631AF7088327C4FC638C0700EFF01FF5130705009307B0002320F70055
S325001018E06F00C00B93078000F3B707302322F4FE832744FE232AF4FC8327C4FB83A7470063
S3250010190013E707448327C4FB23A2E7008327C4FB83A74700232CF4FC8327C4FB83A70700A4
S325001019209387C700032784FD23A0E700832744FD2320F4FE832704FE93F7870073A0073034
S3250010194013000000130000008327C4FB83A70701032704FDE308F7FE832784FC9387F7FF6B
S325001019602324F4FC832784FB13871700232CE4FA0327C4FB8326470103C707008327C4FBFF
S32500101980B387D700238EE7048327C4FB032704FD23AAE700832784FCE39607F09307800088
S325001019A0F3B707302326F4FE8327C4FE232AF4FC8327C4FB83A7470013E707448327C4FBC4
S325001019C023A2E7008327C4FB83A74700232EF4FC8327C4FB83A707009387C7000327C4FDC4
S325001019E023A0E700832744FD2324F4FE832784FE93F7870073A0073013000000032744FB00
S32500101A00832784FCB307F740138507008320C104032481041301010567800000130101FCD0
S32500101A20232E8102130401042326A4FC2324B4FC2322C4FC2320D4FC1307000093070000F4
S32500101A402324E4FE2326F4FE83A70185638007128327C4FC638807108327C4FC032744FC20
S32500101A6023A8E7008327C4FC032704FC23AAE70093078000F3B707302322F4FE832744FE38
S32500101A80232AF4FC03A7818583A7C1852324E4FE2326F4FE832784FC138807009308000008
S32500101AA0032684FE8326C4FE3307C80093050700B3B50501B387D800B386F500938706008B
S32500101AC0130607009386070013051000930500003307A600130807003338C800B387B600CB
S32500101AE0B306F800938706008326C4FC23A4E60023A6F6008327C4FC37270000130787E9D8
S32500101B00232EE4FC2320F4FE832704FE0327C4FD23A2E7008327C4FD03A70700832704FE3E
S32500101B2023A0E7008327C4FD83A70700032704FE23A2E7008327C4FD032704FE23A0E70030
S32500101B4013000000832744FD232CF4FC832784FD93F7870073A007301300000093070000FF
S32500101B606F0000019307A0FE6F0080009307A0F7138507000324C1031301010467800000FD
S32500101B80130101FD232611022324810213040103232EA4FCEF0050060327C4FD930707001A
S32500101BA093971700B387E70093973700B387E700939727002324F4FE232604FE1300000043
S32500101BC0EF00500713070500938705008326C4FE13860700E366D6FE8326C4FE1386070038
S32500101BE06398C600832684FE93070700E3EAD7FC93070000138507008320C1020324810259
S32500101C001301010367800000130101FF2326810013040101130000000324C10013010101A7
S32500101C2067800000130101FE232E8100130401022326A4FE2324B4FE2322C4FE832744FED1
S32500101C40138507000324C1011301010267800000130101FE232E1100232C81001304010289
S32500101C602326A4FEB7270000938587E80325C4FEEF00400693070500138507008320C1013C
S32500101C80032481011301010267800000130101FF232611002324810013040101B72700005A
S32500101CA083A747E9638C0700B727000083A747E9E7800700930705006F0080009387818966
S32500101CC0138507008320C100032481001301010167800000130101FD23261102232481020E
S32500101CE013040103232EA4FC232CB4FC8327C4FD638807008327C4FD83A78700639E070042
S32500101D00EFF0DFF813070500930760012320F7009307A0FE6F0040058327C4FD032784FDA1
S32500101D202324E4FE2326F4FE8327C4FE032784FE23A2E700832784FE03A707008327C4FE1C
S32500101D4023A0E700832784FE83A707000327C4FE23A2E700832784FE0327C4FE23A0E7000C
S32500101D601300000093070000138507008320C102032481021301010367800000130101FEDF
S32500101D80232E1100232C810013040102B7771002938787192326F4FE6F00C0018327C4FE10
S32500101DA083A70700E78007008327C4FE9387C7FF2326F4FE0327C4FEB77710029387471941
S32500101DC0E37EF7FC13000000130000008320C101032481011301010267800000130101FE54
S32500101DE0232E1100232C810013040102B7771002938787192326F4FE6F00C0018327C4FEB0
S32500101E0083A70700E78007008327C4FE9387C7FF2326F4FE0327C4FEB77710029387C71960
S32500101E20E37EF7FC13000000130000008320C101032481011301010267800000130101FFF2
S32500101E402326810013040101130000000324C1001301010167800000130101FD2326110223
S32500101E6023248102130401032326A4FE2324B4FE2322C4FE2320D4FE232EE4FC0327C4FD4B
S32500101E80832604FE032644FE832584FE0325C4FEEF00C00193070500138507008320C102AE
S32500101EA0032481021301010367800000130101FA232E810413040106232EA4FA232CB4FA74
S32500101EC0232AC4FA2328D4FA2326E4FA9307A0FE2322F4FC832784FB2324F4FC032784FC2A
S32500101EE09307F00063C4E71293078000F3B707302328F4FC832704FD2326F4FC1387018AE3
S32500101F00832784FC93973700B307F700032744FB23A0E7001387018A832784FC93973700AC
S32500101F20B307F700032704FB23A2E700832744FB63820706832784FC0327C4FB232AE4FCEA
S32500101F40232CF4FC032784FD9307F00063E8E700832784FD938707016F0080009307F0FF00
S32500101F60232EF4FC8327C4FD63D607008327C4FD6F0000088327C4FD232CF4FC832784FDA8
S32500101F8013071000B317F70073A04730930700006F000006832784FC0327C4FB2320E4FE6F
S32500101FA02322F4FE032744FE9307F00063E8E700832744FE938707016F0080009307F0FF26
S32500101FC02324F4FE832784FE63D60700832784FE6F000002832784FE2322F4FE832744FE5A
S32500101FE013071000B317F70073B04730930700002322F4FC8327C4FC2326F4FE8327C4FE66
S3250010200093F7870073A0073013000000832744FC138507000324C1051301010667800000C4
S32500102020130101FD232611022324810213040103232EA4FC232CB4FC232AC4FC2328D4FC1F
S32500102040032604FD832544FD032584FDEF2000472326A4FE8327C4FE63C80708B7170000F9
S325001020609386C74C0327C4FE9307070093971700B387E70093972700B387F60003A70700FD
S325001020808327C4FD23A0E700B71700009386C74C0327C4FE9307070093971700B387E7002C
S325001020A093972700B387F60003A747008327C4FD23A2E700B71700009386C74C0327C4FE9B
S325001020C09307070093971700B387E70093972700B387F60003A787008327C4FD23A4E7001C
S325001020E00325C4FEEF000009130000008320C102032481021301010367800000130101FEB3
S32500102100232E1100232C8100130401022326A4FE2324B4FE2322C4FE9306F01F13061000A1
S325001021208325C4FEB71700001385874DEFF05FEF9306F01F13060000832584FEB7170000FF
S325001021401385C74CEFF0DFED9306F01F13061000832544FEB71700001385474EEFF05FEC33
S32500102160130000008320C101032481011301010267800000130101FE232E8100130401022B
S325001021802326A4FE0327C4FE9307200063D6E704B71700009386C74C0327C4FE93070700ED
S325001021A093971700B387E70093972700B387F60023A40700B71700009386C74C0327C4FE72
S325001021C09307070093971700B387E70093972700B387F60023A00700130000000324C1019F
S325001021E01301010267800000130101FD2326810213040103232EA4FC93078000F3B70730E6
S325001022002326F4FE8327C4FE2320F4FE8327C4FD2324F4FE832784FE83A70700032784FE1F
S325001022200327470023A2E700832784FE83A74700032784FE0327070023A0E700832784FE1B
S32500102240032784FE23A2E700832784FE032784FE23A0E70013000000832704FE2322F4FE98
S32500102260832744FE93F7870073A0073013000000130000000324C1021301010367800000F2
S32500102280130101FE232E1100232C8100232A21012328310113040102B7270000938787E975
S325001022A083A707002322F4FE03A7818583A7C18513051000930500003306A70013080600BF
S325001022C03338E800B386B700B307D80093860700130706009387060023ACE18423AEF18439
S325001022E06F00400C832744FE83A707002324F4FE832744FE03A6870083A6C70003A78185FB
S3250010230083A7C185138506009385070063E8A50813850600938507006318B50093060600F6
S325001023209307070063ECD706832744FE83A70701032744FE0327470113050700E780070031
S325001023402326A4FE8327C4FE63980700032544FEEFF09FE96F008004832744FE03A787002D
S3250010236083A7C7008326C4FE13890600930900003306270193050600B3B5E500B3863701F0
S32500102380B387D500938607001307060093870600832644FE23A4E60023A6F600832784FE35
S325001023A02322F4FE032744FEB7270000938787E9E31AF7F213000000130000008320C1018B
S325001023C00324810103294101832901011301010267800000130101FF23268100130401012D
S325001023E09307F0FF73B04730130000000324C1001301010167800000130101FF232611003E
S325001024002324810013040101EF00400A130705009387050023A0E18623A2F186930700004E
S32500102420138507008320C100032481001301010167800000130101FF2326110023248100A8
S3250010244013040101EF008006130605009386050003A5018683A541863307A640130807003C
S3250010246033380601B387B640B38607419387060013050700938507008320C10003248100B9
S325001024801301010167800000130101FF2326810013040101B7E7F5059387071013850700CA
S325001024A00324C1001301010167800000130101FE232E810013040102370381021303C3008C
S325001024C003230300232464FE370381021303830003230300232664FE370381021303C30054
S325001024E003230300032E84FEE3186EFC032384FE1308030093080000931708001307000058
S325001025000328C4FE13060800930600003365C700B3E5D700130705009387050013050700D3
S32500102520938507000324C1011301010267800000130101FE232E8100130401022324A4FE97
S325001025402326B4FEB7068102938646001306F0FF23A0C600B7068102032684FE23A0C600C6
S325001025608326C4FE13D7060093070000B7068102938646009307070023A0F6001300000044
S325001025800324C1011301010267800000130101FE232E810013040102370381020323030059
S325001025A0232464FE370381021303430003230300232664FE0323C4FE1308030093080000D1
S325001025C09317080013070000032884FE13060800930600003365C700B3E5D70013070500C5
S325001025E09387050013050700938507000324C1011301010267800000130101FC232E11020C
S32500102600232C8102130401042326A4FC2324B4FC2322C4FCEFF09FE92324A4FE2326B4FE86
S32500102620032784FE8327C4FE378501001305056A930500003306A700130806003338E8003C
S32500102640B386B700B307D8009386070013070600938706001305070093850700EFF05FED19
S3250010266093078000F3B707302322F4FE832744FE232EF4FCEFF0DFC08327C4FD2320F4FEC7
S32500102680832704FE93F7870073A0073013000000130000008320C1030324810313010104CC
S325001026A067800000130101FF2326110023248100130401011305F0FF9305F0FFEFF05FE71B
S325001026C09307000873A0473013000000130000008320C10003248100130101016780000089
S325001026E0930505009306000013060000130500006F105067130101FF9305000023248100B3
S325001027002326110013040500EF1010740325C0378327C50363840700E780070013050400A1
S32500102720EF30C05E8397C500130101FE232C810023263101232E1100232A9100232821015C
S3250010274013F78700138405009309050063120712371700001307078083A6450033E7E700A9
S325001027602396E5006358D018032884026302080E93D7C70083A4090093F7170023A0090008
S325001027808325C40163900718130600009306100013850900E70008009307F0FF13060500AB
S325001027A06300F51A0317C400032884028325C40113774700630E070003274400832704032D
S325001027C03306E640638607008327C4033306F6409306000013850900E70008009307F0FF02
S325001027E06316F51283A609009307D00163EED70C3707C0DF1307E7FF3357D7401377170053
S325001028008317C4006314070C0326040137F7FFFF1307F77F33F7E70093D7C7002316E40071
S32500102820232204002320C40093F71700639C07128325040323A09900638C050093070404D8
S325001028406386F50013850900EF00500823280402130500008320C10103248101832441013C
S32500102860032901018329C100130101026780000003A90501E30E09FC83A4050093F7370014
S3250010288023A02501B3842441130700006394070003A745012324E400634890006FF05FFB76
S325001028A03309A900E35690FA832744028325C401938604001306090013850900E7800700AF
S325001028C0B384A440E34EA0FC8317C40093E707048320C1012316F4000324810183244101F3
S325001028E0032901018329C1001305F0FF130101026780000083A6C503E348D0E61305000038
S325001029006FF05FF5032604056FF09FEA8317C4008326040137F7FFFF1307F77F33F7E700FB
S3250010292093D7C7002316E400232204002320D40093F71700E38E07EE2328A4046FF05FEF2C
S3250010294083A70900E38007E61307D0016386E70013076001E39AE7F623A0990013050000DA
S325001029606FF05FEFE39606EC2328A4046FF05FEC130101FF23248100232291002326110080
S325001029802320210193040500138405006306050083278503638407068317C4001309000076
S325001029A06380070403274406137717006316070093F707206388070493050400138504009F
S325001029C0EFF05FD6832744061309050093F71700639807008357C40093F7072063880704D0
S325001029E08320C100032481008324410013050900032901001301010167800000EF00002370
S32500102A006FF09FF903258405EF0050339305040013850400EFF01FD183274406130905006A
S32500102A2093F71700E39E07FA6FF0DFFA03258405EF0050328320C10003248100832441000F
S32500102A4013050900032901001301010167800000630C050A130101FF232481002320210156
S32500102A60232611002322910017F9EFFD032989431304050063060900832789036384070664
S32500102A808317C400930400006380070403274406137717006316070093F70720638A0704FF
S32500102AA09305040013050900EFF0DFC7832744069304050093F71700639807008357C400ED
S32500102AC093F70720638C07028320C100032481000329010013850400832441001301010164
S32500102AE06780000013050900EF0040146FF05FF903258405EF0090246FF09FFA03258405C1
S32500102B00EF0050256FF05FFC97050000938585E60325C0376F00101697250000938505CD08
S32500102B206F0050158327450693F71700639807008357C50093F707206386070013050000BB
S32500102B406780000003258505130101FF23261100EF00D01E8320C1001305000013010101E9
S32500102B60678000008327450693F71700639807008357C50093F70720638607001305000068
S32500102B806780000003258505130101FF23261100EF00501C8320C10013050000130101012B
S32500102BA067800000130101FF9387F5FF23248100139417003304F400131424003304F400CF
S32500102BC0131434002320210113890500930544072322910023261100EF00101893040500B8
S32500102BE0630005021305C50023A0040023A2240123A4A4001306840693050000EF10C0283A
S32500102C008320C1000324810003290100138504008324410013010101678000009725000028
S32500102C209385C5BC0325C0376F00D004130101FE232A91009304050013858188232E1100F3
S32500102C40232C810023282101232631012324410123225101EF00900E83A784036398071432
S32500102C6003A4440017070000130747EB23AEE4029387C42E1307300023A2E42E23A4F42E1C
S32500102C8023A0042E930740002326F400130680009305000023200400232204002324040006
S32500102CA02322040623280400232A0400232C04001305C405EF10401D971A0000938ACA5F88
S32500102CC0171A0000130A8A65971900009389896D171900001309897413058405232E840020
S32500102CE023205403232244032324340323262403EF00D00303A48400B7070100938787005D
S32500102D002326F40013068000930500002320040023220400232404002322040623280400B6
S32500102D20232A0400232C04001305C405EF10C01513058405232E8400232054032322440388
S32500102D402324340323262403EF00407E03A4C400B7070200938727012326F400130680007F
S32500102D60930500002320040023220400232404002322040623280400232A0400232C040088
S32500102D801305C405EF10401013058405232E84002320540323224403232434032326240363
S32500102DA0EF00C0789307100023ACF402032481018320C10183244101032901018329C100D5
S32500102DC0032A8100832A410013858188130101026F004078130101FE232631019309050033
S32500102DE01385418823282101232E1100232C8100232A9100EF0080740329C03783278903A3
S32500102E00638E070A1309092E9304F0FF83274900032489009387F7FF63D807006F00000954
S32500102E2013048406638497080317C4009387F7FFE31807FEB707FFFF938717002326F4003D
S32500102E401305840523220406EF00406E13854188EF004070130680002320040023240400A4
S32500102E602322040023280400232A0400232C0400930500001305C405EF1000012328040236
S32500102E80232A040223220404232404048320C10113050400032481018324410103290101EC
S32500102EA08329C100130101026780000003240900630C0400130904006FF05FF513050900FA
S32500102EC0EFF0DFD66FF01FF49305C01A13850900EF00806813040500630805021305C50081
S32500102EE093074000232004002322F4002324A4001306001A93050000EF0010792320890068
S32500102F00130904006FF09FF02320090013854188EF0040649307C00023A0F9006FF01FF7C2
S32500102F20138541886F008061138541886F008062138581886F008060138581886F00806137
S32500102F40130101FF1385418823261100EF00005F8320C10017F5EFFD0325C5F49705000065
S32500102F60938585BC130101016F008046130101FF97050000938545BF17F5EFFD032585F234
S32500102F8023261100EF00C0448320C10013854188130101016F00005C130101FE232C810045
S32500102FA0232A910023282101232631012324410193890500232E110017FAEFFD130A0AAC59
S32500102FC013090500EF00107A03278A00B71700001384F7FE8324470093F4C4FF33848400C0
S32500102FE0330434411354C4001304F4FF1314C400634EF4009305000013050900EF108026EC
S3250010300083278A00B38797006308F50213050900EF00D0758320C1010324810183244101E7
S32500103020032901018329C100032A8100130500001301010267800000B30580401305090082
S32500103040EF1040229307F0FF6308F504138701928327070083268A00B384844093E4140075
S32500103060B38787401305090023A296002320F700EF00D06F8320C10103248101832441015E
S32500103080032901018329C100032A81001305100013010102678000009305000013050900F2
S325001030A0EF10401C03278A009306F000B307E540E3DEF6F483A641823305D54093E717000E
S325001030C023A0A1922322F7006FF05FF463820518130101FF232481002322910013840500A6
S325001030E09304050023261100EF00D0678325C4FF130784FF17F5EFFD1305459893F7E5FF3B
S325001031003306F700832646000328850093F6C6FF6302C81A2322D60093F515003308D6006C
S325001031206390050A032384FF8325480097F8EFFD938848953307674003288700B387670037
S3250010314093F51500630218150323C70023266800232403016386051A93E617002322D7008D
S325001031602320F6009306F01F63ECF60693F687FF9386860083254500B306D50003A6060035
S3250010318013D8570093071000B3970701B3E7B700938586FF2326B7002324C7002322F500A5
S325001031A023A0E6002326E600032481008320C1001385040083244100130101016F00105BA1
S325001031C08325480093F515006386050893E61700232ED4FE2320F6009306F01FE3F8F6F8F9
S325001031E093D69700130640006360D61293D66700938596031386860393953500B305B50048
S3250010320083A60500938585FF6398D5006F00401583A686006388D50003A646001376C6FF8E
S32500103220E3E8C7FE83A5C6002326B7002324D700032481008320C10023A4E5001385040088
S325001032408324410023A6E600130101016F00105267800000B387D70097F8EFFD9388888242
S3250010326083268600638C160D0328C60093E517003306F70023A606012324D8002322B7005C
S325001032802320F6006FF01FEE639C0512832586000326C600B386F60093E7160023A6C500F3
S325001032A02324B6002322F7003307D7002320D7006FF09FEF93F51500B386D7006390050200
S325001032C0832584FF3307B7408327C70003268700B386B6002326F60023A4C70093E716000F
S325001032E02322F7002324E50083A78182E3EEF6EA83A5418913850400EFF01FCA6FF0DFEAF4
S32500103300B387D7006FF0DFF5130640016370D602130640056364D60693D6C7009385F60609
S325001033201386E606939535006FF05FED9385C6051386B605939535006FF05FEC232AE5007A
S325001033402328E50093E6170023261701232417012322D7003307F7002320F7006FF0DFE42E
S32500103360032845001356264093071000B397C700B3E707012322F5006FF01FEB130640158A
S32500103380636CD60093D6F7009385860713867607939535006FF09FE613064055636CD600C3
S325001033A093D627019385D6071386C607939535006FF0DFE49305803F1306E0076FF01FE4D3
S325001033C093E617002322D7002320F6006FF0DFDD130101FE23282101232631012324410153
S325001033E02322510123206101232E1100232C8100232A9100138B0500930A052E130A0000DB
S32500103400930910001309F0FF83A44A0003A48A009384F4FF63C604028357C4009384F4FF5C
S3250010342063FCF9008317E4001305040063862701E7000B00336AAA0013048406E39E24FDF7
S3250010344083AA0A00E3920AFC8320C1010324810183244101032901018329C100832A410024
S32500103460032B010013050A00032A81001301010267800000130101FD23202103232E31013D
S32500103480232C4101232A51012328610123267101232611022324810223229102930A0500DE
S325001034A0938B0500130B052E130A0000930910001309F0FF83244B0003248B009384F4FF00
S325001034C063C804028357C4009384F4FF63FEF9008317E4009305040013850A0063862701D6
S325001034E0E7800B00336AAA0013048406E39C24FD032B0B00E3100BFC8320C1020324810279
S3250010350083244102032901028329C101832A4101032B0101832BC10013050A00032A8101AF
S3250010352013010103678000006780000067800000678000006780000067800000678000000C
S32500103540130510006780000013051000678000006780000067800000130101FD23202103F0
S32500103560232611022324810223229102232E3101232C4101232A510123286101232671011C
S3250010358023248101232291019387B5001307600113090500636EF7089307000163E0B72283
S325001035A0EF00501C93040001930780019305200097E9EFFD9389894CB387F90003A44700B1
S325001035C0138787FF630AE430832744008326C4000326840093F7C7FFB307F40003A747003D
S325001035E02326D60023A4C600136717001305090023A2E700EF009017130584008320C10213
S325001036000324810283244102032901028329C101032A8101832A4101032B0101832BC10026
S32500103620032C8100832C4100130101036780000093F487FF63C4071863E2B418EF009012E0
S325001036409307701F63F4973A93D794006380071813074000636AF72E93D764009385970337
S32500103660138587039396350097E9EFFD93890941B386D90003A44600938686FF63868602D4
S325001036801306F0006F000001635207240324C400638C86008327440093F7C7FF338797408C
S325001036A0E354E6FE9305050003A4090197E8EFFD9388483D6304141F832744009306F0006F
S325001036C093F7C7FF3387974063C8E63223AA190123A81901635C072E1307F01F03A54900D6
S325001036E06364F72013F787FF130787003387E9008326070013D6570093071000B397C70057
S325001037003365F500930787FF2326F4002324D40023A2A9002320870023A6860093D7254038
S32500103720130610003316F600636AC50AB377A600639407021316160093F5C5FFB377A60044
S3250010374093854500639A070013161600B377A60093854500E38A07FE1308F000139335002E
S3250010376033836900130503008327C500138E0500630EF51E03A747001384070083A7C700E0
S325001037801377C7FFB3069740634ED81EE3C206FE3307E40083264700032684001305090007
S325001037A093E616002322D7002326F60023A4C700EF00C07B130584006FF05FE49307C000B9
S325001037C02320F900130500006FF05FE393060020930500041305F0036FF01FE903A48900E7
S325001037E08327440013FBC7FF63689B0033079B409307F00063C8E70A938C418203A70C0038
S3250010380083AA41899307F0FF330A6401B38A54016308F73AB71700009387F700B38AFA002C
S32500103820B7F7FFFFB3FAFA0093850A0013050900EF0050239307F0FF930B05006308F520CE
S3250010384063644521138C019283250C00B385BA002320BC0013870500631AAA289317450170
S325001038606396072883AB8900B3075B0193E7170023A2FB00138701898326070063F4B6000B
S325001038802320B7001387C1888326070063F4B6002320B70013840B006F00C01B03A54900A1
S325001038A06FF0DFE793E714002322F400B304940023A49900136717001305090023A2E40000
S325001038C0EF00C06A130584006FF05FD38326C400032684006FF05FD003A4C7009385250039
S325001038E0E38487DC6FF05FCE13D797009306400063F2E6149306400163EAE6301306C70591
S325001039009306B705131636003386C90003270600130686FF6318E6006F00002B03278700E1
S325001039206308E6008326470093F6C6FFE3E8D7FE0326C7002326C4002324E400232486004D
S32500103940232687006FF09FDD130740016376F71213074005636AF72C93D7C4009385F706D7
S325001039601385E706939635006FF01FD0130E1E0093773E0013058500638E07108327C50065
S325001039806FF01FDF0326840093E514002322B4002326F60023A4C700B304940023AA990004
S325001039A023A8990093E7160023A6140123A4140123A2F4003307E400130509002320D70031
S325001039C0EF00C05A130584006FF05FC3B307F40003A74700130509001367170023A2E700AE
S325001039E0EF00C058130584006FF05FC193D53400938784006FF0DFBB93E614002322D400B6
S32500103A00B304940023AA990023A899009366170023A6140123A4140123A2D400B307F4006A
S32500103A201305090023A0E700EF004054130584006FF0DFBC13D76700130697039306870365
S32500103A40131636006FF05FEC630A340903A489008327440093F7C7FF3387974063E69700BE
S32500103A609307F000E3C0E7E413050900EF000050130500006FF09FB89385C7051385B705D2
S32500103A80939635006FF05FBE832783009385F5FF6396672493F73500130383FFE39607FEA4
S32500103AA003A749009347F6FFB3F7E70023A2F90013161600E3E4C7D2E30206D23377F600E3
S32500103AC0631A0700131616003377F600130E4E00E30A07FE93050E006FF05FC8138C0192AE
S32500103AE003270C003387EA002320EC0083A60C009307F0FF6388F614B3874B41B387E7000D
S32500103B002320FC0093FC7B00638C0C0C37170000B38B9B4193058700938B8B00B385954101
S32500103B20B38A5B01B38555411307F7FF33FAE50093050A0013050900EF00C0729307F0FF79
S32500103B406308F51433057541B30A450103270C0023A4790193E71A00B305EA002320BC003E
S32500103B6023A2FB00E30834D19306F00063F0660F0327440093074BFF93F787FF137717002B
S32500103B803367F7002322E400130650003307F4002322C7002324C70063E6F60083A74B00F0
S32500103BA06FF05FCD9305840013050900EFF00FD283AB890083250C0083A74B006FF09FCBBE
S32500103BC0938A0A016FF05FC693D6264093071000B397D7003365F50023A2A9006FF09FD5BB
S32500103BE0B3855B01B305B0409395450113DA450193050A0013050900EF00C0669307F0FF71
S32500103C00E312F5F4130A00006FF05FF49306400563E4E60413D7C7001306F7069306E70685
S32500103C20131636006FF05FCE130740156364F70493D7F400938587071385770793963500DA
S32500103C406FF09FA223A07C016FF0DFEB9307100023A2FB006FF05FE19306401563E4E6041D
S32500103C6013D7F7001306870793067707131636006FF09FC9130740556364F70493D7240169
S32500103C809385D7071385C707939635006FF0DF9D938C8CFFB38A9A01B38A7A41130A0000E2
S32500103CA06FF0DFEA9306405563E4E60213D727011306D7079306C707131636006FF0DFC498
S32500103CC09306803F9305F0071305E0076FF0DF991306803F9306E0076FF01FC383A7490005
S32500103CE06FF01FDDB347B50093F73700B308C500639407069307300063F0C7069377350036
S32500103D0013070500639A070613F6C8FFB306E6409307000263CED70893860500930707004A
S32500103D206378C70203A80600938747009386460023AE07FFE3E8C7FE9307F6FFB387E74001
S32500103D4093F7C7FF938747003307F700B385F5006368170167800000130705006378150560
S32500103D6083C705001307170093851500A30FF7FEE398E8FE6780000083C605001307170012
S32500103D8093773700A30FD7FE93851500E38E07F683C605001307170093773700A30FD7FE63
S32500103DA093851500E39A07FC6FF01FF667800000130101FF232681001304000283A30500C3
S32500103DC083A2450083AF850003AFC50083AE050103AE450103A3850103A8C50183A605023A
S32500103DE013074702B307E640232E77FC232057FE2322F7FF2324E7FF2326D7FF2328C7FF76
S32500103E00232A67FE232C07FF232ED7FE93854502E346F4FA93860500930707006378C70286
S32500103E2003A80600938747009386460023AE07FFE3E8C7FE9307F6FFB387E74093F7C7FF54
S32500103E40938747003307F700B385F500636817010324C100130101016780000083C7050076
S32500103E601307170093851500A30FF7FEE382E8FE83C705001307170093851500A30FF7FE88
S32500103E80E39EE8FC6FF0DFFC1303F00013070500637EC3029377F7006390070A639205089B
S32500103EA0937606FF1376F600B386E6002320B7002322B7002324B7002326B700130707012A
S32500103EC0E366D7FE6314060067800000B306C3409396260097020000B38656006780C6006A
S32500103EE02307B700A306B7002306B700A305B7002305B700A304B7002304B700A303B700B4
S32500103F002303B700A302B7002302B700A301B7002301B700A300B7002300B7006780000025
S32500103F2093F5F50F93968500B3E5D50093960501B3E5D5006FF0DFF693962700970200000B
S32500103F40B386560093820000E78006FA93800200938707FF3307F7403306F600E378C3F657
S32500103F606FF0DFF3138581876FF04FDD138581876FF04FDE130101FD2324810213040500AB
S32500103F8013850500232291022326110293840500EF0000491307150097C6EFFD9386063B14
S32500103FA02326E1008327840313070101232CD1002322E1009306100013072000232891006F
S32500103FC0232AA100232ED1002324E10083248400638A070803A744068397C40013771700F9
S32500103FE06316070013F707206304070A139727016342070203A74406B7260000B3E7D700C0
S32500104000B7E6FFFF9386F6FF3377D7002396F40023A2E40613050400130641009385040072
S32500104020EF00D01A83A7440613341500330480401374B40093F717001304F4FF63980700E2
S3250010404083D7C40093F70720638407028320C102130504000324810283244102130101035D
S325001040606780000013050400EFE05FBC6FF09FF603A58405EFF00FCE8320C10213050400DA
S325001040800324810283244102130101036780000003A58405EFF08FCA8397C4006FF01FF5BD
S325001040A09305050017E5EFFD0325C5DF6FF09FEC130101FE2328210103A90500232C8100AE
S325001040C0232A9100232E110023263101232441011384050093040500630209048329090027
S325001040E06388090203AA0900630E0A0083250A0063840500EFF0DFFB93050A0013850400EE
S32500104100EFE0DFFC9385090013850400EFE01FFC9305090013850400EFE05FFB9305040036
S32500104120032481018320C101032901018329C100032A810013850400832441011301010276
S325001041406FE0DFF897E7EFFD83A7C7D5638AA7108325C504130101FE232A9100232E11008B
S32500104160232C8100232821012326310193040500638005041309000093090008B3872501C9
S3250010418003A40700630E0400930504000324040013850400EFE09FF3E31804FE83A5C40435
S325001041A013094900E31C39FD13850400EFE01FF283A504046386050013850400EFE01FF13A
S325001041C003A48414630004021389C414630C2401930504000324040013850400EFE01FEFD9
S325001041E0E31889FE83A544056386050013850400EFE0DFED83A784036386070483A7C403FB
S3250010420013850400E780070003A4042E630C0402832504006386050013850400EFF05FE9D3
S3250010422093050400032481018320C101032901018329C10013850400832441011301010287
S325001042406FE0DFE88320C1010324810183244101032901018329C1001301010267800000A2
S3250010426067800000130101FF23248100130405001385050023AC018823261100EF20802249
S325001042809307F0FF630AF5008320C10003248100130101016780000083A78189E38607FE72
S325001042A08320C1002320F400032481001301010167800000130101FF232481001384050030
S325001042C08395E50023261100EF00D06363400502832704058320C100B387A7002328F4046A
S325001042E00324810013010101678000008357C40037F7FFFF1307F7FFB3F7E7008320C10034
S325001043002316F40003248100130101016780000013050000678000008397C500130101FEC4
S32500104320232C8100232A91002328210123263101232E110013F70710138405009304050016
S3250010434013090600938906006310070437F7FFFF1307F7FFB3F7E7008315E4002316F4000F
S32500104360032481018320C10193860900130609008329C100032901011385040083244101B5
S32500104380130101026F0040188395E5009306200013060000EF00902D8317C4006FF01FFBD7
S325001043A0130101FF23248100138405008395E50023261100EF00902B9307F0FF6308F50283
S325001043C08357C400371700008320C100B3E7E7009397070193D707412328A4042316F400F2
S325001043E00324810013010101678000008357C40037F7FFFF1307F7FFB3F7E7009397070165
S3250010440093D707418320C1002316F4000324810013010101678000008395E5006F00C0373B
S325001044209377350013070500639C0704B7867F7F9386F6F79305F0FF0326070013074700A5
S32500104440B377D600B387D700B3E7C700B3E7D700E384B7FE8346C7FFB307A7406384060426
S325001044608346D7FF638C06020345E7FF3335A0003305F5001305E5FF67800000E38806FADF
S32500104480834707001307170093763700E39807FE3307A7401305F7FF678000001385D7FFC0
S325001044A0678000001385C7FF678000009305050017E5EFFD0325059F6F00002E130101FCBB
S325001044C02324C1022326D102232AF1029306060093078102138605009305050017E5EFFD81
S325001044E00325459C232E11002328E102232C0103232E11032326F100EF00103B8320C1017C
S325001045001301010467800000130101FF1387050023248100930506001304050013860600B1
S325001045201305070023AC018823261100EF2040079307F0FF630AF5008320C1000324810047
S32500104540130101016780000083A78189E38607FE8320C1002320F40003248100130101014D
S3250010456067800000130101FE232821011389C182232C81001304050003250900232A9100E4
S325001045802326310123244101232E110093840500130A060093890600EFE05FFA0327C037F5
S325001045A0832787146386070803A747009305F0010325090063C4E50893152700631E040293
S325001045C01307170023A2E700B387B70023A49700EFE05FF8130500008320C101032481014D
S325001045E083244101032901018329C100032A810013010102678000003388B700232448096B
S3250010460083A68718130610003316E600B3E6C60023A4D7182324381193062000E312D4FA43
S3250010462083A6C718B3E6C60023A6D7186FF05FF99307C7142324F7146FF01FF7EFE09FF1F3
S325001046401305F0FF6FF05FF9130101FD23267101938BC18223286101130B050003A50B00D5
S3250010466023202103232E3101232C4101232A51012324810123261102232481022322910243
S3250010468023229101138C0500EFE05FEB032AC03703298A14930A10009309F0FF63080902D4
S325001046A0832449001384F4FF6342040293942400B304990063080C0483A7441063848705B8
S325001046C01304F4FF9384C4FFE31634FF0324810203A50B008320C1028324410203290102D8
S325001046E08329C101032A8101832A4101032B0101832BC100032C8100832C41001301010341
S325001047006FE05FE58327490083A644009387F7FF638E870423A20400E38406FA8327891889
S3250010472033978A00832C4900B377F70063920702E78006000327490083278A1463149701C1
S32500104740E38027F9E38407F8138907006FF05FF58327C91883A544083377F700631C0700DE
S3250010476013050B00E78006006FF0DFFC232289006FF09FFA13850500E78006006FF09FFB90
S325001047809307000063880700170500001305851E6FD01FF567800000130101FF232481008A
S325001047A0130405001385050023AC018823261100EF10C0479307F0FF630AF5008320C10023
S325001047C003248100130101016780000083A78189E38607FE8320C1002320F4000324810039
S325001047E01301010167800000130101FF23261100232481002322910023202101638A050C37
S32500104800138405009304050063060500832785036380070E832744060317C40093F717003F
S325001048206396070A13770720630007109305040013850400EFD01FEF8327C4021309050097
S32500104840638A07008325C40113850400E7800700634C050A8357C40093F70708639E070AD0
S3250010486083250403638C0500930704046386F50013850400EFE09F8523280402832544042F
S325001048806388050013850400EFE05F8423220404EFE00FE9832744062316040093F71700DE
S325001048A0638A070A03258405EFE0DFC8EFE0CFE78320C10003248100832441001305090023
S325001048C0032901001301010167800000E31007F6130900008320C100032481008324410098
S325001048E013050900032901001301010167800000EFE0CFB3832744060317C40093F7170093
S32500104900E39607FC6FF01FF28357C4001309F0FF93F70708E38607F48325040113850400A6
S32500104920EFE0CFFA6FF0DFF303258405EFE01FC18317C400E39C07EE8327440693F71700D1
S32500104940E39807F80325840513090000EFE09FC06FF05FF803258405EFE0DFBF6FF09FF406
S325001049609305050017D5EFFD0325C5536FF0DFE7130101FF232481009737000093874782BA
S32500104980173400001304C4813304F440232291002326110093542440638004021304C4FFB1
S325001049A03304F400832704009384F4FF1304C4FFE7800700E39804FE8320C100032481002D
S325001049C083244100130101016780000083278600638A07308396C500130101FD23248102CE
S325001049E0232C410123286101232611022322910223202103232E3101232A510123267101EB
S32500104A00232481012322910193F78600130B0600130A0500138405006386070883A70501C6
S32500104A206382070893F7260083240B00638C0708832744028325C401B70A008093090000D2
S32500104A401309000093CA0AC01386090013050A00630209049306090063F42A0193860A0080
S32500104A60E78007006356A02683278B00B389A9003309A940B387A7402324FB006386072081
S32500104A80832744028325C4011386090013050A00E31209FC83A9040003A94400938484002A
S32500104AA06FF09FFA9305040013050A00EF00D040631605228316C40083240B0093F72600CC
S32500104AC0E39807F693F71600639C07128327040003278400B70A0080930B000093090000B9
S32500104AE093CAFAFF13850700130C07006382091013F60620630C0624930C070063E6E92EB9
S32500104B0013F70648630A07080326440183250401131716003307C7003389B740135CF70135
S32500104B20330CEC0093071900135C1C40B387370113060C006376FC00138C07001386070004
S32500104B4093F60640638E062C9305060013050A00EFE09FA0930C0500630205308325040194
S32500104B6013060900EFF00F988357C40093F7F7B793E707082316F40033852C01B3072C41DF
S32500104B8023289401232A84012320A400138C09002324F400938C090013860C0093850B0093
S32500104BA0EF00C03E03278400832704001389090033078741B38797012324E4002320F400BB
S32500104BC09309000083278B00B38B2B01B38727412324FB00638A070A832704000327840046
S32500104BE08316C40013850700130C0700E39209F083AB040083A94400938484006FF09FEEE6
S32500104C00930A000013050000130C000093090000638E090C6306050E93870A00938B090041
S32500104C2063F43701938B07000325040083270401032984008326440163F6A7003309D9001C
S32500104C406340790F63C8DB1A832744028325C40113060C0013050A00E780070013090500C0
S32500104C606358A006B38A2A4113051000638A0A0483278B00330C2C01B3892941B387274109
S32500104C802324FB00E39607F8130500008320C1020324810283244102032901028329C10195
S32500104CA0032A8101832A4101032B0101832BC100032C8100832C4100130101036780000002
S32500104CC09305040013050A00EFD09FCAE30205FA8317C40093E707042316F4001305F0FFDD
S32500104CE06FF0DFFA130500006780000083A944009387040093848400E38A09FE03AC070014
S32500104D00138609009305A00013050C00EF00C01B6300051413051500B30A85416FF0DFEF5C
S32500104D2093050C0013060900EF004026832704009305040013050A00B38727012320F4003D
S32500104D40EFD01FC3E30005F26FF09FF88326040163E4F6048325440163E0B904138909004B
S32500104D6063F43A0113890A0013050900EF009064832744028325C401B306A94013860B003E
S32500104D8013050A00E780070013090500E352A0F4B38929416FF01FE31309070063F4E90019
S32500104DA013890900138507001306090093850B00EF00C01D0327840083270400330727418A
S32500104DC0B38727012324E4002320F400E31207FC9305040013050A00EFD09FB9E31A05EE3C
S32500104DE0B38929416FF01FDE138C0900938C09006FF09FDA13860B0093050C00EF000019A3
S32500104E00032784008327040013890B0033077741B38777012324E4002320F4006FF09FE491
S32500104E2013050A00EF00C033930C0500E31605D48325040113050A00EFE04FA98317C400EE
S32500104E401307C0002320EA0093F7F7F76FF09FE893871900938A07006FF05FDC1307C0000C
S32500104E608317C4002320EA006FF0DFE6130101FF1387050023248100930506001304050038
S32500104E80138606001305070023AC018823261100EF1080149307F0FF630AF5008320C100AA
S32500104EA003248100130101016780000083A78189E38607FE8320C1002320F4000324810052
S32500104EC013010101678000009377350093F6F50F638E07029307F6FF630606021306F0FFF1
S32500104EE06F0080011305150013773500630207029387F7FF6388C70003470500E314D7FE75
S32500104F006780000013050000678000009307060013073000637CF70493F5F50F1397850016
S32500104F20B305B70013970501B708FFFE37888080B385E5009388F8EF130808081303300031
S32500104F406F0000019387C7FF130545006370F3020327050033C7E500330617011347F7FF17
S32500104F603377E60033770701E30E07FC3307F500639807006FF01FF913051500E304E5F84C
S32500104F8083470500E39AD7FE6780000063F6A5023387C5006372E502B307C50063060604C6
S32500104FA08346F7FF9387F7FF1307F7FF2380D700E318F5FE678000009307F00063E8C7020F
S32500104FC0930705009306F6FF630A060C93861600B386D70003C705009387170093851500A3
S32500104FE0A38FE7FEE398D7FE67800000B367B50093F73700639E0708930806FF93F808FF7B
S3250010500093880801B3071501938605001307050003A806009386060113070701232807FF05
S3250010502003A846FF232A07FF03A886FF232C07FF03A8C6FF232E07FFE31CF7FC1377C60089
S32500105040B38515011378F600630C07049386050013870700B38E0701130E300003A30600EC
S3250010506013074700B388EE40232E67FE93864600E3661EFF1307C8FF1377C7FF1307470043
S3250010508013763600B387E700B385E5006FF09FF39306F6FF930705006FF05FF36780000047
S325001050A0130608006FF01FF2130101FF138705002324810093050600130405001386060075
S325001050C01305070023AC018823261100EF1000129307F0FF630AF5008320C10003248100E1
S325001050E0130101016780000083A78189E38607FE8320C1002320F4000324810013010101A2
S3250010510067800000130101FF1387050023248100930506001304050013860600130507009F
S3250010512023AC018823261100EF1040279307F0FF630AF5008320C100032481001301010134
S325001051406780000083A78189E38607FE8320C1002320F40003248100130101016780000070
S32500105160130101FD23229102232611022324810223202103232E3101232C4101232A5101EF
S32500105180232861012326710123248101930406006382051C1384050013090500EFE09FDC1E
S325001051A00327C4FF9387B40093066001930A84FF9379C7FF63F6F60E13FA87FF63C6070E04
S325001051C063649A0E63D4491117DCEFFD130C0C8B03268C00B3863A0183A74600630ED61C28
S325001051E013F6E7FF3386C60003264600137616006314061493F7C7FF3386F900635E460B78
S325001052001377170063140702832B84FFB38B7A4103A74B001377C7FFB387E700338B3701D1
S3250010522063544B33338BE90063564B299385040013050900EFE04FB29304050063020540FC
S325001052408327C4FF130785FF93F7E7FFB387FA00638AE7241386C9FF9307400263E0C72E1C
S3250010526013073001636EC72093070500130704008326070023A0D7008326470023A2D70082
S325001052800327870023A4E7001305090093050400EFD0DFE313050900EFE05FCD6F0080064A
S325001052A0130A0001E3709AF29307C0002320F900930400006F00000583A7C60003A786001A
S325001052C0930906002326F70023A4E70083A74A00B38649411306F00093F7170033873A0152
S325001052E06364D60AB3E7370123A2FA008327470093E717002322F70013050900EFE01FC7CC
S32500105300930404008320C10203248102032901028329C101032A8101832A4101032B010161
S32500105320832BC100032C81001385040083244102130101036780000013771700E31807EE22
S32500105340832B84FFB38B7A4103A74B001377C7FF6FF05FED032481028320C1028324410223
S32500105360032901028329C101032A8101832A4101032B0101832BC100032C810093050600EF
S32500105380130101036FE04F9DB3E7470123A2FA00B3854A0193E6160023A2D5008327470066
S325001053A0938585001305090093E717002322F700EFD0DFD16FF05FF493F7C7FFB38637016A
S325001053C013060A0163DEC62213771700E31007E6832B84FFB38B7A4103A74B001377C7FF7A
S325001053E0B387E700338B3701E34ECBE283A7CB0003A78B001386C9FF930640022326F700FC
S3250010540023A4E70093848B0063E2C62613073001938704006372C702032704009307B00175
S3250010542023A4EB000327440023A6EB0063E8C7241304840093870B010327040023A0E700B3
S325001054400327440023A2E7000327840023A4E70033874B01B3074B412324EC0093E71700B0
S325001054602322F70083A74B001305090093F71700B3E7470123A2FB00EFE05FAF6FF09FE83E
S32500105480832604001307B0012320D500832644002322D5006366C7141307840093078500FE
S325001054A06FF01FDD8327C5FF93F7C7FFB389F9006FF0DFE183A7CB0003A78B001386C9FFDE
S325001054C0930640022326F70023A4E70093848B0063E0C6101307300193870400637CC70221
S325001054E0032704009307B00123A4EB000327440023A6EB0063F0C7148327840023A8FB0027
S325001055008327C40023AAFB006306D60A1304040193878B010327040023A0E70003274400EE
S3250010552023A2E7000327840023A4E7001384040093090B00938A0B006FF05FD993050400B0
S32500105540EFF0DFA46FF05FD483A7C60003A786001386C9FF930640022326F70023A4E700F7
S3250010556003A78B0083A7CB0093848B002326F70023A4E70063EEC6041307300193870400D7
S32500105580E37AC7F8032704009307B00123A4EB000327440023A6EB0063FEC70803278400AE
S325001055A09307400223A8EB000327C40023AAEB00E31EF6F40327040193870B0213048401C0
S325001055C023ACEB000327C4FF23AEEB006FF09FF49305040013850400EFF05F9B6FF01FF5DC
S325001055E0032784002324E5000327C4002326E5006300F60613070401930705016FF05FC7FC
S32500105600B38A4A01B387464123245C0193E7170023A2FA008327C4FF13050900930404000E
S3250010562093F71700B3E74701232EF4FEEFE01F946FF05FCD1304840093870B016FF09FEDD5
S3250010564013050900EFE09F92930400006FF09FCB8326040113078401930785012328D50026
S3250010566083264401232AD5006FF09FC09305040013850400EFF09F916FF09FDD83278400F6
S3250010568023A8FB008327C40023AAFB006308D6001304040193878B016FF01FDA032704016E
S325001056A093870B021304840123ACEB000327C4FF23AEEB006FF05FD8130101FF232481003C
S325001056C0232291002326110097C7EFFD83A7877D93040500138405006386070003A78703B0
S325001056E0630007088317C40013F7870063040708032704016300070A93F617006388060287
S32500105700832644012324040013050000B306D040232CD400630A07028320C10003248100B4
S3250010572083244100130101016780000093F627001306000063940600032644012324C4002F
S3250010574013050000E31A07FC13F70708E30607FC93E707042316F4001305F0FF6FF0DFFB24
S3250010576013850700EFD08FCC8317C40013F78700E31007F813F70701630A070613F747009C
S32500105780631C07020327040193E787002316F400E31407F693F6072813060020E38EC6F4FE
S325001057A09305040013850400EF0040058317C400032704016FF05FF483250403638E050083
S325001057C0130704046388E50013850400EFD01F908317C400232804020327040193F7B7FD9B
S325001057E0232204002320E4006FF01FFA1307900023A0E40093E707046FF0DFF58397C500C3
S32500105800130101F8232C8106232E1106232A910623282107232631072324410713F727008F
S3250010582013840500630C07029387350423A0F50023A8F5009307100023AAF5008320C1079C
S325001058400324810783244107032901078329C106032A810613010108678000008395E50038
S325001058609304050063CC050813068100EF00801F634405088327C10037F90000371A000072
S325001058803379F900B7E7FFFF3309F9001339190093090040130A0A809385090013850400D7
S325001058A0EFD09FCB8317C400630E050617D7FFFF1307C72623AEE40293E707082316F4006F
S325001058C02320A4002328A400232A340163180908B3E747018320C1072316F40003248107A5
S325001058E083244107032901078329C106032A810613010108678000008317C40093F707084D
S325001059001309000063860704930900049385090013850400EFD05FC48317C400130A0000A7
S32500105920E31605F813F70720E31A07F093F7C7FF93E72700130734042316F400930710001C
S325001059402320E4002328E400232AF4006FF01FEF93090040130A00006FF01FF48315E40046
S3250010596013850400EF008015631605008317C4006FF01FF68357C40093F7C7FF93E7170022
S325001059809397070193D707416FF09FF4130101F923248106138405008395E50023229106CA
S325001059A02320210723261106930406001389060063CA050413068100EF00C00A634405048E
S325001059C00327C100B7F700008320C106B3F7E70037E7FFFFB387E7000324810693B71700D1
S325001059E02320F9001307004023A0E40037150000832441060329010613050580130101072E
S32500105A00678000008357C40093F70708638807028320C10603248106930700002320F90070
S32500105A201307000423A0E40003290106832441061305000013010107678000008320C106E5
S32500105A40032481062320F9001307004023A0E40003290106832441061305000013010107F0
S32500105A6067800000130101FF138705002324810093050600130405001305070023AC01887D
S32500105A8023261100EF0000319307F0FF630AF5008320C10003248100130101016780000082
S32500105AA083A78189E38607FE8320C1002320F400032481001301010167800000130101FFDA
S32500105AC023248100130405001385050023AC018823261100EF00803C9307F0FF630AF500E7
S32500105AE08320C10003248100130101016780000083A78189E38607FE8320C1002320F4004A
S32500105B00032481001301010167800000130605001305000093F61500638406003305C5000C
S32500105B2093D5150013161600E39605FE678000006340050663C60506138605009305050013
S32500105B401305F0FF630C060293061000637AB6006358C0001316160093961600E36AB6FE7B
S32500105B601305000063E6C500B385C5403365D50093D6160013561600E39606FE67800000DD
S32500105B8093820000EFF05FFB13850500678002003305A0406348B000B305B0406FF0DFF9C9
S32500105BA0B305B04093820000EFF01FF93305A040678002009382000063CA0500634C05001F
S32500105BC0EFF09FF71385050067800200B305B040E35805FE3305A040EFF01FF63305B0409A
S32500105BE067800200130101FF232611002324810013040101B727000083A747E9638C070029
S32500105C00B727000083A747E9E7800700930705006F00800093878189138507008320C10013
S32500105C20032481001301010167800000130101FD232611022324810213040103232EA4FC65
S32500105C408327C4FD63C407020327C4FD9307070093971700B387E700939727003717000006
S32500105C601307C74CB387E7006F008000930700002324F4FE832784FE63860706832784FEB0
S32500105C8083A7070083A7070163800702832784FE83A7070083A70701032584FEE7800700F8
S32500105CA0930705006F008000930700002326F4FE0325C4FDEFC00FCC8327C4FE63D0070250
S32500105CC0EFF05FF2130705008327C4FEB307F0402320F7009307F0FF6F000002930700003B
S32500105CE06F008001EFF01FF013070500930710052320F7009307F0FF138507008320C1021A
S32500105D00032481021301010367800000130101FD2326810213040103232EA4FC13000000C7
S32500105D208327C4FD2326F4FE0325C4FE93070500638607001330107C6F0080001330207C91
S32500105D4013000000130000006FF0DFFF130101FF232611002324810013040101B72700009D
S32500105D6083A747E9638C0700B727000083A747E9E7800700930705006F0080009387818965
S32500105D80138507008320C100032481001301010167800000130101FD23261102232481020D
S32500105DA013040103232EA4FC232CB4FC8327C4FD63C407020327C4FD93070700939717005A
S32500105DC0B387E70093972700371700001307C74CB387E7006F008000930700002326F4FEDB
S32500105DE08327C4FE638407048327C4FE83A7070083A70702638207028327C4FE83A70700D4
S32500105E0083A70702832584FD0325C4FEE7800700930705006F00C002832784FD372700005F
S32500105E2023A2E700930700006F008001EFF01FF213070500930710052320F7009307F0FF95
S32500105E40138507008320C102032481021301010367800000130101FF232611002324810048
S32500105E6013040101B727000083A747E9638C0700B727000083A747E9E78007009307050080
S32500105E806F00800093878189138507008320C100032481001301010167800000130101F725
S32500105EA0232611082324810813040109232EA4F603A7C1892326E4FE13070000232A04F80C
S32500105EC08327C4F763C407020327C4F79307070093971700B387E700939727003717000090
S32500105EE01307C74CB387E7006F008000930700002326F4F88327C4F8638A07048327C4F8BC
S32500105F0083A7070083A7070263960700930710006F000005930704F9938507000325C4F750
S32500105F20EF0050369307050063D60700930700006F000003032744F9B7E7FFFFB307F70037
S32500105F4093B7170093F7F70F6F008001EFF09FF013070500930710052320F700930700003A
S32500105F60138707008326C4FE83A7C189B3C7F6009306000063840700EF0010251305070051
S32500105F808320C108032481081301010967800000130101FF2326110023248100130401017B
S32500105FA0B727000083A747E9638C0700B727000083A747E9E7800700930705006F00800069
S32500105FC093878189138507008320C100032481001301010167800000130101FD2326110271
S32500105FE02324810213040103232EA4FC232CB4FC232AC4FC232404FE8327C4FD63C40702C5
S325001060000327C4FD9307070093971700B387E70093972700371700001307C74CB387E7008F
S325001060206F008000930700002326F4FE8327C4FE638207048327C4FE83A7070083A7C7019B
S32500106040638407028327C4FE83A7070083A7C701032644FD832584FD0325C4FEE7800700C0
S325001060602324A4FE6F0080019307A0F72324F4FE6F00C0009307F0FA2324F4FE832784FEAF
S3250010608063D00702EFF0DFF013070500832784FEB307F0402320F7009307F0FF2324F4FECF
S325001060A0832784FE138507008320C102032481021301010367800000130101FF2326110082
S325001060C02324810013040101B727000083A747E9638C0700B727000083A747E9E7800700F5
S325001060E0930705006F00800093878189138507008320C10003248100130101016780000030
S32500106100130101FD2326810213040103232EA4FC8327C4FD03A78700B70700403367F70054
S325001061208327C4FD23A4E700232604FE6F008009B71700009386C74C0327C4FE9307070066
S3250010614093971700B387E70093972700B387F60003A707008327C4FD83A70700631EF7047D
S32500106160B71700009386C74C0327C4FE9307070093971700B387E70093972700B387F6009F
S3250010618083A7870063DA07020327C4FE9307070093971700B387E700939727003717000064
S325001061A01307C74CB387E7000327C4FD6306F700930730FF6F0080028327C4FE93871700D9
S325001061C02326F4FEB727000083A707E9138707008327C4FEE37EF7F49307000013850700E4
S325001061E00324C1021301010367800000130101FC232E1102232C8102130401042326A4FC54
S325001062002324B4FC2322C4FC9307F0FF2320F4FE9307D0FE2322F4FE232404FEB7270000E8
S32500106220938587E80325C4FCEF00C047232EA4FC8327C4FD639C07000325C4FCEF008058D2
S32500106240232EA4FC930710002324F4FE8327C4FD638C070A0325C4FDEF00806A2320A4FE42
S32500106260832704FE63D80700832704FE2322F4FE6F00000A032704FE9307070093971700B0
S32500106280B387E70093972700371700001307C74CB387E7002326F4FE032784FCB7070040F7
S325001062A09387F7FF3377F7008327C4FE23A4E700832784FE639C07000325C4FEEFF05FE4BF
S325001062C02322A4FE832744FE63C407048327C4FD83A7C700638407028327C4FD83A7C700FB
S325001062E0832644FC032684FC8325C4FC0325C4FEE7800700930705006F008000930700000E
S325001063002322F4FE6F00C0009307D0FE2322F4FE832744FE63D40702032504FEEFB09FE5E9
S32500106320EFF09FD913070500832744FEB307F0402320F7009307F0FF6F008000832704FE9D
S32500106340138507008320C103032481031301010467800000130101FF232611002324810040
S3250010636013040101B727000083A747E9638C0700B727000083A747E9E7800700930705007B
S325001063806F00800093878189138507008320C100032481001301010167800000130101FD1A
S325001063A0232611022324810213040103232EA4FC232CB4FC232AC4FC8327C4FD63C40702EE
S325001063C00327C4FD9307070093971700B387E70093972700371700001307C74CB387E700CC
S325001063E06F008000930700002324F4FE832784FE63860708832784FE83A7870013F7370083
S32500106400930710006302F706832784FE83A7070083A74701638A0704832784FE83A7070036
S3250010642083A74701032744FD13060700832584FD032584FEE78007002326A4FE8327C4FEB1
S3250010644063D00702EFF01FF1130705008327C4FEB307F0402320F7009307F0FF6F00400311
S325001064608327C4FE6F00C002EFF0DFEE130705009307D0002320F7006F004001EFF09FEDDF
S3250010648013070500930710052320F7009307F0FF138507008320C10203248102130101038E
S325001064A067800000130101FC232E8102130401042326A4FC93078000F3B707302322F4FEC3
S325001064C0832744FE232EF4FC83A701839387370093F7C7FF1387070023A8E18203A701832D
S325001064E08327C4FC3307F700B70700029387070063F2E7028327C4FD2324F4FE832784FEFC
S3250010650093F7870073A00730130000009307F0FF6F00800383A701832320F4FE03A701836B
